:020000040800F2
:10000000D0060020810100084315000841150008B2
:1000100000000000000000000000000000000000E0
:10002000000000000000000000000000471500086C
:1000300000000000000000004515000849150008F8
:100040009301000893010008930100089301000840
:100050009301000893010008930100089301000830
:100060009301000893010008930100089301000820
:100070009301000893010008930100089301000810
:100080009301000893010008930100089301000800
:1000900093010008930100089301000893010008F0
:1000A00093010008930100089301000893010008E0
:1000B00093010008930100089301000893010008D0
:1000C00000F002F800F04CF812A030C808382418EC
:1000D0002D18AC4201D100F043F80FCCA246AB463C
:1000E0000CA730CF2D1B083F3F197C427F1E544484
:1000F0002D090426F441641EAC4201D300F030F80F
:100100000126334200D0FB1A3343984754465D46DC
:10011000DFE70000E41B0000041C0000103A02D3DB
:1001200078C878C1FAD8520701D330C830C101D598
:1001300004680C6070470000704700000023002432
:1001400000250026103A01D378C1FBD8520700D30E
:1001500030C100D50B6070471FB51FBD10B510BD75
:1001600000F0A3FB1146FFF7F7FF01F075FA00F06E
:10017000BBFB03B4FFF7F2FF03BC00F0C1FB0000C0
:100180000748804707480047FEE7FEE7FEE7FEE72F
:10019000FEE7FEE704480549054A064B70470000A4
:1001A00051150008C1000008D0000020D006002032
:1001B000D0020020D002002001E004C0091F042961
:1001C000FBD28B0701D50280801CC90700D00270CA
:1001D000704700290BD0C30702D00270401C491E93
:1001E000022904D3830702D50280801C891EE3E71D
:1001F0000022EEE70022DFE77047704770470000FB
:10020000F0B5F94D0C091E092C402E402F468BB03D
:10021000A7437DD0B543FCD0002E7AD0002CFCD073
:100220000D465D40ED0F2543AC1BFF25AD04641961
:100230000894C502440DC9022143500DDC02044359
:100240000120C00701430443D2020191200C110C8C
:1002500000958C46010423468B430A9161460904AC
:10026000E24D8A430991010A7D4449198039097890
:1002700005464D4301266D18F605751B6943C90CEB
:10028000640B891C4C436418B5012C1B250C2E04EF
:10029000B4434C434D43210C691889090591009DD5
:1002A000E90701D00121C90704912C46019967088B
:1002B000CD072F434C08059DE10B4D432D0C2946DE
:1002C0006646754302950D4645432E46029D7D1BAD
:1002D000B44100950D465D4301942C0C2F040D464E
:1002E0005543AE462D0C3D43029503947546049C40
:1002F0002D04641B049406D2029C039D641C0026FA
:1003000075410395029401AC70CC009F7D1B01E008
:100310003EE162E1B4410904009507910194059919
:10032000A4086143090C0C464443650BE7040C46E2
:1003300066467443A646640B3C4303950294744698
:10034000049DE4042C1B049406D2029C039D641CAF
:10035000002675410395029401AC70CC009F7D1B73
:10036000B44101940C465C430095650FE7000C46D0
:100370005443A646640F3C43039502947446049D7F
:10038000E4002C1B049406D2029C039D641C0026EE
:1003900075410395029401AC70CC009F7D1BB44164
:1003A000AE09AF06049DC900AD092F43049DA40604
:1003B000AD060495079D344369180791059DE10B2F
:1003C0004D432D0C29466646754302950D4645431F
:1003D0002E46029D7D1BB44100950D465D43019460
:1003E0002C0C2F040D465543AE462D0C3D43029573
:1003F00003947546049C2D04641B049406D2029C4D
:10040000039D641C002675410395029401AC70CCD9
:10041000009F7D1BB44101948C050694079C890ABA
:10042000611800950791019C0599A4086143090C86
:100430000D464543680BEF040D46644665436C0B5F
:100440003C43049FED047D1BAC4602D20025641C96
:100450006841009E019D371B854108465843019520
:100460000C46460FC5005443600F28436546E40020
:100470002C1B02D20025401C6E41019D3F1AB54144
:100480002846BD09800628438446A009BF064E02BF
:100490000699A40676180743079D002068410A992B
:1004A000079019430020099B00906046FF191343F1
:1004B0004041E20F64003A43A4460446D71A8C41F7
:1004C000A04203D90120009020463A46C70F941855
:1004D00040416246D20F2243644664000494009C6B
:1004E000BE466400D71AA446044602978C4177465C
:1004F000002F01D1A04204D96046401C8446029AD4
:100500002046C40FA64694184041049A0546D20FCF
:10051000224364466400D31A8D417146002901D1FB
:10052000A84202D928461A46641C1043012200281A
:1005300000D0164361020020079B891904465C41E4
:100540000223002C02DB491813466441089DCE0AA1
:100550002D145D194B056705E10A2C050D19089945
:100560003E43C9076940002B08D0934006D30022C0
:10057000761C5141002B01D1760876001C4A002DD3
:1005800043DB154241D0AA433FD030460BB0F0BD0B
:1005900006180D464D41174C7642AC411AD39518BA
:1005A0001C465C41134A6D42A24113D301225205FD
:1005B0004C00D4420AD15C00D4420BD04B4002D54F
:1005C00092021143E2E749004908DFE75940C90FA9
:1005D000C90718E000200849D8E7054801420DD1B5
:1005E0000342F7D0F2E700000000FF079C1900006B
:1005F0000000F07F0000E0FF0000F87F1148594044
:100600000143C01241400020C0E70123089A9B0625
:100610009A4205DC032252078918C90FC907B5E7BA
:10062000052252078918074A1143D2125140ADE7FB
:1006300070B515461C4602460B4628462146FFF774
:10064000DFFD70BDFFFFFF7F1F22030C02D10F22D1
:10065000000402D0030E03D004E0002001467047DE
:100660000002083A030F01D10001121F830F01D1CC
:100670008000921E002801DB4000521E1205511816
:100680004205C012411810467047C10FC90700D07B
:100690004042012292071143D6E701218907D3E79F
:1006A000F0B5FF252D04C609C209FF2704462E40D8
:1006B0000137CB093E4348402A402B400746002AD9
:1006C0006BD0002B69D0AA4267D0AB4265D000281E
:1006D00000DA32460125ED0529432C4309022002A8
:1006E000090AD21A4B0C7F24E31A434C000A7C44BB
:1006F000E35C7D242404121914145B00A2188842C0
:1007000001D3521C00E0400049420C465C432411D6
:100710005C43DB016415E318040A5C43C502200D49
:100720000C4644436419250A5D432303EC0C0D4633
:10073000654300030019EB184C42A34201D35B1838
:10074000401CD4052018002B07D05B00C91804D327
:10075000401C002901D1400840003F2189048A4201
:1007600009D3002A08DC1106090F04D00321490728
:100770004018C00FC007F0BD0122410012068918C1
:100780007F2252069142F6D205214907C84201D57F
:100790009010F0BDFF20C005F0BD002F00DA3246FA
:1007A0001648AA4207D2AB4205D21902090E17D049
:1007B000F80FC007F0BDFF2563002D06AB42F9D846
:1007C0004900A942F6D8AB4201D1A942F2D0A942D0
:1007D00001D1002101E061004908D0050843F0BDC6
:1007E0001102090EFBD0FF200243D005F0BD0A46DE
:1007F0000146104654E70000961500000000C07F37
:1008000010B501469E240002CA15A307002A02D093
:100810001843002A04DBA21A002A0CDDD04010BDC8
:100820001206120E01D140004008A21A03D4D04093
:1008300040420028F3DDFF2248001206904201D911
:10084000002010BDC817C043584010BD1F22030C24
:1008500002D10F2200041CD0030E01D10002083A7D
:10086000030F01D10001121F830F01D18000921EDE
:10087000002801DB4000521ED20551180212511807
:100880001922904004D3491C002801D1490849008D
:1008900008467047C10FC90700D0404201229207A5
:1008A0001143D3E701218907D0E7754600F024F80A
:1008B000AE46050069465346C008C000854618B0DC
:1008C00020B5FFF767FC60BCB64600260027C0C510
:1008D000C0C5C0C5C0C5C0C5C0C5C0C5C0C5403DF8
:1008E000490849008D46704710B50446C046C046C9
:1008F0002046FFF73EFC10BD00487047180000205E
:1009000001491820ABBEFEE7260002007047000038
:10091000B0B5044600F0E8F80546601C02D08F48E8
:100920000078041900F0E0F8401BA042FAD3B0BDF3
:10093000F0B58BB006900C68002C00D1BDE060488B
:10094000069A824201D0052000E004201723DB062E
:10095000069AD2180A23DA410192042A00D30190A0
:1009600006982030009000263546334609912246ED
:100970000BE03C43089E14605B1C0A681046D8409C
:10098000361DAD1C002800D197E0012007469F408E
:100990003A40F1D00490089603200446AC400295FA
:1009A000E54349680E460640741E012C05920795E2
:1009B000039110D8069A90682840099CE468029D2B
:1009C000AC4004439460C806C00F98405468BC43D0
:1009D0000443546006E0032E029D03D10646059FA2
:1009E000039C1FE0069AD0680799084009998C6813
:1009F000AC400443D460022E059F039C12D11C20FE
:100A0000089908400F218140DC08A400009A16597B
:100A10008E43099F39698140314311517C68059F9C
:100A200003262640AE4006990868079A10403043D6
:100A30000860A003800F0999089E049A9CD052492F
:100A4000086810430860086810400A900C20304085
:100A50000F21814003241E46A6430A9C1A4AB4581B
:100A60008C43019981402143B1500999154A9668F8
:100A70004868C4020FD53E439660D66884020FD4FE
:100A8000BE43D660566884030FD4BE4356601468D4
:100A9000C00310D56DE7BE439660D6688402EFD5DB
:100AA0003E43D66056688403EFD53E4356601468D3
:100AB000C00300D55DE7BC435CE70BB0F0BDC046AA
:100AC000001000480004014008000140006908408F
:100AD000411E88417047002A02D018228150704779
:100AE0002822815070470000054800687047C046C2
:100AF0001A48007802490A68101808607047C04612
:100B0000C800002080B58548016810220A430260B1
:100B1000032000F005F800F023F8002080BDC04657
:100B200070B504467D20C0000C4E317800F018FFEF
:100B300001468248006800F013FF00F04BFB0125DE
:100B4000032C08D8002806D10025E84321462A4670
:100B500000F01CF87460284670BDC0460C000020F0
:100B600082B0094801680122114301600168114007
:100B700001910199110742680A43426040680840A8
:100B80000090009802B0704718100240002805D469
:100B90000322034693430A4A9A1803E00C220240B8
:100BA000064BD2188007C00E8901C9B28140FF23CD
:100BB00083401068984308431060704714ED00E0CC
:100BC00000E400E0F0B581B0002842D00D460446B4
:100BD000524B186801210840A84208D21A68012027
:100BE00082432A431A601A680240AA4251D12068FF
:100BF00082074B4E0CD5420704D5072212023368F8
:100C0000134333603268F0239A43A368134333607D
:100C1000C00721D1414A116801200140A94205D9EC
:100C20001168814311601168C90732D121784907E1
:100C30003B4F06D5072109023A688A43E168114310
:100C400039603B681907890F374A022912D21446C6
:100C500055E0012001B0F0BD6268032A14D0022AD9
:100C60002F4B0BD0181F012A15D1006880030846AE
:100C70000FD514E003292CD12C4C40E0181F00683C
:100C80008001084605D50AE0254B186B800308460D
:100C900005D401B0F0BD006880070846F9D5186892
:100CA00003210091884310431860FFF71DFF06469B
:100CB0001C4F1B4800680C21014060688000814285
:100CC000A8D0FFF711FF801BB842F2D9009801B0FD
:100CD000F0BD0321CD0399022B40090F144C645C35
:100CE000B96A0F260E401349895DAB4203D0000458
:100CF0008342104600E00D4800F032FE444338685D
:100D00000006000F0C49085CC4400C480460032036
:100D1000FFF706FF002001B0F0BDC04600200240F2
:100D2000041002408813000000127A00006CDC02FC
:100D3000D81C0008E81C0008C81C0008140000208B
:100D4000F0B587B004460120002C00D13CE20490AD
:100D50002078C007F64E05940CD071680C20014035
:100D6000042900D08FE03068800303D56068002834
:100D700000D131E12078800721D570680007800F0D
:100D80000ED070680C210140082900D098E00320A3
:100D9000C003716801400120C003814200D08FE090
:100DA00030688007059C03D5E068012800D013E176
:100DB0003068F82188432169C90001433160059CEE
:100DC0002078000724D42078400736D42078C00645
:100DD00000D4CEE0706B059949694A1D00D1BDE091
:100DE000012900D03EE1042108437063706B0121AA
:100DF00001437163FFF778FE0546706B800700D5ED
:100E0000AFE0FFF771FE411B03200229F5D9DBE1BA
:100E1000706AE16900297ED0012108437062FFF702
:100E200063FE0546706A8007CDD4FFF75DFE401B68
:100E30000228F7D9032007B0F0BD01200390010775
:100E4000F0690840029006D1F0690843F061F0694A
:100E50000840069006980191DC4F3868C00546D4DA
:100E600003980402386820433860FFF73DFE0546CA
:100E7000386820423BD1FFF737FE401B6428F7D982
:100E8000032007B0F0BD71680140082908D1032094
:100E9000C0037168014001200004814200D162E773
:100EA0006268306801214F04002A00D129E1052A37
:100EB00000D11FE1012A00D03CE1090408433FE1D1
:100EC0003068059CE168002937D001210843306073
:100ED000FFF70AFE05463068800700D568E7FFF790
:100EE00003FE401B0228F6D9032007B0F0BD059889
:100EF0008168306AB64F002900D1DDE0052900D1B4
:100F0000C5E0012900D1C6E0039988433062306A08
:100F100004218843C1E0012188437062FFF7E4FDAA
:100F20000546706A800700D44DE7FFF7DDFD401BE2
:100F30000228F6D9032007B0F0BD012188433060B4
:100F4000FFF7D2FD05463068800700D437E7FFF78A
:100F5000CBFD411B03200229F5D935E1042188434B
:100F60007063706BF821884305998969C900014352
:100F700071630598007880060BD571680C200140DC
:100F80000C294DD1706B800303D50598006A0128A8
:100F900022D10598446A002C1BD070680C210140B6
:100FA00008291CD1012C17D00320C203706802400D
:100FB000F16A059CA36A9A420ED10F221140236B5D
:100FC000994209D191040840E16A8842049800D00E
:100FD000FAE0002007B0F0BD049807B0F0BD012092
:100FE000020631680492914331604706FFF77CFDA9
:100FF0000546022C0AD13068384200D1C3E0FFF721
:1010000073FD411B03200229F5D9DDE03068384229
:10101000DFD0FFF769FD411B03200229F6D9D3E099
:1010200071680140082905D10320C003716801409F
:101030008142A7D0706B0599096A002900D18FE021
:1010400001210A04104370634C04FFF74DFD05466F
:10105000706B20429DD1FFF747FD411B0320022901
:10106000F6D9B1E0042108437063706B0121884315
:101070007063FFF739FD0546706B800700D478E791
:10108000FFF732FD411B03200229F5D99CE0042122
:1010900008433062306A039908433062FFF724FD49
:1010A0000546306A80071BD4FFF71EFD401BB8427F
:1010B000F7D9032007B0F0BD039988433062306A46
:1010C000042188433062FFF70FFD0546306A800730
:1010D00006D5FFF709FD411B0320B942F6D973E09D
:1010E00002980028059C00D070E6F06901998843B9
:1010F000F0616BE68A0410433060090430680843ED
:101100001EE00A04904330608804316881433160F6
:10111000FFF7EAFC0546059C3068384200D129E615
:10112000FFF7E2FC411B03206429F5D94CE0C046DF
:10113000001002400A0490433060890430688843FC
:101140003060FFF7D1FC05463068384200D011E628
:10115000FFF7CAFC401B6428F6D9032007B0F0BD96
:1011600001210A04904370634C04FFF7BDFC05465F
:10117000706B204200D10CE7FFF7B6FC411B032047
:101180000229F5D920E0F06A0F218843059A116BF6
:101190000143F1627B20C00371688143D06A084338
:1011A000916A014371603068049908433060FFF729
:1011B0009BFC04463068384200D00AE7FFF794FCF5
:1011C000011B03200229F5D907B0F0BD00700040D3
:1011D00088130000401E010E01D00120704707490E
:1011E000074A5060074803680B40032189075918D4
:1011F000016000209060072111607047FFFFFF0031
:1012000010E000E020ED00E010B53C22825C012AF5
:1012100001D1022010BD02463C3202235370006807
:1012200043687024A3430C681C4383684460694C82
:10123000A04207DC0124A407A04209D0684CA042C8
:1012400006D00AE0644CA04202D0644CA04204D113
:101250008024A34349681943816000201070012154
:10126000517010BD70B5002829D005463C3569780D
:10127000002905D100212970044600F06FF82046AE
:10128000022169700268166801218C07A24205D00C
:10129000524B9A4202D0524B9A4219D170239E432C
:1012A000836833434B4EB24216DD274CA24208DC22
:1012B0004A4CA24218D0484CA24215D042E001202C
:1012C00070BD224CA2420FD0214CA2420CD039E07A
:1012D0003346404EB242E8DCA24205D0404CA24226
:1012E00002D01C4CA2422DD103242402A343046942
:1012F0001C4380239C43836923431360C368D362E8
:1013000043689362144BD3180A24E341072B06D891
:101310000C469C40E1231C4201D04069106351619E
:101320001069C00702D0106988431061A972A970C2
:10133000E97029716971A971E9712972697269701D
:10134000002070BD1C46D4E7FF4301400048014027
:10135000004401400020004000D4FEBF81B00121C4
:101360008A070068904201D001B0704704480268C3
:101370000A430260006808400090009801B070477E
:101380001C1002403D21415C01290FD101463D3135
:1013900002220A7000680F49884209DC012189078E
:1013A00088420BD00E49884208D00CE001207047DB
:1013B0000949884202D00949884204D1816807223C
:1013C0000A40062A03D0016801220A430260002075
:1013D0007047C046FF2B014000400140002C0140F7
:1013E00000040040F0B53C22825C012A01D10220B9
:1013F000F0BD02463C3202235370504E3346773BD9
:101400000468A0681840A0600D6800234F2D1FDC01
:101410001F2D36DD202D38D0302D36D0402D00D078
:1014200087E0206A256A0126B5432562A569F02672
:10143000B543CE6836012E43A6610A25A843496804
:1014400001432162A06847210143302081436AE0C3
:101450006F2D26DD01204703BD4257D00003854292
:1014600018461AD0702D64D1A06830404D688E683F
:10147000C9682E43090231430143A160A068772166
:1014800050E0002D01D0102D53D1A0687021884369
:10149000054307202843A0601846137001215170AE
:1014A000F0BD502D1BD0602D43D1256A1020C043C4
:1014B000266A064026620F263603A769B743CE6820
:1014C00036033E43A661A026B54349680901294376
:1014D0002162A16867250D430540A56024E0206ACC
:1014E000256A0126B5432562A569F026B543CE6875
:1014F00036012E43A6610A25A843496801432162AB
:10150000A06857210143202081430CE0A5683540A5
:101510004E688F68C9683743090239432943A1607F
:101520008003A1680143A160184613700121517026
:10153000F0BD0120137001215170F0BDFF00FFFFCD
:10154000FEE7FEE77047704780B5FFF7D1FA80BD30
:1015500070470000F0B581B0A44DFFF7C5FA04460E
:1015600002212846FFF7B2FA012808D1FFF7BCFA9A
:10157000001BC828F4D90024204601B0F0BD092082
:10158000C5060024204600940BE002219748FFF78F
:101590009DFA401E4142414160004418701C172EC4
:1015A0002BD20646802101222846FFF794FA924862
:1015B000806800994162416A002908D1416A002986
:1015C00005D1416A002902D1416A0029F3D0802166
:1015D000002728463A46FFF77EFA87488068476228
:1015E000416A0029D1D1416A0029CED1416A00293E
:1015F000CBD1416A0029F3D0C7E7802101262846D4
:101600003246FFF768FA7C4880684762416A0029E1
:1016100008D1416A002905D1416A002902D1416AF5
:101620000029F3D0802128463A46FFF754FA724841
:1016300080684762416A002908D1416A002905D1C2
:10164000416A002902D1416A0029F3D0F0054440E3
:10165000204601B0F0BDC04692B0FFF753FA05AD89
:10166000281D3021FEF7C6FD00240E94102009909D
:1016700001260896022005902846FFF761FB002806
:1016800003D0EFF3108072B6FEE703940294019446
:101690000720009068462146FFF794FA002803D0FF
:1016A000EFF3108072B6FEE709940894079406944D
:1016B0000594B1054C4802680A43026002680A407A
:1016C00000920099710402680A43026002680A40AD
:1016D00000920099B10402680A4302600068084061
:1016E000009000980920C5068027284639462246E2
:1016F000FFF7F1F93D483E492246FFF7ECF908941F
:1017000007940696059705AF28463946FFF710F966
:101710000894079406963648059034483946FFF7F2
:1017200007F9079406943348059030483946FFF787
:10173000FFF807940694B002059028463946FFF753
:10174000F7F82D4F3C622D484721B207BA60F96087
:101750003C617861BC6108940794069401940094FC
:101760003C4608342046FFF77DFD002803D0EFF308
:10177000108072B6FEE73003059005A92046FFF7FA
:1017800031FE002803D0EFF3108072B6FEE7694601
:101790002046FFF739FD002803D0EFF3108072B622
:1017A000FEE72046FFF7EEFD802401222846214671
:1017B000FFF791F92E460A252846FFF7A9F80022DF
:1017C00030462146FFF787F92846FFF7A1F80C4C71
:1017D00000F018F8FEF759FF00222346FEF710FD2F
:1017E00003C7083FF4E7C046141002400004004855
:1017F000010200000220000078000020FFFF00002E
:1018000000408F4070B5FFF7A5FE0446FFF7A2FE2B
:101810000419FFF79FFE0419FFF79CFE0419FFF758
:1018200099FE0419FFF796FE0419FFF793FE0419B9
:10183000FFF790FE0419FFF78DFE0419FFF78AFEEB
:101840000419FFF787FE0419FFF784FE0419FFF758
:1018500081FE0419FFF77EFE0419FFF77BFE0419D1
:10186000FFF778FE0419FFF775FE0419FFF772FE03
:101870000419FFF76FFE0419FFF76CFE0419FFF758
:1018800069FE0419FFF766FE0419FFF763FE0419E9
:10189000FFF760FE0419FFF75DFE0419FFF75AFE1B
:1018A0000419FFF757FE0419FFF754FE0419FFF758
:1018B00051FE0419FFF74EFE0419FFF74BFE041901
:1018C000FFF748FE0419FFF745FE0419FFF742FE33
:1018D0000419FFF73FFE0419FFF73CFE0419FFF758
:1018E00039FE0419FFF736FE0419FFF733FE041919
:1018F000FFF730FE0419FFF72DFE0419FFF72AFE4B
:101900000419FFF727FE0419FFF724FE0419FFF757
:1019100021FE0419FFF71EFE0419FFF71BFE041930
:10192000FFF718FE0419FFF715FE0419FFF712FE62
:101930000019322100F036F80446084E7068B1688C
:10194000FEF7AEFE05463068201AFEF7A3FF0146FB
:10195000284600F001F9FEF753FF70BD000000209B
:1019600043088B421AD3002203098B4279D3030A1E
:101970008B425ED3030B8B4242D3030C8B4227D3A3
:101980000902FF2212BA030C8B4202D3121209027F
:1019900003D0030B8B4233D31AE0D3E0411A8041CA
:1019A000401C704703460B4371D443088B42F5D368
:1019B000002203098B4254D3030A8B4239D3030B11
:1019C0008B421DD3030C8B4202D394466EE0090A6E
:1019D000C30B8B4201D3CB03C01A5241830B8B4202
:1019E00001D38B03C01A5241430B8B4201D34B03EB
:1019F000C01A5241030B8B4201D30B03C01A524150
:101A0000C30A8B4201D3CB02C01A5241830A8B42D4
:101A100001D38B02C01A5241430A8B4201D34B02BD
:101A2000C01A5241030A8B4201D30B02C01A524121
:101A3000CDD2C3098B4201D3CB01C01A52418309D5
:101A40008B4201D38B01C01A524143098B4201D30F
:101A50004B01C01A524103098B4201D30B01C01A3A
:101A60005241C3088B4201D3CB00C01A52418308B4
:101A70008B4201D38B00C01A524143088B4201D3E1
:101A80004B00C01A5241411A524110007047CA0F10
:101A900000D04942031000D34042534000229C46EC
:101AA00003098B422DD3030A8B4212D38901FC22F6
:101AB00012BA030A8B420CD3890192118B4208D3CC
:101AC000890192118B4204D3890137D0921100E031
:101AD0008909C3098B4201D3CB01C01A5241830942
:101AE0008B4201D38B01C01A524143098B4201D36F
:101AF0004B01C01A524103098B4201D30B01C01A9A
:101B00005241C3088B4201D3CB00C01A5241830813
:101B10008B4201D38B00C01A5241D9D243088B4269
:101B200001D34B00C01A5241411A00D20146524122
:101B3000104663465B1000D34042704763465B101B
:101B400000D3404201B50021004201D0C9430846FC
:101B5000C046C04602BD000070B5420064414B0063
:101B60005C41120E39D01B0E38D0FF2A3CD0FF2B1F
:101B70003AD0D2187F3A40024902400A490A451831
:101B8000ED0106004E43000A090A48430104731A96
:101B90004019190C4318990F04D05B08012149071B
:101BA0005B1A521CD80904D3401CF50301D19D06D1
:101BB00007D0FF2A08D2D50506D0E40720434019F4
:101BC00070BD0125A843F4E7002A01DCE00770BDE1
:101BD0002402FF202043C00570BD1B0EFF2A03D046
:101BE000FF2B01D0E00770BDFF2636064500B54249
:101BF00006D84D00B54203D8D218FF2A00D0E7E737
:101C0000004870BD0000C07F80807F7E7D7C7B7A35
:101C10007978777676757473727171706F6E6E6D98
:101C20006C6C6B6A6A69686867666665646463633E
:101C300062616160605F5F5E5E5D5D5C5C5B5B5AC4
:101C40005A59595858575756565555555454535331
:101C500052525251515050504F4F4F4E4E4D4D4D8C
:101C60004C4C4C4B4B4B4A4A4A49494948484847D7
:101C70004747474646464545454444444443434315
:101C80004342424242414141818283848586878822
:101C9000898B8C8D8E8F919293959697999A9C9D16
:101CA0009FA0A2A3A5A7A8AAACAEB0B2B3B5B7B97E
:101CB000BCBEC0C2C5C7C9CCCED1D4D7D9DCDFE247
:101CC000E6E9ECF0F3F7FAFE000000000000000087
:101CD00001020304060708090203040506070809B0
:101CE0000A0B0C0D0E0F1010010203040506070865
:101CF000090A0B0C0D0E0F10181D00080000002023
:101D0000180000001C010008301D00081800002009
:101D1000B80600003C010008FF4C830000A43548D1
:101D2000C04C1B48010000000400000000127A00B3
:04000005080000C12E
:00000001FF
