:020000040800F2
:1000000000400020D91E0008951C00089D1C000817
:1000100000000000000000000000000000000000E0
:10002000000000000000000000000000A51C000807
:100030000000000000000000AF1C0008B91C000810
:10004000291F0008291F0008291F0008291F000870
:10005000291F0008291F0008291F0008291F000860
:10006000291F0008291F0008C91C0008ED1C0008F2
:10007000291F0008291F0008291F0008291F000840
:10008000291F0008291F0008291F0008291F000830
:10009000291F0008291F0008291F0008291F000820
:1000A000291F0008291F0008291F0008291D000812
:1000B000411D0008591D00087D1D0008291F00086A
:1000C00010B5064C2378002B07D1054B002B02D02E
:1000D000044800E000BF0123237010BD8000002011
:1000E00000000000F0730008044B10B5002B03D093
:1000F0000349044800E000BF10BDC04600000000F6
:1001000084000020F073000803B4714649084000E1
:100110004900095E49008E4403BC70470022430831
:100120008B4274D303098B425FD3030A8B4244D3BF
:10013000030B8B4228D3030C8B420DD3FF22090201
:1001400012BA030C8B4202D31212090265D0030BC0
:100150008B4219D300E0090AC30B8B4201D3CB03B6
:10016000C01A5241830B8B4201D38B03C01A5241F8
:10017000430B8B4201D34B03C01A5241030B8B42FA
:1001800001D30B03C01A5241C30A8B4201D3CB02E5
:10019000C01A5241830A8B4201D38B02C01A5241CA
:1001A000430A8B4201D34B02C01A5241030A8B42CD
:1001B00001D30B02C01A5241CDD2C3098B4201D3E5
:1001C000CB01C01A524183098B4201D38B01C01A63
:1001D000524143098B4201D34B01C01A52410309DA
:1001E0008B4201D30B01C01A5241C3088B4201D389
:1001F000CB00C01A524183088B4201D38B00C01A36
:10020000524143088B4201D34B00C01A5241411A5C
:1002100000D20146524110467047FFE701B5002069
:1002200000F006F802BDC0460029F7D076E7704717
:100230007047C046F0B5DE46454657464E46E0B5E7
:1002400087B0009201930B031B0B9B46CA0F4B0018
:10025000040080465B0D029200D198E07C4A9342F4
:1002600037D05946420FC9000A438021090411437F
:10027000C2009046774A894692469A440023002459
:100280000393009E019F3B031B0B9B467B003000AA
:100290005B0DFD0F002B59D06D4A934248D0594653
:1002A000720FC9000A438021090411438B46694932
:1002B000F2008C4651466344CB1A9A460021029EB6
:1002C0006E40F6B20F2C00D9CEE0634BA4001B5950
:1002D0009F465A460243914600D090E09A46022338
:1002E000904608240393CCE7CB464246029D0399EF
:1002F000022900D1DEE1032900D18DE0012900D0DF
:1003000079E12E0000220023002490461B052343A0
:10031000F60733434046190007B0F0BCBB46B2466F
:10032000A946A046F0BD002200249046484BEDE7C8
:100330005A46009B1A43494B9C46E244002A59D135
:1003400002231C43002302219B46B8E75A46009B28
:100350001A4349D05B46002B00D19CE1584600F07F
:10036000D3FA020003000B3A1D27009EBA1A1900A7
:100370005846D64008398840320002439346009AD6
:100380008A40374953448A4600219A4497E75B469E
:100390000343994621D05B46002B00D169E15846C2
:1003A00000F0B2FA0B235B429C460200844466468E
:1003B0001D239B1B260011005846DE40083988404B
:1003C00033000343994623008B409846254B002475
:1003D0009B1A9A460023039353E7002398469A46B4
:1003E0000133042403934CE701231C430023012120
:1003F0009B4664E70323320003211C435FE79A46D0
:100400000323D9460C2403933BE70023802498461A
:1004100000260F4B240379E780245B4624031C430A
:1004200024032E0090460A4B240B6FE780244B4692
:100430002403234202D05B462342F0D080244B4663
:1004400024031C432403029E014B240B5EE7C04699
:10045000FF07000001FCFFFF1476000801F8FFFF12
:10046000F30300000DFCFFFFCB4500D2F8E000D104
:10047000F3E001235B429C46444648460025E244A3
:100480005B46170E1B021F43190C3B041202009718
:100490001F0C914602910397FFF7C6FE02007A43B4
:1004A0000B04210C804619438A4209D9009F01237D
:1004B000BC465B4261449C46E0448F4200D85CE10C
:1004C000881A0299FFF7B0FE039A240442430904F4
:1004D000240C03000C43A24206D90099013B8C4630
:1004E0006444A14200D842E1A01A424612041A43D1
:1004F00093464B4659461B0C1F0004930B04494678
:100500000904090C0C001B0C5C43120C7B4388464D
:1005100051437A43270CBC465B186344994203D984
:10052000802149028C466244190C24041B04240CCB
:100530008A181C19904202D316D1A54214D25B46E8
:10054000009F013B4D4405934D459B41BC465B429A
:100550006344C018874200D302E1824200D929E1F6
:1005600000D124E1059B9B462C1BA542AD41009B7D
:10057000801A6D42401B834200D10FE10299FFF7C0
:1005800053FE039A0B044243210C050019438A428F
:1005900000D9CBE0881A0299FFF746FE039A24049B
:1005A00042430904240C03000C43A24200D9CAE0D0
:1005B0004146A41A2A041A43049F13041B0C5943EE
:1005C00040467B439C46150C68430B0C84446344B3
:1005D0007D43984203D98020400284466544180C2C
:1005E00009041B04090C40195B18844227D323D04B
:1005F000012335001A43944B5344002B60DD51070F
:1006000000D086E02E00D1085A46D20106D55A46BF
:100610008E4B1A4080239346DB0053448C4A93420E
:1006200000DD80E65A4652070A4390465A465B056B
:100630005402240B5B0D69E63500002BDBD0009DD6
:10064000511EAC466444AC4200D29EE0844200D2CB
:10065000E1E000D1EEE00A00CAE7424500D908E730
:100660004B46DC07580843465B081C434346DD07FE
:1006700006E700F049F915239C46844402006346CE
:1006800020321C2B00DC92E6230008388340994678
:10069000002398469AE600F037F90200030015326D
:1006A00020331C2A00DC5FE60099083881400022D4
:1006B0008B4666E600222E0000249046654B25E618
:1006C0002E000121C91A382900DD1BE61F297EDC16
:1006D0006148140050445B4682408340CC40501E29
:1006E000824123431A435B46CB40510709D00F2177
:1006F0001140042905D0111D9142924152429B188C
:100700000A00190200D49BE0002201230024904635
:10071000FCE50F211140042900D173E7111D91421E
:10072000924152422E00C90893446DE7009B013D5F
:100730009C4661448B4200D92CE78A4200D829E7C5
:10074000851E614426E70099013B8C466444A14222
:1007500000D92DE7A24200D82AE7831E644427E788
:10076000874200D0FEE6A94500D9FBE6F5E6A242A5
:1007700000D8B9E6831E6444B6E68A4200D89FE6F4
:10078000BC46831E984661449AE60A00844200D023
:100790002EE74B4500D02BE735002CE72A4B2F4A9C
:1007A0005344924543DB0122002193442CE7AC42A1
:1007B00000D8D7E602235B429C4600994D444D4544
:1007C0009B41E3448C465B426344C018CCE61F2047
:1007D0004042C31A5846D840202904D05946204BDD
:1007E000534499400A43531E9A4107231900024378
:1007F00000241140134209D008331340042B1DD0AC
:10080000131D934289411A0049424907D2080A43FD
:10081000904600237AE54946009F4D004D458941A9
:10082000BC4649426144A946023A6418AEE7012237
:10083000524246E79945EED30A00AAE70021E5E7D0
:1008400059075B021C0BE1E7FF030000FFFFFFFEFF
:10085000FE070000FF0700001E04000002FCFFFF6F
:100860003E04000070B5002816D0C317C5185D40BF
:10087000C40F280000F048F8104B1B1A5B055B0DF5
:100880000A2814DC02002E00153296400B22121AA0
:10089000D5402D032D0B03E0002400230025002666
:1008A0001B052B43E40723433000190070BD0B38B0
:1008B00085402D0300262D0BF2E7C0461E040000E4
:1008C00010B5041E10D000F01FF80E4B1B1A5B056C
:1008D0005B0D0A280FDC0B222100121AD1401530C3
:1008E0000A038440120B01E0002300221B0513437E
:1008F0002000190010BD22000B3882401203002492
:10090000120BF3E71E0400001C2101231B04984274
:1009100001D3000C10391B0A984201D3000A083990
:100920001B09984201D30009043902A2105C401847
:100930007047C046040302020101010100000000EB
:100940000000000080B582B000AF7860034B7A6889
:100950001A60C046BD4602B080BDC0469C00002063
:1009600080B582B000AF78607B68180001F042FB70
:10097000C046BD4602B080BDB0B588B002AF02002F
:10098000FB1D1A70BB1D0A1C1A700C217B18FA1D66
:1009900012781A707B18BA1D12785A706C4B18684E
:1009A00017257C197A180A2300930223502102F09C
:1009B000F7FD030023707B191B78002B00D1C0E0EA
:1009C0007B191B78012B04D1624B180005F072FED5
:1009D0001BE01723FB181B78032B04D15E4B180078
:1009E00005F068FE11E01723FB181B78022B04D1D9
:1009F0005A4B180005F05EFE07E01723FB181A7823
:100A0000574B1100180005F0EFFD514B1B68180003
:100A100003F004F803003B613B69002B00D192E036
:100A20003B69012B04D14F4B180005F043FE26E033
:100A30003B69022B04D14C4B180005F03BFE1EE035
:100A40003B69042B04D1494B180005F033FE16E036
:100A50003B69082B04D1464B180005F02BFE0EE035
:100A60003B69102B04D1434B180005F023FE06E030
:100A70003B69202B03D1404B180005F01BFE344B83
:100A80001B680F257C19180002F0BCFF03002370BF
:100A90007B191B78002B04D1384B180005F00AFE97
:100AA00052E00F23FB181B78202B04D1334B180086
:100AB00005F000FE48E00F23FB181B78242B04D11F
:100AC0002F4B180005F0F6FD3EE00F23FB181B78B6
:100AD000212B04D12B4B180005F0ECFD34E00F2343
:100AE000FB181B78222B04D1274B180005F0E2FDE0
:100AF0002AE00F23FB181B78282B04D1234B180066
:100B000005F0D8FD20E00F23FB181B78292B04D11A
:100B10001F4B180005F0CEFD16E00F23FB181B78C5
:100B20002A2B04D11B4B180005F0C4FD0CE00F2349
:100B3000FB181B78602B07D1174B180005F0BAFD86
:100B400002E0C04600E0C046BD4606B0B0BDC046AB
:100B50009C000020087400082C74000854740008DD
:100B60007874000890740008A4740008B874000831
:100B7000CC740008E0740008F47400080C750008D8
:100B8000247500083875000850750008687500085D
:100B900080750008A0750008C075000880B584B095
:100BA00002AF39601100FB1D021C1A70BB1D0A1C2C
:100BB0001A700C4B1868FA1D64230093012350210E
:100BC00002F0EEFC074B1868BB1D1B789BB23A681D
:100BD00064210091502102F00DFEC046BD4602B0D6
:100BE00080BDC0469C00002080B582B000AF786018
:100BF0007B681800FFF7A6FE00F02AF900F0FFF866
:100C0000C046BD4602B080BD90B5BBB000AF7860B5
:100C1000C8243B19180000F0A2FA20003B189A687B
:100C2000DB6879680A604B603B181A695B69796810
:100C30008A60CB603B189A69DB6979680A614B610D
:100C4000A8243B19180000F063FA20003B189A68AA
:100C5000DB6879688A61CB613B181A695B697968DE
:100C60000A624B623B189A69DB6979688A62CB62D7
:100C700088243B19180000F07FFA20003B189A687E
:100C8000DB6879680A634B633B181A695B697968AA
:100C90008A63CB633B189A69DB6979680A644B64A1
:100CA00068243B19180000F040FA20003B189A68AD
:100CB000DB6879688A64CB643B181A695B69796878
:100CC0000A654B653B189A69DB6979688A65CB656B
:100CD00048243B19180000F035FA20003B189A68A8
:100CE000DB6879680A664B663B181A695B69796844
:100CF0008A66CB663B189A69DB6979680A674B6735
:100D000028243B19180000F044FA20003B189A6888
:100D1000DB6879688A67CB673B181A695B69796811
:100D200080310A604B603B189A69DB6979688831C9
:100D30000A604B6008243B19180000F037FA2000C5
:100D40003B181A685B68796890310A604B603B1801
:100D50009A68DB68796898310A604B603B181A69B9
:100D60005B697968A0310A604B603B189A69DB695E
:100D70007968A8310A604B6000F057F8030018004A
:100D8000FFF770FD02000B007968B0310A604B601C
:100D9000C046BD463BB090BD80B582B000AF0200FA
:100DA000FB1D1A70FB1D1B7819000720FFF7E4FDDF
:100DB000C046BD4602B080BD80B582B000AF020023
:100DC000FB1D1A70FB1D1B7819003D20FFF7D4FD99
:100DD000FB1D1B78002B03D11320FFF7C1FD02E0A0
:100DE0000720FFF7BDFDC046BD4602B080BD80B5FF
:100DF00000AF0020FFF7E0FFC046BD4680BD80B5D4
:100E000000AF0C20FFF7D8FFC046BD4680BD80B5BF
:100E100000AF20213F20FFF7AFFDAF239B0018005C
:100E2000FFF79EFDC046BD4680BD80B582B000AFD5
:100E30000020FFF7B1FFFB1D012219003420FFF74E
:100E4000ADFEFB1D1B785BB21800BD4602B080BD35
:100E500080B582B000AFFFF7DAFFFB1D00221A70E9
:100E6000FB1D012219000020FFF798FEFB1D1B78D7
:100E7000A02B07D0FB1D1B781A000A4B110018008D
:100E800005F0B2FB0020FFF787FF00213F20FFF7AE
:100E900073FDFFF7ACFF0A20FFF762FDC046BD46B9
:100EA00002B080BDD8750008B0B58EB000AF7860D4
:100EB0000A00FB1C1A700020FFF76EFFFB1C1B785A
:100EC000202B08D12823F918FB1C1B7808221800B6
:100ED000FFF764FE07E02823F918FB1C1B780622A5
:100EE0001800FFF75BFE0022834B3A637B63FB1C19
:100EF0001B780E2B09D1814B1B881800FFF7E0FCF3
:100F000002000B003A637B633EE0FB1C1B78082B5E
:100F100007D0FB1C1B78282B03D0FB1C1B782E2B27
:100F200009D1774B1B881800FFF7CAFC02000B00A1
:100F30003A637B6328E0FB1C1B78142B09D1714BAF
:100F40001B881800FFF7BCFC02000B003A637B63B0
:100F50001AE0FB1C1B781A2B09D16B4B1B8818005D
:100F6000FFF7AEFC02000B003A637B630CE0FB1C56
:100F70001B78202B08D1654B1B881800FFF7A0FCBD
:100F800002000B003A637B6308257B1918002023BD
:100F90001A00002105F084FCFB1C1B78202B59D182
:100FA00028243B195B781BB21B021AB23B191B7831
:100FB0001BB213431BB21800FFF754FC3A6B7B6B58
:100FC000FFF738F902000B0079190A604B603B19F2
:100FD000DB781BB21B021AB23B199B781BB213437E
:100FE0001BB21800FFF73EFC3A6B7B6BFFF722F950
:100FF00002000B0079198A60CB603B195B791BB248
:101000001B021AB23B191B791BB213431BB2180007
:10101000FFF728FC3A6B7B6BFFF70CF902000B0023
:1010200079190A614B613B19DB791BB21B021AB2B9
:101030003B199B791BB213431BB21800FFF712FC3C
:101040003A6B7B6BFFF7F6F802000B0079198A61A7
:10105000CB6143E028243B195B781BB21B021AB218
:101060003B191B781BB213431BB21800FFF7FAFBA6
:101070003A6B7B6BFFF7DEF802000B00082579194D
:101080008A60CB603B19DB781BB21B021AB23B199A
:101090009B781BB213431BB21800FFF7E3FB3A6BBC
:1010A0007B6BFFF7C7F802000B0079190A614B61EF
:1010B0003B195B791BB21B021AB23B191B791BB29D
:1010C00013431BB21800FFF7CDFB3A6B7B6BFFF7A6
:1010D000B1F802000B0079198A61CB617A680823A4
:1010E000FB181000190020231A0005F05CFC78683A
:1010F000BD460EB0B0BDC0460000F03F0600002067
:101100000000002002000020040000200800002051
:1011100080B582B000AF78607B6808211800FFF7C7
:10112000C3FE7868BD4602B080BD80B582B000AF16
:1011300078607B680E211800FFF7B6FE7868BD4620
:1011400002B080BD80B582B000AF78607B681421AA
:101150001800FFF7A9FE7868BD4602B080BD80B5D3
:1011600082B000AF78607B681A211800FFF79CFE00
:101170007868BD4602B080BD80B582B000AF7860AF
:101180007B6828211800FFF78FFE7868BD4602B003
:1011900080BD80B582B000AF78607B682E211800DA
:1011A000FFF782FE7868BD4602B080BD80B582B090
:1011B00000AF78607B6820211800FFF775FE786823
:1011C000BD4602B080BD000080B582B000AF78603F
:1011D000044B054A7868012101F066F9C046BD4616
:1011E00002B080BD0C000020B805002080B500AF23
:1011F00000F09CFE00F060F800F018FA00F0F0F942
:1012000000F0EEF800F02CF900F05AF900F088F93F
:1012100000F0B6F900F0AEF81F4B1800FFF7E4FC41
:101220001E4B180001F0FAF81D4B08221A611C4BE6
:1012300000229A601A4B0022DA60194B194A1A6090
:10124000164B180001F0EAF8174B01221A62164BF0
:1012500001221A61144B00229A61134B134A1A603F
:10126000114B00225A60104B114A9A600E4B00221B
:10127000DA600D4B0122DA610B4A084B11001800AD
:1012800000F0DAFF054B1021180001F038FA094B85
:101290001800FFF7B9FCFAE7C8000020A000002002
:1012A000D4050020A506000090050020A0D4000071
:1012B000E0FF0000D804002090B599B000AF2C24C6
:1012C0003B19180034231A00002105F0E9FA1C2309
:1012D000FB18180010231A00002105F0E1FA3B006A
:1012E00018001C231A00002105F0DAFA21007B18EF
:1012F00002221A607B180122DA607B1810221A6120
:101300007B1800225A627B18180002F0FDFE031EB3
:1013100001D000F0BFF91C217B1807221A607B184E
:1013200000225A607B1800229A607B180022DA6043
:101330007B180021180003F06DFA031E01D000F0A5
:10134000A9F93B0023221A603B0000229A603B006F
:101350000022DA603B0000221A613B00180003F013
:10136000C5FB031E01D000F095F9C046BD4619B07B
:1013700090BD000080B500AF174B184A1A60164B9D
:1013800004225A60144B00229A60134B0022DA6048
:10139000114B802252021A610F4B00225A610E4BF0
:1013A00000221A760C4B00225A760B4B00229A76BA
:1013B000094B0022DA76084B00221A77064B0022EE
:1013C0005A77054B180000F039FE031E01D000F0DB
:1013D00061F9C046BD4680BDA00000200064004009
:1013E00080B500AF1B4B1C4A1A601A4B1B4A5A604F
:1013F000184B00229A60174B0122DA60154B00222D
:101400001A61144B00225A61124B00229A61114B4F
:101410000022DA610F4B00221A620E4B180002F014
:1014200019F8031E01D000F035F90A4B002118000D
:1014300002F0D2FD031E01D000F02CF9054B002173
:10144000180002F015FE031E01D000F023F9C0467B
:10145000BD4680BDC8000020005400402B1D200068
:1014600080B500AF144B154A1A60134B96229201B7
:101470005A60114B00229A600F4B0022DA600E4B2B
:1014800000221A610C4B0C225A610B4B00229A610C
:10149000094B0022DA61084B00221A62064B002237
:1014A0005A62054B180003F01FFC031E01D000F028
:1014B000F1F8C046BD4680BD1C0100200038014047
:1014C00080B500AF144B154A1A60134BE12252024B
:1014D0005A60114B00229A600F4B0022DA600E4BCB
:1014E00000221A610C4B0C225A610B4B00229A61AC
:1014F000094B0022DA61084B00221A62064B0022D7
:101500005A62054B180003F0EFFB031E01D000F0F8
:10151000C1F8C046BD4680BDA40100200044004083
:1015200080B500AF144B154A1A60134BE1225202EA
:101530005A60114B00229A600F4B0022DA600E4B6A
:1015400000221A610C4B0C225A610B4B00229A614B
:10155000094B0022DA61084B00221A62064B002276
:101560005A62054B180003F0BFFB031E01D000F0C8
:1015700091F8C046BD4680BD2C02002000480040C6
:1015800080B500AF144B154A1A60134BE12252028A
:101590005A60114B00229A600F4B0022DA600E4B0A
:1015A00000221A610C4B0C225A610B4B00229A61EB
:1015B000094B0022DA61084B00221A62064B002216
:1015C0005A62054B180003F08FFB031E01D000F098
:1015D00061F8C046BD4680BDB4020020004C00400A
:1015E00080B582B000AF104B5A690F4B01210A43FE
:1015F0005A610D4B5B69012213407B607B680022BE
:1016000000210A2001F066FB0A2001F078FB00228D
:1016100000210B2001F05EFB0B2001F070FBC046A7
:10162000BD4602B080BDC0460010024080B584B007
:1016300000AF174B5A69164B8021C9030A435A6100
:10164000134B5A698023DB031340FB60FB68104B8C
:101650005A690F4B802189020A435A610C4B5A691F
:1016600080239B021340BB60BB68094B5A69084B3F
:101670008021C9020A435A61054B5A698023DB0263
:1016800013407B607B68C046BD4604B080BDC04649
:101690000010024080B500AF72B6C046C046FDE7FC
:1016A00080B582B000AF0F4B9A690E4B01210A43FF
:1016B0009A610C4B9B69012213407B607B68094B4C
:1016C000DA69084B802149050A43DA61054BDA697A
:1016D00080235B0513403B603B68C046BD4602B0BB
:1016E00080BDC0460010024090B58BB000AF78605E
:1016F00014243B19180014231A00002105F0D0F817
:101700007B681B68214A93423BD1214BDA69204B0D
:10171000802189040A43DA611D4BDA6980239B0426
:1017200013403B613B691A4B5A69194B802189026E
:101730000A435A61164B5A6980239B021340FB608F
:10174000FB683B19C02252011A6021007B1802225B
:101750005A607B1800229A607B180322DA607B189B
:1017600004221A617A189023DB051100180001F099
:10177000F9FC002200211E2001F0ACFA1E2001F02D
:10178000BEFAC046BD460BB090BDC04600640040E6
:101790000010024090B58BB000AF786014243B1964
:1017A000180014231A00002105F07AF87B681B68E2
:1017B0001C4A934231D11C4B5A691B4B8021C902F0
:1017C0000A435A61184B5A698023DB0213403B617C
:1017D0003B6921007B18C0221A607B1812225A60D4
:1017E0007B1801229A607B180322DA607B180122A1
:1017F0001A617B180D4A1900100001F0B3FC0A4B66
:10180000DA69094B802189030A43DA61064BDA69F8
:1018100080239B031340FB60FB68C046BD460BB0B2
:1018200090BDC04600540040001002400004004833
:1018300090B591B000AF78602C243B1918001423A8
:101840001A00002105F02CF87B681B68B44A93420B
:101850003CD1B44B9A69B34B8021C9010A439A61C8
:10186000B04B9A698023DB011340BB62BB6AAD4B6E
:101870005A69AC4B802189020A435A61A94B5A69C3
:1018800080239B0213407B627B6A3B19C022D200FB
:101890001A6021007B1802225A607B1800229A608D
:1018A0007B180322DA607B1801221A617A189023D0
:1018B000DB051100180001F055FC002200211B205F
:1018C00001F008FA1B2001F01AFAD2E17B681B68CC
:1018D000954A934200D087E0924BDA69914B802180
:1018E00089020A43DA618F4BDA6980239B02134035
:1018F0003B623B6A8B4B5A698A4B802189020A43BF
:101900005A61884B5A6980239B021340FB61FB6933
:101910002C217B180C221A607B1802225A607B183B
:1019200000229A607B180322DA607B1801221A6178
:101930007A189023DB051100180001F013FC7B4B93
:101940007B4A1A60794B00225A60784B00229A60D9
:10195000764B8022DA60754B00221A61734B0022AD
:101960005A61724B00229A61704B0022DA616F4B10
:10197000180001F0E1F9031E01D0FFF78BFE7B6830
:101980006A4A5A67694B7A685A626A4B6A4A1A60AD
:10199000684B10225A60674B00229A60654B802288
:1019A000DA60644B00221A61624B00225A61614B7B
:1019B00000229A615F4B0022DA615E4B180001F051
:1019C000BBF9031E01D0FFF765FE7B68594A1A6711
:1019D000584B7A685A62002200211C2001F07AF9E3
:1019E0001C2001F08CF944E17B681B68534A934248
:1019F00000D0B1E04B4BDA694A4B8021C9020A435F
:101A0000DA61484BDA698023DB021340BB61BB69B2
:101A1000444B5A69434B8021C9020A435A61414BE6
:101A20005A698023DB0213407B617B692C217B1880
:101A3000C02212011A607B1802225A607B18002211
:101A40009A607B180322DA607B1804221A617B18E3
:101A50003B4A1900100001F085FB3A4B3A4A1A60E4
:101A6000384B00225A60374B00229A60354B802257
:101A7000DA60344B00221A61324B00225A61314B3A
:101A800000229A612F4B0022DA612E4B180001F0E0
:101A900053F9031E01D0FFF7FDFD2C4B1A682B4BA9
:101AA0008021C9040A431A607B68264A5A67254B7D
:101AB0007A685A62264B274A1A60254B10225A60D0
:101AC000234B00229A60224B8022DA60204B0022B6
:101AD0001A611F4B00225A611D4B00229A611C4B58
:101AE0000022DA611A4B180001F026F9031E01D01A
:101AF000FFF7D0FD154B1A68144B8021C9040A4327
:101B00001A607B68124A1A67114B7A685A6200227F
:101B100000211D2001F0DEF81D2001F0F0F8A8E002
:101B20000038014000100240004400403C03002007
:101B3000580002408003002044000240004800405A
:101B400000040048C40300203000024000000140AF
:101B5000080400201C0002407B681B68474A93422F
:101B600000D086E0464BDA69454B802109030A43E1
:101B7000DA61434BDA6980231B0313403B613B6905
:101B80003F4B5A693E4B802189020A435A613C4BC4
:101B90005A6980239B021340FB60FB682C217B1851
:101BA00003221A607B1802225A607B1800229A6076
:101BB0007B180322DA607B1804221A617A189023BA
:101BC000DB051100180001F0CDFA2E4B2E4A1A60E9
:101BD0002C4B00225A602B4B00229A60294B80220A
:101BE000DA60284B00221A61264B00225A61254BED
:101BF00000229A61234B0022DA61224B180001F087
:101C00009BF8031E01D0FFF745FD7B681D4A5A670C
:101C10001C4B7A685A621D4B1D4A1A601B4B1022DE
:101C20005A601A4B00229A60184B8022DA60174BD8
:101C300000221A61154B00225A61144B00229A614E
:101C4000124B0022DA61114B180001F075F8031EE7
:101C500001D0FFF71FFD7B680C4A1A670B4B7A68AF
:101C60005A62002200211D2001F034F81D2001F0ED
:101C700046F8C046BD4611B090BDC046004C00407D
:101C8000001002404C0400206C0002409004002030
:101C90008000024080B500AFC046FDE780B500AFD0
:101CA000C046FDE780B500AFC046BD4680BD80B5EB
:101CB00000AFC046BD4680BD80B500AF00F07EF9E4
:101CC000C046BD4680BD000080B500AF054B180082
:101CD00001F05DF9044B180001F059F9C046BD460A
:101CE00080BDC04608040020C403002080B500AFBA
:101CF000094B180001F04BF9084B180001F047F9A7
:101D0000074B180001F043F9064B180001F03FF9AA
:101D1000C046BD4680BDC046800300203C03002075
:101D20004C0400209004002080B500AF034B180045
:101D300003F016F9C046BD4680BDC0461C01002018
:101D400080B500AF034B180003F00AF9C046BD464A
:101D500080BDC046A401002080B500AF054B18002F
:101D600003F0FEF8044B180003F0FAF8C046BD4635
:101D700080BDC0462C020020B402002080B500AF18
:101D8000034B180000F0E5FCC046BD4680BDC046D0
:101D9000A000002080B586B000AFF860B9607A601E
:101DA00000237B610AE000E000BF0100BB685A1C11
:101DB000BA60CAB21A707B6901337B617A697B6849
:101DC0009A42F0DB7B681800BD4606B080BD80B546
:101DD00086B000AFF860B9607A6000237B6109E0EB
:101DE000BB685A1CBA601B78180000E000BF7B6912
:101DF00001337B617A697B689A42F1DB7B6818006A
:101E0000BD4606B080BD80B582B000AF78600123CA
:101E10005B421800BD4602B080BD80B582B000AF05
:101E2000786039603B68802292015A600023180074
:101E3000BD4602B080BD80B582B000AF786001239E
:101E40001800BD4602B080BD80B584B000AFF86018
:101E5000B9607A6000231800BD4604B080BD000060
:101E600080B586B000AF7860144A154BD31A7B61F9
:101E70007B693B61134B1B68002B02D1114B124A4B
:101E80001A60104B1A687B68D3183A699A4207D2D5
:101E900004F05CFD03000C221A6001235B4209E0A0
:101EA000084B1B68FB60074B1A687B68D218054B10
:101EB0001A60FB681800BD4606B080BD00400020D7
:101EC00000040000EC0500205007002080B500AFA2
:101ED000C046BD4680BD00000D488546FFF7F6FFB1
:101EE0000C480D490D4A002302E0D458C450043375
:101EF000C4188C42F9D30A4A0A4C002301E013604B
:101F00000432A242FBD304F027FDFFF76FF9FEE78E
:101F100000400020000000207C000020C87600085F
:101F20008000002050070020FEE7000080B500AFD1
:101F3000074B1A68064B10210A431A60032000F071
:101F400009F8FFF7ADFB00231800BD4680BDC04671
:101F50000020024090B583B000AF7860144B1C683D
:101F6000144B1B781900FA239800FEF7D7F80300EA
:101F700019002000FEF7D2F80300180000F0CFFE91
:101F8000031E01D001230FE07B68032B0BD8796877
:101F900001235B420022180000F09CFE064B7A6889
:101FA0001A60002300E001231800BD4603B090BD75
:101FB000140000201C0000201800002080B500AF95
:101FC000054B1B781A00054B1B68D218034B1A608F
:101FD000C046BD4680BDC0461C000020F005002064
:101FE00080B500AF024B1B681800BD4680BDC046DF
:101FF000F005002080B584B000AF7860FFF7F0FFF7
:102000000300BB607B68FB60FB68013305D00A4BB3
:102010001B781A00FB689B18FB60C046FFF7E0FFC7
:102020000200BB68D31AFA689A42F7D8C046C04685
:10203000BD4604B080BDC0461C00002080B584B001
:1020400000AF78607B68002B01D10123F0E07B6852
:1020500020229B5CDBB2002B03D17B681800FFF7CA
:1020600043FB7B681B681A687B681B6801210A4375
:102070001A60FFF7B5FF0300FB6013E0FFF7B0FF46
:102080000200FB68D31A0A2B0CD97B685B6A80229A
:1020900092021A437B685A627B6820220521995478
:1020A0000123C5E07B681B685B6801221340E5D013
:1020B0007B681B681A687B681B6802218A431A6068
:1020C000FFF78EFF0300FB6013E0FFF789FF0200BC
:1020D000FB68D31A0A2B0CD97B685B6A80229202B8
:1020E0001A437B685A627B68202205219954012398
:1020F0009EE07B681B685B6802221340E5D17B6829
:102100001B7E012B08D17B681B681A687B681B68E3
:1021100080210A431A6007E07B681B681A687B68A5
:102120001B6880218A431A607B685B7E012B08D183
:102130007B681B681A687B681B6840210A431A6029
:1021400007E07B681B681A687B681B6840218A432C
:102150001A607B689B7E012B08D17B681B681A681C
:102160007B681B6820210A431A6007E07B681B68B4
:102170001A687B681B6820218A431A607B68DB7EB3
:10218000012B08D17B681B681A687B681B681021CB
:102190008A431A6007E07B681B681A687B681B68C3
:1021A00010210A431A607B681B7F012B08D17B68D2
:1021B0001B681A687B681B6808210A431A6007E0DD
:1021C0007B681B681A687B681B6808218A431A6051
:1021D0007B685B7F012B08D17B681B681A687B6872
:1021E0001B6804210A431A6007E07B681B681A68B1
:1021F0007B681B6804218A431A607B689A687B6845
:10220000DB681A437B681B691A437B685B691A4366
:1022100011007B685B685A1E7B681B680A43DA61A1
:102220007B6800225A627B68202201219954002396
:102230001800BD4604B080BD80B586B000AF7860A0
:1022400039607B681B687B6113203B187A6820210A
:10225000525C1A700200BB181B78012B04D0BB180B
:102260001B78022B00D0CDE07A6980239B00D358E5
:1022700001221A4311007A6980239B00D1503B68E8
:102280005B691F22134001229A401300FB607A69A8
:1022900087239B00D358FA68D2431A4011007A6909
:1022A00087239B00D1503B68DB69002B29D17A69D9
:1022B00083239B00D358FA68D2431A4011007A69ED
:1022C00083239B00D1503B68DB6818043B685B6844
:1022D0001B04190C3B685A6901437B694832D200E0
:1022E000D1503B689B6819043B681B681B041A0C9F
:1022F0003B685B690A4379694833DB00CB180433D8
:102300001A603B68DB69012B28D17A6983239B0023
:10231000D258FB681A4311007A6983239B00D1507D
:102320003B681B6818043B685B681B04190C3B681E
:102330005A6901437B694832D200D1503B689B689F
:1023400019043B68DB681B041A0C3B685B690A4391
:1023500079694833DB00CB1804331A603B689B690A
:10236000002B0CD17A6981239B00D358FA68D243A1
:102370001A4011007A6981239B00D1500AE07A69E2
:1023800081239B00D258FB681A4311007A6981238C
:102390009B00D1503B681B69002B0CD17A698523C7
:1023A0009B00D358FA68D2431A4011007A698523FA
:1023B0009B00D1500AE07A6985239B00D258FB68C4
:1023C0001A4311007A6985239B00D1503B681B6A30
:1023D000012B0AD17A6987239B00D258FB681A43E4
:1023E00011007A6987239B00D1507A6980239B0072
:1023F000D3580122934319007A6980239B00D1505E
:10240000002307E07B685B6A8022D2021A437B6864
:102410005A6201231800BD4606B080BD80B584B065
:1024200000AF78607B6820229B5CDBB2012B2FD150
:102430007B682022022199547B681B681A687B689C
:102440001B6801218A431A60FFF7CAFD0300FB6085
:1024500013E0FFF7C5FD0200FB68D31A0A2B0CD965
:102460007B685B6A802292021A437B685A627B68AF
:10247000202205219954012312E07B681B685B68C8
:1024800001221340E5D17B6800225A62002307E055
:102490007B685B6A802212031A437B685A620123BD
:1024A0001800BD4604B080BD80B586B000AFF860AE
:1024B000B9607A603B6017203B18FA682021525CB3
:1024C0001A700200BB181B78012B04D0BB181B78B4
:1024D000022B00D007E1BB68002B0ED1FB681B6804
:1024E000DB680322134017D1FB685B6A80229203EA
:1024F0001A43FB685A620123FDE0FB681B681B69F5
:102500000322134008D1FB685B6A802292031A43BE
:10251000FB685A620123EEE0FB681B68BA681B3255
:102520001201D35804221A407B689A607B689B682A
:10253000002B0BD1FB681B68BA681B321201D35801
:102540005B0D5B055A0D7B681A600AE0FB681B682F
:10255000BA681B321201D358DB08DB00DA087B684B
:102560005A60FB681B68BA681B321201D3580222FA
:102570001A407B68DA60FB681A68BB681B331B0172
:10258000D31804331B680822134003D07B68082249
:102590001A610BE0FB681A68BB681B331B01D31878
:1025A00004331B680F221A407B681A61FB681A68A3
:1025B000BB681B331B01D31804331B681B0AFF22A3
:1025C0001A407B689A61FB681A68BB681B331B0161
:1025D000D31804331B681B0C1B041A0C7B685A614C
:1025E000FB681968BA68DC235B0012018A18D318EB
:1025F0001B68DAB23B681A70FB681968BA68DC239A
:102600005B0012018A18D3181B681A0A3B68013351
:10261000D2B21A70FB681968BA68DC235B00120139
:102620008A18D3181B681A0C3B680233D2B21A708E
:10263000FB681968BA68DC235B0012018A18D3189A
:102640001B681A0E3B680333D2B21A70FB68196814
:10265000BA68DE235B0012018A18D3181A683B6837
:102660000433D2B21A70FB681968BA68DE235B00C3
:1026700012018A18D3181B681A0A3B680533D2B2B4
:102680001A70FB681968BA68DE235B0012018A18A9
:10269000D3181B681A0C3B680633D2B21A70FB6859
:1026A0001968BA68DE235B0012018A18D3181B6808
:1026B0001A0E3B680733D2B21A70BB68002B08D1E0
:1026C000FB681B68DA68FB681B6820210A43DA6034
:1026D00007E0FB681B681A69FB681B6820210A4336
:1026E0001A61002307E0FB685B6A8022D2021A436A
:1026F000FB685A6201231800BD4606B080BD80B554
:1027000084B000AF786039600F203B187A682021D0
:10271000525C1A700200BB181B78012B03D0BB1847
:102720001B78022B09D17B681B6859697B681B6881
:102730003A680A435A61002307E07B685B6A80229B
:10274000D2021A437B685A6201231800BD4604B0C6
:1027500080BD80B58AB000AF786000237B627B6863
:102760001B685B693B627B681B685B68FB617B681D
:102770001B689B68BB617B681B68DB687B617B684F
:102780001B681B693B617B681B689B69FB603B6A3C
:102790000122134000D184E0BB690122134024D000
:1027A0007B681B6801229A60BB690222134004D037
:1027B0007B68180000F081F917E0BB690422134020
:1027C00005D07B6A8022120113437B620DE0BB6956
:1027D0000822134005D07B6A8022520113437B629A
:1027E00003E07B68180000F080F9BA6980235B0081
:1027F000134028D07B681B68802252009A60BA6917
:1028000080239B00134004D07B68180000F05DF922
:1028100019E0BA698023DB00134005D07B6A80226F
:10282000920113437B620EE0BA6980231B011340BF
:1028300005D07B6A8022D20113437B6203E07B6870
:10284000180000F05AF9BA6980235B02134028D0BF
:102850007B681B68802252029A60BA6980239B02BF
:10286000134004D07B68180000F037F919E0BA690A
:102870008023DB02134005D07B6A802212021343BF
:102880007B620EE0BA6980231B03134005D07B6A8C
:102890008022520213437B6203E07B68180000F041
:1028A00034F93B6A082213400CD07B691022134094
:1028B00008D07B6A8022920013437B627B681B688E
:1028C0001022DA603B6A042213400BD07B69082295
:1028D000134007D07B681B680822DA607B68180009
:1028E00000F023F93B6A0222134009D07B681B6881
:1028F000DB680322134003D07B68180000F00DF959
:102900003B6A402213400CD03B691022134008D090
:102910007B6A8022D20013437B627B681B68102293
:102920001A613B6A202213400BD03B6908221340F6
:1029300007D07B681B6808221A617B68180000F0CA
:10294000FCF83B6A1022134009D07B681B681B69A6
:102950000322134003D07B681800FEF735FC3A6A67
:1029600080239B0213400BD0FB691022134007D039
:102970007B681B6810225A607B68180000F0E5F83D
:102980003A6A80235B0213400BD0FB690822134094
:1029900007D07B681B6808225A607B68180000F02B
:1029A000DCF83A6A80231B02134000D174E0FB6913
:1029B0000422134000D16BE03A6A80235B0013408D
:1029C00007D0FB680122134003D07B6A0122134326
:1029D0007B623A6A80239B00134007D0FB68022287
:1029E000134003D07B6A022213437B623A6A80233E
:1029F000DB00134007D0FB680422134003D07B6A3E
:102A0000042213437B623A6A80231B0113403FD0A8
:102A1000FB68702213403BD0FB6870221340602B90
:102A200027D02CD8502B1FD029D8402B17D026D8F0
:102A3000302B0FD023D8102B02D0202B05D01EE036
:102A40007B6A082213437B621AE07B6A10221343DD
:102A50007B6215E07B6A202213437B6210E07B6A75
:102A6000402213437B620BE07B6A802213437B622C
:102A700006E07B6A8022520013437B6200E0C0467E
:102A80007B681B689A697B681B6870218A439A611E
:102A90007B681B6804225A607B6A002B09D07B6824
:102AA0005A6A7B6A1A437B685A627B68180000F096
:102AB0005CF8C046BD460AB080BD80B582B000AFAC
:102AC0007860C046BD4602B080BD80B582B000AF20
:102AD0007860C046BD4602B080BD80B582B000AF10
:102AE0007860C046BD4602B080BD80B582B000AF00
:102AF0007860C046BD4602B080BD80B582B000AFF0
:102B00007860C046BD4602B080BD80B582B000AFDF
:102B10007860C046BD4602B080BD80B582B000AFCF
:102B20007860C046BD4602B080BD80B582B000AFBF
:102B30007860C046BD4602B080BD80B582B000AFAF
:102B40007860C046BD4602B080BD80B582B000AF9F
:102B50007860C046BD4602B080BD80B582B000AF8F
:102B60007860C046BD4602B080BD80B582B000AF7F
:102B70007860C046BD4602B080BD000080B582B01E
:102B800000AF0200FB1D1A70FB1D1B787F2B09D8BC
:102B9000FB1D1B781A001F231A40044B0121914092
:102BA0000A001A60C046BD4602B080BD00E100E0E8
:102BB00090B583B000AF02003960FB1D1A70FB1D99
:102BC0001B787F2B28D82F4AFB1D1B785BB29B08F4
:102BD000C0339B009B58FA1D1278110003220A4053
:102BE000D200FF2191400A00D2431A4011003B68F5
:102BF0009B01FF221A40FB1D1B7818000323034092
:102C0000DB009A401F48FB1D1B785BB29B080A4300
:102C1000C0339B001A5031E01B4AFB1D1B78190082
:102C20000F230B40083B9B0806339B00D31804334B
:102C30001B68FA1D1278110003220A40D200FF21FE
:102C400091400A00D2431A4011003B689B01FF22C9
:102C50001A40FB1D1B78180003230340DB009A4039
:102C60000948FB1D1B781C000F232340083B9B08D1
:102C70000A4306339B00C31804331A60C046BD469E
:102C800003B090BD00E100E000ED00E080B582B04F
:102C900000AF78607B685A1E80235B049A4201D3A0
:102CA000012310E00A4B7A68013A5A6001235B4223
:102CB00003211800FFF77CFF054B00229A60044BAC
:102CC00007221A6000231800BD4602B080BDC0462E
:102CD00010E000E080B584B000AFB9607A600F21E9
:102CE0007B18021C1A70BA687B181B785BB2110043
:102CF0001800FFF75DFFC046BD4604B080BD80B53B
:102D000082B000AF0200FB1D1A70FB1D1B785BB286
:102D10001800FFF733FFC046BD4602B080BD80B546
:102D200082B000AF78607B681800FFF7AFFF030048
:102D30001800BD4602B080BD80B584B000AF786099
:102D40000023FB607B68002B01D1012336E07B6808
:102D50002122022199547B681B681B68FB60FB6879
:102D6000184A1340FB607B685A687B689B681A436B
:102D70007B68DB681A437B681B691A437B685B6965
:102D80001A437B689B691A437B68DB691343FA68C3
:102D90001343FB607B681B68FA681A607B68180045
:102DA00000F0C4F97B6800229A637B68212201212C
:102DB00099547B6820220021995400231800BD46B5
:102DC00004B080BD0FC0FFFF80B586B000AFF860D3
:102DD000B9607A603B601723FB1800221A70FB6809
:102DE00020229B5C012B01D102234FE0FB682022B3
:102DF00001219954FB6821229B5CDBB2012B3AD163
:102E0000FB68212202219954FB6800229A63FB6827
:102E10001B681A68FB681B6801218A431A603B68BB
:102E20007A68B968F86800F054F9FB68DB6A002B2F
:102E300008D0FB681B681A68FB681B680E210A43F0
:102E40001A600FE0FB681B681A68FB681B680A21A0
:102E50000A431A60FB681B681A68FB681B68042138
:102E60008A431A60FB681B681A68FB681B680121AB
:102E70000A431A6007E0FB682022002199541723B7
:102E8000FB1802221A701723FB181B781800BD4686
:102E900006B080BD80B582B000AF78607B6821222B
:102EA0009B5CDBB2022B08D07B6804229A637B68B0
:102EB000202200219954012320E07B681B681A68B6
:102EC0007B681B680E218A431A607B681B681A683E
:102ED0007B681B6801218A431A607B681A6C7B68D7
:102EE000DB6B012191400A005A607B68212201219D
:102EF00099547B6820220021995400231800BD4674
:102F000002B080BD80B584B000AF78600F217B181F
:102F100000221A707B6821229B5CDBB2022B06D058
:102F20007B6804229A637B1801221A7028E07B6870
:102F30001B681A687B681B680E218A431A607B68CD
:102F40001B681A687B681B6801218A431A607B68CA
:102F50001A6C7B68DB6B012191400A005A607B6828
:102F60002122012199547B682022002199547B68F9
:102F70005B6B002B04D07B685B6B7A681000984712
:102F80000F23FB181B781800BD4604B080BD80B528
:102F900084B000AF78607B68DB6B1B68FB607B688C
:102FA0001B681B68BB607B681B6C04229A40130083
:102FB000FA68134024D0BB680422134020D07B68F9
:102FC0001B681B682022134007D17B681B681A68A6
:102FD0007B681B6804218A431A607B681A6C7B68D3
:102FE000DB6B042191400A005A607B68DB6A002B8E
:102FF00000D16AE07B68DB6A7A681000984764E079
:103000007B681B6C02229A401300FA6813402BD095
:10301000BB680222134027D07B681B681B682022F4
:1030200013400BD17B681B681A687B681B680A21F8
:103030008A431A607B682122012199547B681A6CAB
:103040007B68DB6B022191400A005A607B6820227A
:10305000002199547B689B6A002B36D07B689B6A61
:103060007A681000984730E07B681B6C08229A4011
:103070001300FA68134028D0BB680822134024D0FC
:103080007B681B681A687B681B680E218A431A607C
:103090007B681A6C7B68DB6B012191400A005A60E7
:1030A0007B6801229A637B682122012199547B6805
:1030B0002022002199547B681B6B002B05D07B6874
:1030C0001B6B7A6810009847FFE7C046BD4604B006
:1030D00080BD80B584B000AFF860B9607A603B60B5
:1030E000FB681A6CFB68DB6B012191400A005A6097
:1030F000FB681B683A685A60FB685B68102B08D154
:10310000FB681B687A689A60FB681B68BA68DA60BB
:1031100007E0FB681B68BA689A60FB681B687A68FE
:10312000DA60C046BD4604B080BD000080B582B004
:1031300000AF78607B681B68084A9446634414219A
:103140001800FCF7EBFF03009A007B681A647B68A9
:10315000034ADA63C046BD4602B080BDF8FFFDBF3A
:103160000000024080B586B000AF7860396000236F
:103170007B6155E13B681B6801217A6991400A0037
:103180001340FB60FB68002B00D146E13B685B68A5
:1031900003221340012B05D03B685B6803221340D8
:1031A000022B30D17B689B683B617B695B0003220B
:1031B0009A401300DA433B6913403B613B68DA688D
:1031C0007B695B009A4013003A6913433B617B685B
:1031D0003A699A607B685B683B6101227B699A402F
:1031E0001300DA433B6913403B613B685B681B0992
:1031F00001221A407B699A4013003A6913433B61EC
:103200007B683A695A603B685B6803221340032B72
:1032100017D07B68DB683B617B695B0003229A40C7
:103220001300DA433B6913403B613B689A687B6952
:103230005B009A4013003A6913433B617B683A692B
:10324000DA603B685B6803221340022B23D17B6961
:10325000DA087B6808329200D3583B617B69072209
:1032600013409B000F229A401300DA433B6913403E
:103270003B613B681A697B6907210B409B009A40C0
:1032800013003A6913433B617B69DA087B680832B3
:1032900092003969D1507B681B683B617B695B0098
:1032A00003229A401300DA433B6913403B613B68B9
:1032B0005B6803221A407B695B009A4013003A69FD
:1032C00013433B617B683A691A603B685A68C023C4
:1032D0009B02134000D1A0E0574B9A69564B012145
:1032E0000A439A61544B9B6901221340BB60BB683F
:1032F000524A7B699B0802339B009B583B617B6968
:10330000032213409B000F229A401300DA433B69CB
:1033100013403B617A689023DB059A4219D07B68A1
:10332000474A934213D07B68464A93420DD07B684C
:10333000454A934207D07B68444A934201D1042313
:1033400008E0052306E0032304E0022302E0012352
:1033500000E000237A6903210A40920093403A6911
:1033600013433B6135497B699B0802339B003A69F3
:103370005A50374B9B683B61FB68DA433B6913400B
:103380003B613B685A6880235B03134003D03A6972
:10339000FB6813433B612E4B3A699A602C4BDB6808
:1033A0003B61FB68DA433B6913403B613B685A6809
:1033B00080239B03134003D03A69FB6813433B61AE
:1033C000234B3A69DA60224B5B683B61FB68DA4366
:1033D0003B6913403B613B685A6880239B02134062
:1033E00003D03A69FB6813433B61194B3A695A6051
:1033F000174B1B683B61FB68DA433B6913403B6139
:103400003B685A6880235B02134003D03A69FB682B
:1034100013433B610E4B3A691A607B6901337B6150
:103420003B681A687B69DA40131E00D0A2E6C046EA
:10343000C046BD4606B080BD0010024000000140FD
:103440000004004800080048000C00480010004834
:103450000004014080B582B000AF78607B68002B2B
:1034600001D101238FE07B6841229B5CDBB2002B02
:1034700007D17B684022002199547B681800FEF731
:1034800089F97B684122242199547B681B681A685A
:103490007B681B6801218A431A607B685A687B68D5
:1034A0001B683B490A401A617B681B689A687B6805
:1034B0001B6838490A409A607B68DB68012B08D199
:1034C0007B689A687B681B68802109020A439A60BE
:1034D00007E07B689A687B681B68842109020A43BD
:1034E0009A607B68DB68022B09D17B681B685A688D
:1034F0007B681B68802109010A435A6007E07B68EA
:103500001B685A687B681B6823490A405A607B68BD
:103510001B685A687B681B6820490A435A607B68AD
:103520001B68DA687B681B681A490A40DA607B68A6
:103530001A697B685B691A4311007B689B691A02F0
:103540007B681B680A43DA607B68D9697B681A6A02
:103550007B681B680A431A607B681B681A687B6873
:103560001B6801210A431A607B6800225A647B6849
:103570004122202199547B6800221A637B684222F1
:103580000021995400231800BD4602B080BDC046FA
:10359000FFFFFFF0FF7FFFFFFFF7FFFF008000024C
:1035A00090B589B002AFF86008007A6019000A236C
:1035B000FB18021C1A800823FB180A1C1A80FB68DF
:1035C00041229B5CDBB2202B00D00AE1FB68402249
:1035D0009B5C012B01D1022304E1FB684022012105
:1035E0009954FEF7FDFC03003B6180231902F86843
:1035F0003B6900931923012200F03CFA031E01D01D
:103600000123EFE0FB68412221219954FB6842220B
:1036100010219954FB6800225A64FB687A685A6248
:10362000FB680822BA1812885A85FB6800225A6380
:10363000FB685B8D9BB2FF2B06D9FB68FF221A85C6
:1036400080235B047B6107E0FB685B8D9AB2FB68BB
:103650001A8580239B047B61FB681B8D002B27D080
:10366000FB685B6A1A78FB681B689A62FB685B6A96
:103670005A1CFB685A62FB685B8D9BB2013B9AB295
:10368000FB685A85FB681B8D013B9AB2FB681A8563
:10369000FB681B8DDBB20133DAB27C690A23FB18AD
:1036A0001988F868514B0093230000F05BFC6FE031
:1036B000FB681B8DDAB27C690A23FB181988F8684D
:1036C0004A4B0093230000F04DFC61E03A69B96A6F
:1036D000FB68180000F026FA031E01D0012381E0E8
:1036E000FB685B6A1A78FB681B689A62FB685B6A16
:1036F0005A1CFB685A62FB685B8D9BB2013B9AB215
:10370000FB685A85FB681B8D013B9AB2FB681A85E2
:10371000FB685B8D9BB2002B3AD0FB681B8D002BA6
:1037200036D1BA6AF8683B69009313000022802101
:1037300000F0A0F9031E01D0012353E0FB685B8D6C
:103740009BB2FF2B11D9FB68FF221A85FB681B8DEA
:10375000DAB280235C040A23FB181988F868002376
:103760000093230000F0FEFB12E0FB685B8D9AB231
:10377000FB681A85FB681B8DDAB280239C040A2340
:10378000FB181988F86800230093230000F0EAFB77
:10379000FB685B8D9BB2002B98D13A69B96AFB68D4
:1037A000180000F005FA031E01D001231AE0FB689F
:1037B0001B682022DA61FB681B685A68FB681B687B
:1037C0000B490A405A60FB68412220219954FB684A
:1037D000422200219954FB68402200219954002381
:1037E00000E002231800BD4607B090BD0020008015
:1037F00000E800FE90B589B002AFF86008007A607A
:1038000019000A23FB18021C1A800823FB180A1C43
:103810001A80FB6841229B5CDBB2202B00D0E8E0E1
:10382000FB6840229B5C012B01D10223E2E0FB6894
:10383000402201219954FEF7D3FB03007B618023D2
:103840001902F8687B6900931923012200F012F92C
:10385000031E01D00123CDE0FB68412222219954AF
:10386000FB68422210219954FB6800225A64FB68CD
:103870007A685A62FB680822BA1812885A85FB686F
:1038800000225A63FB685B8D9BB2FF2B11D9FB684A
:1038900001221A85FB681B8DDAB280235C040A239F
:1038A000FB181988F868554B0093230000F05AFB69
:1038B00076E0FB685B8D9AB2FB681A85FB681B8D0E
:1038C000DAB280239C040A23FB181988F8684B4B52
:1038D0000093230000F046FB62E07A69B96AFB6856
:1038E000180000F0A9F9031E01D0012382E0FB6853
:1038F0001B685A6AFB685B6AD2B21A70FB685B6A23
:103900005A1CFB685A62FB681B8D013B9AB2FB682C
:103910001A85FB685B8D9BB2013B9AB2FB685A85A6
:10392000FB685B8D9BB2002B3AD0FB681B8D002B94
:1039300036D1BA6AF8687B690093130000228021AF
:1039400000F098F8031E01D0012353E0FB685B8D63
:103950009BB2FF2B11D9FB68FF221A85FB681B8DD8
:10396000DAB280235C040A23FB181988F868002364
:103970000093230000F0F6FA12E0FB685B8D9AB228
:10398000FB681A85FB681B8DDAB280239C040A232E
:10399000FB181988F86800230093230000F0E2FA6E
:1039A000FB685B8D9BB2002B97D17A69B96AFB6883
:1039B000180000F0FDF8031E01D001231AE0FB6897
:1039C0001B682022DA61FB681B685A68FB681B6869
:1039D0000B490A405A60FB68412220219954FB6838
:1039E000422200219954FB6840220021995400236F
:1039F00000E002231800BD4607B090BD00240080FF
:103A000000E800FE80B582B000AF78607B6841229C
:103A10009B5CDBB21800BD4602B080BD80B582B0B1
:103A200000AF78607B685B6C1800BD4602B080BD5B
:103A300080B582B000AF78607B681B689B6902220A
:103A40001340022B03D17B681B6800229A627B68BB
:103A50001B689B6901221340012B07D07B681B6800
:103A60009A697B681B6801210A439A61C046BD467A
:103A700002B080BD80B584B000AFF860B9603B6033
:103A8000FB1D1A703AE0BA693968FB68180000F04B
:103A900071F9031E01D0012340E03B6801332DD0B2
:103AA000FEF79EFA0200BB69D31A3A689A4202D323
:103AB0003B68002B22D1FB681B689B69BA681340E6
:103AC000BA68D31A5A425341DBB21A00FB1D1B7865
:103AD0009A4213D1FB685B6C20221A43FB685A643C
:103AE000FB68412220219954FB684222002199540D
:103AF000FB6840220021995401230FE0FB681B68FA
:103B00009B69BA681340BA68D31A5A425341DBB270
:103B10001A00FB1D1B789A42B5D000231800BD4641
:103B200004B080BD80B584B000AFF860B9607A6041
:103B300032E07A68B968FB68180000F01BF9031ED0
:103B400001D0012330E0BB68013325D0FEF748FAED
:103B500002007B68D31ABA689A4202D3BB68002B72
:103B60001AD1FB681B689B6902221340022B13D0F9
:103B7000FB685B6C20221A43FB685A64FB68412295
:103B800020219954FB68422200219954FB6840226D
:103B900000219954012307E0FB681B689B690222FE
:103BA0001340022BC5D100231800BD4604B080BDD0
:103BB00080B584B000AFF860B9607A602FE07A68B1
:103BC000B968FB68180000F0D5F8031E01D0012386
:103BD0002DE0FEF705FA02007B68D31ABA689A4214
:103BE00002D3BB68002B1AD1FB681B689B6920229B
:103BF0001340202B13D0FB685B6C20221A43FB6818
:103C00005A64FB68412220219954FB68422200211A
:103C10009954FB68402200219954012307E0FB6876
:103C20001B689B6920221340202BC8D10023180059
:103C3000BD4604B080BD000080B586B000AFF8601E
:103C4000B9607A601723FB1800221A707BE07A684B
:103C5000B968FB68180000F08DF8031E03D0172325
:103C6000FB1801221A70FB681B689B692022134015
:103C7000202B40D117217B181B78002B3BD1FB68F0
:103C80001B689B6904221340042B06D1FB681B8D23
:103C9000002B02D07B1800221A70FB681B689B69FE
:103CA00010221340102B23D1FB681B681022DA610D
:103CB000FB6804225A64FB681B682022DA61FB68F7
:103CC0001B685A68FB681B6829490A405A60FB68F0
:103CD000412220219954FB68422200219954FB681B
:103CE0004022002199541723FB1801221A7002E088
:103CF000FB6800225A64FEF773F902007B68D31A4E
:103D0000BA689A4202D3BB68002B1CD117203B181B
:103D10001B78002B17D1FB681B689B69042213409A
:103D2000042B10D0FB685B6C20221A43FB685A649A
:103D3000FB68412220219954FB68402200219954BC
:103D40003B1801221A70FB681B689B690422134010
:103D5000042B05D01723FB181B78002B00D176E726
:103D60001723FB181B781800BD4606B080BDC0465F
:103D700000E800FE80B58AB000AFF860B9607A60F4
:103D80002723FB1800221A70FB681B689B69BB6124
:103D900000233B627B68FB61BB691022134000D1AA
:103DA00079E0FB681B681022DA6157E02722BB1814
:103DB000BA1812781A70BB6801334FD0FEF710F9A9
:103DC0000200FB69D31ABA689A4202D3BB68002B7F
:103DD00044D1FB681B685A688023DB0113407B6178
:103DE00013203B18FA684221525C1A70FB681B686A
:103DF0009A6980231B021A4080231B029A4226D113
:103E00007A698023DB019A4221D03B181B78202B52
:103E10001DD0FB681B685A68FB681B688021C901BC
:103E20000A435A60FEF7DCF80300FB610FE0FEF77F
:103E3000D7F80200FB69D31A192B08D93B6A202254
:103E400013433B622723FB1801221A7006E0FB682C
:103E50001B689B6920221340202BE8D1FB681B685C
:103E60009B6920221340202B04D02723FB181B78AA
:103E7000002B9BD02723FB181B78002B03D1FB685A
:103E80001B682022DA613B6A042213433B6227232A
:103E9000FB1801221A70FB681B689B69BB61BA6939
:103EA00080235B0013400CD03B6A012213433B622A
:103EB000FB681B6880225200DA612723FB1801226D
:103EC0001A70BA698023DB0013400CD03B6A0822C9
:103ED00013433B62FB681B688022D200DA61272310
:103EE000FB1801221A70BA6980239B0013400CD082
:103EF0003B6A022213433B62FB681B6880229200EC
:103F0000DA612723FB1801221A702723FB181B787C
:103F1000002B1DD0FB681800FFF78AFDFB681B68AB
:103F20005A68FB681B680E490A405A60FB685A6C65
:103F30003B6A1A43FB685A64FB684122202199546A
:103F4000FB68422200219954FB68402200219954C9
:103F50002723FB181B781800BD460AB080BDC04659
:103F600000E800FE90B587B000AFF86008001100CF
:103F70007B600A243B19021C1A8009203B180A1C8A
:103F80001A703B191B889B059A0D3B181B78190466
:103F9000FF231B040B401A437B681A43BB6A13437D
:103FA0005B005B087B61FB681B685B68BA6A510D4C
:103FB0008022D2000A4007490A43D2431A40110026
:103FC000FB681B687A690A435A60C046BD4607B061
:103FD00090BDC046FF63FF0380B582B000AF78603C
:103FE00039607B6841229B5CDBB2202B38D17B6837
:103FF00040229B5C012B01D1022332E07B684022EE
:10400000012199547B684122242199547B681B68C3
:104010001A687B681B6801218A431A607B681B68E9
:104020001A687B681B6811490A401A607B681B6824
:1040300019687B681B683A680A431A607B681B68CA
:104040001A687B681B6801210A431A607B68412259
:10405000202199547B68402200219954002300E0DC
:1040600002231800BD4602B080BDC046FFEFFFFF2F
:1040700080B584B000AF786039607B6841229B5C7A
:10408000DBB2202B39D17B6840229B5C012B01D114
:10409000022333E07B684022012199547B6841224E
:1040A000242199547B681B681A687B681B6801216E
:1040B0008A431A607B681B681B68FB60FB68114AB7
:1040C0001340FB603B681B02FA681343FB607B688C
:1040D0001B68FA681A607B681B681A687B681B6833
:1040E00001210A431A607B684122202199547B6890
:1040F000402200219954002300E002231800BD460D
:1041000004B080BDFFF0FFFF80B588B000AF7860DD
:104110007B68002B02D1012300F076FB7B681B68D3
:104120000122134000D18EE0C54B5B680C22134086
:10413000042B0ED0C24B5B680C221340082B17D106
:10414000BF4B5A68C0235B021A4080235B029A422D
:104150000ED1BB4B1A6880239B02134000D171E043
:104160007B685B68002B00D06CE0012300F04CFB07
:104170007B685B68012B07D1B14B1A68B04B80217B
:1041800049020A431A602FE07B685B68002B0CD160
:10419000AB4B1A68AA4BAB490A401A60A84B1A6885
:1041A000A74BA9490A401A601EE07B685B68052B93
:1041B0000ED1A34B1A68A24B8021C9020A431A6090
:1041C0009F4B1A689E4B802149020A431A600BE0FC
:1041D0009B4B1A689A4B9B490A401A60984B1A6885
:1041E000974B99490A401A607B685B68002B14D092
:1041F000FDF7F6FE0300BB6108E0FDF7F1FE0200EB
:10420000BB69D31A642B01D90323FDE28C4B1A68D6
:1042100080239B021340F0D015E0FDF7E1FE030080
:10422000BB6108E0FDF7DCFE0200BB69D31A642B1A
:1042300001D90323E8E2824B1A6880239B021340D2
:10424000F0D100E0C0467B681B680222134000D119
:104250006CE07B4B5B680C2213400ED0784B5B68A4
:104260000C221340082B1FD1754B5A68C0235B02E8
:104270001A4080231B029A4216D1714B1B680222FE
:10428000134005D07B68DB68012B01D00123BBE222
:104290006B4B1B68F822934319007B681B69DA009B
:1042A000674B0A431A6041E07B68DB68002B24D02F
:1042B000634B1A68624B01210A431A60FDF790FEB6
:1042C0000300BB6108E0FDF78BFE0200BB69D31A57
:1042D000022B01D9032397E2594B1B68022213409A
:1042E000F1D0574B1B68F822934319007B681B6978
:1042F000DA00534B0A431A6018E0514B1A68504BCE
:1043000001218A431A60FDF76BFE0300BB6108E0E0
:10431000FDF766FE0200BB69D31A022B01D9032305
:1043200072E2474B1B6802221340F1D17B681B6885
:104330000822134036D07B68DB69002B19D0404B34
:104340005A6A3F4B01210A435A62FDF749FE0300B6
:10435000BB6108E0FDF744FE0200BB69D31A022BE3
:1043600001D9032350E2364B5B6A02221340F1D09D
:1043700018E0334B5A6A324B01218A435A62FDF7E7
:104380002FFE0300BB6108E0FDF72AFE0200BB69B7
:10439000D31A022B01D9032336E2294B5B6A02228E
:1043A0001340F1D17B681B680422134000D1B5E0B3
:1043B0001F203B1800221A70214BDA6980235B050D
:1043C000134010D11E4BDA691D4B802149050A4369
:1043D000DA611B4BDA6980235B051340FB60FB68E5
:1043E0003B1801221A70194B1A6880235B00134096
:1043F0001AD1164B1A68154B802149000A431A60DE
:10440000FDF7EEFD0300BB6108E0FDF7E9FD0200EA
:10441000BB69D31A642B01D90323F5E10B4B1A684E
:1044200080235B001340F0D07B689B68012B0FD189
:10443000034B1A6A024B01210A431A6236E0C04656
:1044400000100240FFFFFEFFFFFFFBFF0070004077
:104450007B689B68002B0CD1CA4B1A6AC94B01219F
:104460008A431A62C74B1A6AC64B04218A431A62EE
:104470001CE07B689B68052B0CD1C24B1A6AC14BB0
:1044800004210A431A62BF4B1A6ABE4B01210A4338
:104490001A620BE0BB4B1A6ABA4B01218A431A62BB
:1044A000B84B1A6AB74B04218A431A627B689B682F
:1044B000002B14D0FDF794FD0300BB6109E0FDF76C
:1044C0008FFD0200BB69D31AAF4A934201D903237F
:1044D0009AE1AC4B1B6A02221340F0D013E0FDF7C7
:1044E0007FFD0300BB6109E0FDF77AFD0200BB69B7
:1044F000D31AA54A934201D9032385E1A14B1B6A34
:1045000002221340F0D11F23FB181B78012B05D189
:104510009C4BDA699B4B9D490A40DA617B681B68BA
:104520001022134063D07B685B69012B2AD1954B25
:104530005A6B944B04210A435A63924B5A6B914B2A
:1045400001210A435A63FDF74BFD0300BB6108E0FC
:10455000FDF746FD0200BB69D31A022B01D90323E4
:1045600052E1884B5B6B02221340F1D0854B5B6BB1
:10457000F822934319007B689B69DA00814B0A4358
:104580005A6334E07B685B69053311D17D4B5A6B0C
:104590007C4B04218A435A637A4B5B6BF82293432A
:1045A00019007B689B69DA00764B0A435A631EE068
:1045B000744B5A6B734B04210A435A63714B5A6B09
:1045C000704B01218A435A63FDF70AFD0300BB616A
:1045D00008E0FDF705FD0200BB69D31A022B01D9E3
:1045E000032311E1674B5B6B02221340F1D17B681F
:1045F0001B68202213405CD0624B5B680C22134086
:104600000C2B0ED05F4B5B680C221340082B14D18F
:104610005C4B5A68C0235B021A40C0235B029A427B
:104620000BD1584B5A6B80239B02134040D07B68C0
:104630001B6A012B3CD00123E6E07B681B6A002B40
:104640001BD0504B5A6B4F4B802149020A435A638F
:10465000FDF7C6FC0300BB6108E0FDF7C1FC0200EA
:10466000BB69D31A022B01D90323CDE0454B5A6B0A
:1046700080239B021340F0D01BE0424B5A6B414B0E
:1046800043490A405A63FDF7ABFC0300BB6108E0F5
:10469000FDF7A6FC0200BB69D31A022B01D9032344
:1046A000B2E0384B5A6B80239B021340F0D100E0FC
:1046B000C0467B685B6A002B00D1A4E0314B5B688D
:1046C0000C221340082B00D178E07B685B6A022B38
:1046D0004CD12C4B1A682B4B2E490A401A60FDF71F
:1046E0007FFC0300BB6108E0FDF77AFC0200BB69B8
:1046F000D31A022B01D9032386E0224B1A688023A8
:104700009B041340F0D11F4BDB6A0F229343190027
:104710007B681A6B1B4B0A43DA621A4B5B681E4AB2
:10472000134019007B68DA6A7B689B6A1A43154B51
:104730000A435A60134B1A68124B802149040A43FA
:104740001A60FDF74DFC0300BB6108E0FDF748FC73
:104750000200BB69D31A022B01D9032354E0094B91
:104760001A6880239B041340F0D04CE0054B1A6874
:10477000044B08490A401A60FDF732FC0300BB6194
:1047800015E0C0460010024088130000FFFFFFEF55
:10479000FFFFFEFFFFFFFFFEFF7FC2FFFDF720FCD4
:1047A0000200BB69D31A022B01D903232CE0184B5A
:1047B0001A6880239B041340F0D124E07B685B6A75
:1047C000012B01D101231FE0114B5B687B61104B72
:1047D000DB6A3B617A69C0235B021A407B689B6A93
:1047E0009A420ED13B690F221A407B681B6B9A429A
:1047F00007D17A69F0239B031A407B68DB6A9A42EF
:1048000001D0012300E000231800BD4608B080BDA0
:104810000010024080B584B000AF786039607B68DA
:10482000002B01D10123BFE0614B1B680122134023
:104830003A689A4211D95E4B1B68012293431900D2
:104840005B4B3A680A431A60594B1B6801221340BC
:104850003A689A4201D00123A6E07B681B680222D5
:10486000134015D07B681B680422134006D0514BBF
:104870005A68504BE021C9000A435A604D4B5B68AF
:10488000F022934319007B689A684A4B0A435A60A6
:104890007B681B68012213404CD07B685B68012B4E
:1048A00007D1444B1A6880239B02134020D1012377
:1048B0007AE07B685B68022B07D13E4B1A68802345
:1048C0009B04134014D101236EE07B685B68032BCB
:1048D00007D1384B5A6B80239B02134008D1012328
:1048E00062E0344B1B680222134001D101235BE0DC
:1048F000304B5B680322934319007B685A682D4B49
:104900000A435A60FDF76CFB0300FB6009E0FDF70A
:1049100067FB0200FB68D31A274A934201D903239D
:1049200042E0244B5B680C221A407B685B689B006A
:104930009A42ECD11E4B1B68012213403A689A42FE
:1049400011D21B4B1B68012293431900184B3A6884
:104950000A431A60164B1B68012213403A689A42B8
:1049600001D0012320E07B681B680422134009D09A
:10497000104B5B68114A134019007B68DA680D4BD5
:104980000A435A6000F020F801000A4B5B681B09DB
:104990000F2213400A4AD35C0A00DA40094B1A601E
:1049A0000320FDF7D7FA00231800BD4604B080BDF0
:1049B000002002400010024088130000FFF8FFFFB3
:1049C000547600081400002080B586B000AF0023A4
:1049D000FB600023BB6000237B6100237B6000231E
:1049E0003B612D4B5B68FB60FB680C2213400C2B7A
:1049F00046D048D8042B02D0082B03D043E0274BE5
:104A00003B6143E0FB689B0C0F221340244AD35CBC
:104A10007B60214BDB6A0F221340224AD35CBB60D0
:104A2000FA68C0235B021A4080235B029A4209D1D4
:104A3000B9681A48FBF772FB03001A007B685343FE
:104A40007B611AE0FA68C0235B021A40C0235B0254
:104A50009A4209D1B9681448FBF760FB03001A00B9
:104A60007B6853437B6108E0B9680C48FBF756FB51
:104A700003001A007B6853437B617B693B6105E05F
:104A8000094B3B6102E0054B3B61C0463B691800A6
:104A9000BD4606B080BDC0460010024000127A003C
:104AA0006C7600087C760008006CDC0280B500AFF4
:104AB000024B1B681800BD4680BDC0461400002094
:104AC00080B500AFFFF7F2FF0100064B5B681B0AE1
:104AD00007221340044AD35CD9400B001800BD469E
:104AE00080BDC046001002406476000880B586B0E4
:104AF00000AF786000233B610023FB607B681A688D
:104B000080235B02134000D18EE017203B18002267
:104B10001A706E4BDA6980235B05134010D16B4B22
:104B2000DA696A4B802149050A43DA61674BDA6921
:104B300080235B051340BB60BB683B1801221A70E1
:104B4000634B1A6880235B0013401AD1604B1A68CC
:104B50005F4B802149000A431A60FDF741FA0300C8
:104B60003B6108E0FDF73CFA02003B69D31A642B75
:104B700001D90323A6E0564B1A6880235B0013403B
:104B8000F0D0524B1A6AC0239B001340FB60FB68B5
:104B9000002B34D07B685A68C0239B001340FA680E
:104BA0009A422CD0494B1B6A4A4A1340FB60474B40
:104BB0001A6A464B802149020A431A62434B1A6A19
:104BC000424B45490A401A62404BFA681A62FB6838
:104BD0000122134013D0FDF703FA03003B6109E003
:104BE000FDF7FEF902003B69D31A3C4A934201D912
:104BF000032367E0354B1B6A02221340F0D0334B8E
:104C00001B6A344A134019007B685A682F4B0A43C9
:104C10001A621723FB181B78012B05D12B4BDA697D
:104C20002A4B2F490A40DA617B681B680122134036
:104C300009D0264B1B6B0322934319007B689A68AB
:104C4000224B0A431A637B681B680222134009D077
:104C50001E4B1B6B234A134019007B68DA681B4B01
:104C60000A431A637B681B682022134009D0174B44
:104C70001B6B1022934319007B681A69134B0A437C
:104C80001A637B681A6880239B02134009D00F4B7C
:104C90001B6B8022934319007B689A690B4B0A4374
:104CA0001A637B681A688023DB00134009D0074B26
:104CB0001B6B4022934319007B685A69034B0A43DC
:104CC0001A6300231800BD4606B080BD00100240E4
:104CD00000700040FFFCFFFFFFFFFEFF8813000095
:104CE000FFFFFFEFFFFFFCFF80B582B000AF7860F1
:104CF0007B68002B01D1012344E07B68DB6F002B34
:104D000007D17B687822002199547B681800FCF752
:104D10008FFD7B682422DA677B681B681A687B68D2
:104D20001B6801218A431A607B685B6A002B03D0F1
:104D30007B68180000F098FD7B68180000F00CFC00
:104D40000300012B01D101231CE07B681B685A681A
:104D50007B681B680D490A405A607B681B689A682B
:104D60007B681B682A218A439A607B681B681A68E3
:104D70007B681B6801210A431A607B68180000F0F9
:104D800027FE03001800BD4602B080BDFFB7FFFF3D
:104D900080B588B000AFF860B960BB1D1A80FB68B1
:104DA000DB6F202B00D077E0BB68002B03D0BB1D4E
:104DB0001B88002B01D101236FE0FB689A688023D8
:104DC0005B019A4209D1FB681B69002B05D1BB68C6
:104DD0000122134001D001235FE0FB68BA68DA6466
:104DE000FB68BA1D502112885A52FB68BA1D522125
:104DF00012885A52FB68842200219950FB682122B4
:104E0000DA67FB681B6F002B27D0FB681B6F254AF6
:104E10009A62FB681B6F244ADA62FB681B6F234AA5
:104E20001A63FB681B6F00225A63FB68186FFB68EC
:104E3000DB6C1900FB681B6828331A00BB1D1B883C
:104E4000FDF7C2FF031E08D0FB6884221021995091
:104E5000FB682022DA6701231FE0FB681B68402201
:104E60001A62EFF310833B613B69FB6101237B61B5
:104E70007B6983F31088C046FB681B689A68FB68EF
:104E80001B6880210A439A60FB69BB61BB6983F39D
:104E90001088C046002300E002231800BD4608B079
:104EA00080BDC046515E0008E55E000873600008E2
:104EB00080B588B000AFF860B960BB1D1A80FB6890
:104EC00080229B58202B45D1BB68002B03D0BB1DF3
:104ED0001B88002B01D101233DE0FB689A688023E9
:104EE0005B019A4209D1FB681B69002B05D1BB68A5
:104EF0000122134001D001232DE0FB6800221A6635
:104F0000FB681B685A6880231B04134019D0EFF319
:104F100010833B613B69FB6101237B617B6983F308
:104F20001088C046FB681B681A68FB681B688021F4
:104F3000C9040A431A60FB69BB61BB6983F310882B
:104F4000C046BB1D1A88B968FB68180000F058FEFF
:104F5000030000E002231800BD4608B080BD000039
:104F600090B5ABB000AF78607B681B68DB69A422AA
:104F7000B9180B607B681B681B68A02039180B6090
:104F80007B681B689B689C2179180B601100BB181B
:104F90001B68994A13409822BC182360BB181B68F1
:104FA000002B14D17B181B68202213400FD03B1814
:104FB0001B68202213400AD07B689B6E002B00D117
:104FC0009EE27B689B6E7A681000984798E298236F
:104FD000FB181B68002B00D114E19C23FB181B68F5
:104FE0000122134006D1A023FB181B68834A1340FB
:104FF00000D107E1A423FB181B680122134012D043
:10500000A023FB181A6880235B0013400BD07B6839
:105010001B6801221A627B6884229B5801221A4372
:105020007B6884215A50A423FB181B68022213407A
:1050300011D09C23FB181B68012213400BD07B6806
:105040001B6802221A627B6884229B5804221A433E
:105050007B6884215A50A423FB181B680422134048
:1050600011D09C23FB181B68012213400BD07B68D6
:105070001B6804221A627B6884229B5802221A430E
:105080007B6884215A50A423FB181B680822134014
:1050900017D0A023FB181B682022134005D19C23A6
:1050A000FB181B68012213400BD07B681B68082289
:1050B0001A627B6884229B5808221A437B688421E9
:1050C0005A50A423FB181A6880231B01134013D0E5
:1050D000A023FB181A688023DB0413400CD07B68E4
:1050E0001B68802212011A627B6884229B5820224E
:1050F0001A437B6884215A507B6884229B58002B7A
:1051000000D1FFE1A423FB181B68202213400ED01E
:10511000A023FB181B682022134008D07B689B6EDD
:10512000002B04D07B689B6E7A68100098477B68E0
:1051300084229B5894217A1813607B681B689B68B3
:1051400040221340402B04D07B181B6828221340B8
:1051500047D07B68180000F017FE7B681B689B68CF
:1051600040221340402B37D1EFF310833B663B6E58
:1051700090203A18136001237B667B6E83F31088BE
:10518000C0467B681B689A687B681B6840218A431D
:105190009A603B181B68BB66BB6E83F31088C046E1
:1051A0007B685B6F002B12D07B685B6F144A5A637D
:1051B0007B685B6F1800FDF7A5FE031E1AD07B68A5
:1051C0005B6F5A6B7B685B6F1800904712E07B68DF
:1051D000180001F021F80DE07B68180001F01CF8C0
:1051E00008E07B68180001F017F87B688422002132
:1051F000995087E1C04685E10F08000020010004B6
:10520000F76000087B681B6E012B00D039E1A423F6
:10521000FB181B681022134000D132E1A023FB18B9
:105220001B681022134000D12BE17B681B68102201
:105230001A627B681B689B6840221340402B00D099
:105240009FE07B685B6F1B685A687E217B181A8021
:105250007B181B88002B00D156E17B6858229B5A93
:105260007A1812889A4200D34EE17B687A185A2144
:1052700012885A527B685B6F9B69202B6FD0EFF3CB
:1052800010833B633B6BBB6701237B637B6B83F3C7
:105290001088C0467B681B681A687B681B689E493B
:1052A0000A401A60BB6FBB63BB6B83F31088C046B8
:1052B000EFF31083FB63FB6B7B6701233B643B6C69
:1052C00083F31088C0467B681B689A687B681B68FC
:1052D00001218A439A607B6F7B647B6C83F3108827
:1052E000C046EFF31083BB64BB6C3B670123FB64D8
:1052F000FB6C83F31088C0467B681B689A687B68E8
:105300001B6840218A439A603B6F3B653B6D83F38A
:105310001088C0467B688022202199507B6800223B
:105320001A66EFF310837B657B6DFB660123BB651B
:10533000BB6D83F31088C0467B681B681A687B6866
:105340001B6810218A431A60FB6EFB65FB6D83F3BB
:105350001088C0467B685B6F1800FDF79BFD7B687B
:1053600002225A667B6858229A5A7B685A215B5AF5
:105370009BB2D31A9AB27B681100180000F0E0F8D3
:10538000C2E07B685822995A7B685A229B5A9AB28B
:105390008E203B188A1A1A807B685A229B5A9BB22D
:1053A000002B00D1B2E03B181B88002B00D1ADE0F0
:1053B000EFF31083FB60FB6888243A191360012324
:1053C0003B613B6983F31088C0467B681B681A68A1
:1053D0007B681B6851490A401A603B191B687B6156
:1053E0007B6983F31088C046EFF31083BB61BB6910
:1053F00084243A1913600123FB61FB6983F310884D
:10540000C0467B681B689A687B681B6801218A43D9
:105410009A603B191B683B623B6A83F31088C04665
:105420007B688022202199507B6800221A667B6865
:1054300000229A66EFF310837B627B6A80243A191C
:1054400013600123BB62BB6A83F31088C0467B688C
:105450001B681A687B681B6810218A431A603B1915
:105460001B68FB62FB6A83F31088C0467B680222DC
:105470005A663B181A887B681100180000F060F823
:1054800044E0A423FB181A6880235B03134010D068
:105490009C23FB181A688023DB03134009D07B6828
:1054A0001B68802252031A627B68180000F065FEB8
:1054B0002FE0A423FB181B68802213400FD0A023E9
:1054C000FB181B688022134009D07B68DB6E002B21
:1054D0001ED07B68DB6E7A681000984718E0A42322
:1054E000FB181B684022134013D0A023FB181B6835
:1054F000402213400DD07B68180000F013FE08E036
:10550000C04606E0C04604E0C04602E0C04600E0F7
:10551000C046BD462BB090BDFFFEFFFFDFFEFFFF84
:1055200080B582B000AF7860C046BD4602B080BD95
:1055300080B582B000AF7860C046BD4602B080BD85
:1055400080B582B000AF78600A00BB1C1A80C046EC
:10555000BD4602B080BD000080B588B000AF786065
:105560001E23FB1800221A707B689A687B681B69EF
:105570001A437B685B691A437B68DB6913437B6171
:105580007B681B681B68AF4A134019007B681B6867
:105590007A690A431A607B681B685B68AA4A1340F1
:1055A00019007B68DA687B681B680A435A607B686D
:1055B0009B697B617B681B6A7A6913437B617B68AB
:1055C0001B689B68A14A134019007B681B687A69B5
:1055D0000A439A607B681B689D4A934227D19D4B82
:1055E0001B6B03221340032B0DD01BD8022B14D0AE
:1055F00018D8002B02D0012B0AD013E01F23FB1870
:1056000000221A7065E01F23FB1802221A7060E066
:105610001F23FB1804221A705BE01F23FB180822CB
:105620001A7056E01F23FB1810221A7051E07B6895
:105630001B68894A934234D1864B1A6BC0239B0264
:105640001340C0229202934217D0C022920293428A
:1056500022D880229202934219D080229202934251
:105660001AD8002B04D08022520293420AD013E0B1
:105670001F23FB1800221A702BE01F23FB180222A5
:105680001A7026E01F23FB1804221A7021E01F2342
:10569000FB1808221A701CE01F23FB1810221A7036
:1056A00017E07B681B686D4A934204D11F23FB18E7
:1056B00000221A700DE07B681B68694A934204D18E
:1056C0001F23FB1800221A7003E01F23FB1810226F
:1056D0001A707B68DA6980231B029A425CD11F230F
:1056E000FB181B78082B15D018DC042B0DD015DC0B
:1056F000002B02D0022B05D010E0FFF7E1F90300E8
:10570000BB6112E0574BBB610FE0FFF75DF903008F
:10571000BB610AE080231B02BB6106E00023BB6182
:105720001E23FB1801221A70C046BB69002B00D152
:105730007AE0BB695A007B685B685B08D2187B68BB
:105740005B6819001000FAF7E9FC03003B613B6954
:105750000F2B1CD93A6980235B029A4217D23B690E
:105760009AB20E203B180F218A431A803B695B08CE
:105770009BB20722134099B23B183A1812880A4389
:105780001A807B681B683A181288DA604CE01E2386
:10579000FB1801221A7047E01F23FB181B78082B07
:1057A00015D018DC042B0DD015DC002B02D0022BF9
:1057B00005D010E0FFF784F90300BB6112E0294B2C
:1057C000BB610FE0FFF700F90300BB610AE0802333
:1057D0001B02BB6106E00023BB611E23FB180122F4
:1057E0001A70C046BB69002B1ED07B685B685A08E4
:1057F000BB69D2187B685B6819001000FAF78EFC51
:1058000003003B613B690F2B0AD93A6980235B0295
:105810009A4205D23B699AB27B681B68DA6003E062
:105820001E23FB1801221A707B6800229A667B688F
:105830000022DA661E23FB181B781800BD4608B04C
:1058400080BDC046F369FFEFFFCFFFFFFFF4FFFF0E
:105850000038014000100240004400400048004071
:10586000004C004000127A0080B582B000AF786032
:105870007B685B6A082213400BD07B681B685B68FF
:105880004A4A134019007B685A6B7B681B680A43BD
:105890005A607B685B6A012213400BD07B681B68EF
:1058A0005B68434A134019007B689A6A7B681B68EF
:1058B0000A435A607B685B6A022213400BD07B6804
:1058C0001B685B683B4A134019007B68DA6A7B6897
:1058D0001B680A435A607B685B6A042213400BD042
:1058E0007B681B685B68344A134019007B681A6B3D
:1058F0007B681B680A435A607B685B6A102213400E
:105900000BD07B681B689B682C4A134019007B688E
:105910009A6B7B681B680A439A607B685B6A2022EB
:1059200013400BD07B681B689B68254A1340190005
:105930007B68DA6B7B681B680A439A607B685B6AEA
:10594000402213401DD07B681B685B681D4A1340D2
:1059500019007B681A6C7B681B680A435A607B6875
:105960001A6C80235B039A420BD17B681B685B68CF
:10597000154A134019007B685A6C7B681B680A4300
:105980005A607B685B6A802213400BD07B681B687F
:105990005B680E4A134019007B689A6C7B681B6831
:1059A0000A435A60C046BD4602B080BDFF7FFFFF7C
:1059B000FFFFFDFFFFFFFEFFFFFFFBFFFFEFFFFF0E
:1059C000FFDFFFFFFFFFEFFFFFFF9FFFFFFFF7FF7F
:1059D00080B592B002AF78607B6884220021995034
:1059E000FCF7FEFA0300FB637B681B681B68082258
:1059F0001340082B2CD1FB6B802291037868464A18
:105A00000092002200F08CF8031E21D0EFF31083E7
:105A10007B627B6ABB630123BB62BB6A83F3108832
:105A2000C0467B681B681A687B681B6880218A43B4
:105A30001A60BB6BFB62FB6A83F31088C0467B680D
:105A40002022DA677B6878220021995403235FE0E3
:105A50007B681B681B6804221340042B46D1FB6B38
:105A60008022D10378682C4A0092002200F058F876
:105A7000031E3BD0EFF31083FB60FB687B630123C5
:105A80003B613B6983F31088C0467B681B681A68DA
:105A90007B681B6821490A401A607B6B7B617B69CC
:105AA00083F31088C046EFF31083BB61BB693B638F
:105AB0000123FB61FB6983F31088C0467B681B6888
:105AC0009A687B681B6801218A439A603B6B3B6242
:105AD0003B6A83F31088C0467B688022202199505E
