:020000040800F2
:1000000098070020B9010008A51D0008A31D0008DD
:1000100000000000000000000000000000000000E0
:10002000000000000000000000000000A91D000802
:100030000000000000000000A71D0008AB1D000824
:10004000CB010008CB010008CB010008CB01000860
:10005000CB010008CB010008CB010008CB01000850
:10006000CB010008CB010008CB010008CB01000840
:10007000CB010008CB010008CB010008CB01000830
:10008000CB010008CB010008CB010008CB01000820
:10009000CB010008CB010008CB010008CB01000810
:1000A000CB010008CB010008CB010008CB01000800
:1000B000F1240008CB0100089D020008CB010008D4
:1000C00000F002F800F04CF812A030C808382418EC
:1000D0002D18AC4201D100F043F80FCCA246AB463C
:1000E0000CA730CF2D1B083F3F197C427F1E544484
:1000F0002D090426F441641EAC4201D300F030F80F
:100100000126334200D0FB1A3343984754465D46DC
:10011000DFE70000C4290000E4290000103A02D300
:1001200078C878C1FAD8520701D330C830C101D598
:1001300004680C6070470000704700000023002432
:1001400000250026103A01D378C1FBD8520700D30E
:1001500030C100D50B6070471FB51FBD10B510BD75
:1001600000F069F81146FFF7F7FF02F04BFA00F0D4
:1001700081F803B4FFF7F2FF03BC00F087F800003A
:1001800070B505460C46164602E00FCC0FC5103E72
:10019000102EFAD2082E02D303CC03C5083E042E3B
:1001A00007D301CC01C5361F03E021782970641CF8
:1001B0006D1C761EF9D270BD07488047074800477E
:1001C000FEE7FEE7FEE7FEE7FEE7FEE70448054937
:1001D000054A064B70470000B31D0008C100000827
:1001E0009801002098070020980300209803002021
:1001F00001E004C0091F0429FBD28B0701D502804E
:10020000801CC90700D00270704700290BD0C307BB
:1002100002D00270401C491E022904D3830702D574
:100220000280801C891EE3E70022EEE70022DFE760
:10023000704770477047754600F024F8AE460500D9
:1002400069465346C008C000854618B020B5FFF780
:10025000BDFF60BCB64600260027C0C5C0C5C0C5EE
:10026000C0C5C0C5C0C5C0C5C0C5403D49084900DE
:100270008D46704710B50446C046C0462046FFF77D
:1002800078FF10BD00487047100000200149182079
:10029000ABBEFEE7260002007047000080B50248B2
:1002A00000F06CF980BDC046A80000202022825CCE
:1002B000521E012A03D800681430002202E00122F5
:1002C0009104243003680B43036010467047F0B577
:1002D0002024045D661E0568AC68012E10D8E60077
:1002E000760F10D0A001800F0124264686401E60A4
:1002F0008E68002E0BD0CF684B68DB003B4309E0D3
:1003000001218C0401E001214C0524302BE0CE6852
:100310000B685B0533430326F601AD1900012B5032
:1003200028180B694360097D012905D1011D0123AE
:100330001B020D681D430D60D179090693791B04DA
:10034000591853791B02C9181379C918C160D1789B
:10035000090693781B04591853781B02C9181278A0
:100360008918816000210268224302600846F0BDBE
:10037000F0B584B00246012015682023D35C5B1ED3
:10038000012B28D840022818036801221343036078
:100390004E691F24344002921346A340C4699C4313
:1003A000C461DC430394CF69012F1AD0002F33D1ED
:1003B000C768039C2740C760F700EC1901948C883C
:1003C000CF683F04E41900940927BF01019C009AFB
:1003D000E2510F4617E08104536A0B43536204B0A5
:1003E000F0BDC4681C43C460F4002C1901948F88CC
:1003F0000C6824043C1900940927BF01019C009A51
:10040000E2510F460C37F4002C193D888E683604F3
:10041000AD199126B600A55145688C69002C01D014
:100420001D4301E0039C2540456045690C69002C93
:1004300005D01D434561096A012906D008E0039CE7
:1004400025404561096A012902D1C1691943C16189
:100450000168029A91430160002004B0F0BD70472A
:10046000F0B583B02026845D641E012C16D8056883
:10047000002917D02C69A40717D002961B24240149
:100480002C1901910D0166590427374097606119B5
:100490006459002F0DD1640D14600CE001218B0410
:1004A000243050E0EC68A407E7D1243001214B054B
:1004B00049E0E40854600C6802272740D7600F1D0C
:1004C0004C68240705D43C6800940F24009E3440F7
:1004D00000E0082414613C68240AE4B294613C689A
:1004E000240C54618A681A70026852193724E40097
:1004F0001259120A5A70026852191259120C9A7043
:10050000026852191259120EDA70026852196F24D9
:10051000A40012591A71026852191259120A5A711A
:10052000026852191259120C9A7102685219125922
:10053000120EDA7100680199002901D0103000E034
:100540000C300021029B02681A430260084603B087
:10055000F0BD2021415C491E01290CD8006881684A
:100560004901C90F82681201D20F51188068C0007A
:10057000C00F08187047002070470000F0B58BB01E
:10058000044600684669416809918268C568016946
:100590000791012779020291F90303913904069129
:1005A0007904049181690191F10702D1002008903A
:1005B00050E000210891D10703D10699D0051ED43F
:1005C00036E087609007069906D450070ED41007CE
:1005D00011D40A92342001E00A92282021582046A2
:1005E000884706990A9AD00509D421E0F8020890B4
:1005F000D00504D41CE038030890D00518D5380283
:10060000216888600298024205D1500509D410057E
:1006100009D4A16B00E0E16A20460A9288470A9A51
:1006200005E0780300E0B8030899091808910699D5
:100630000A420FD0206881600498024207D150031B
:1006400000D5E4E0100300D5E4E0E16B00E0216BAD
:10065000204688471023284618404142414108223D
:1006600030460A921040424242410A4305D1206876
:10067000C36008980299084308900A9805406842A8
:100680006841710739460ED501460029089D05933A
:100690000DD120680A99C160616C20468847059B8E
:1006A000B0070ED505E00029089D0593F1D0B007ED
:1006B00007D52068C068800703D0216C2046884792
:1006C000059B07991940484248417106394600D5B3
:1006D0000146002904D120680361012080020543FE
:1006E0000A980799014048424841B10639460CD55D
:1006F000014600290BD120680A990161E16C20466E
:100700008847059BF0060CD503E00029F3D0F006DE
:1007100007D520680069800703D0A16C2046884770
:10072000059B099919404842484104990E423946AF
:1007300000D00146002904D120684360216D204685
:10074000884709990A9801404842484106990E4253
:10075000394634D00146002933D120680A994160D6
:10076000616D20468847039806422DD009984007BE
:1007700061D528460421019D2A4609910A4051422B
:10078000514172053A4600D50A4602231D4069428E
:100790006941029D2E423D4600D00D463902374642
:1007A00008910F403F0A01990F403843002D15D1A1
:1007B00018430546002A14D0300516D43BE0002922
:1007C000CBD003980642D1D1002D05D0606A2843D2
:1007D0006062A16D204688470BB0F0BD0546002A37
:1007E000EAD109980543300525D57020019A0240C9
:1007F00021D0103A1209052A19D8C0467A44127934
:100800005200974402100C0E0A120A990EE0089842
:10081000039900E008980843C9E6802106E02021FA
:1008200004E0402102E0059900E008990D432168A9
:100830008A6982438A61206804214160002DC5D104
:10084000CAE70000F0B581B000283BD00446202064
:100850000090205C002820D14E4A4F4B5049514D0A
:10086000514E524FA364E26427656665A565504A00
:10087000504B514D514E524F5248A062E762266391
:100880006563A363E263216444486064E16D002909
:1008900001D14D49E1652046884727462037206829
:1008A000016801252943016000F08CFA06462068A2
:1008B0004168C9070AD100F085FA801B0B28F6D3DE
:1008C000012513E00125284601B0F0BD0168022290
:1008D0009143016000F076FA064620684168890776
:1008E0000DD500F06FFA801B0B28F6D36804616AFF
:1008F0000143616205203870284601B0F0BD217EB9
:10090000491E4A424A41D101026880239A43511844
:100910000160617E491E4A424A41910102684023BA
:100920009A4351180160A17E491E4A424A41510131
:100930000268009B9A4351180160E17E491E4A1EDD
:1009400091410901026810239A4351180160217FE7
:10095000491E4A424A41D100026808239A4351186D
:100960000160617F491E4A424A41910002680423A6
:100970009A4351180160261D6ECE13432B43334317
:10098000491E1943C161002565620120387028465F
:1009900001B0F0BDF10A0008F30A0008ED0A0008F2
:1009A000EF0A00085F040008650B0008F50A00085C
:1009B000610B00085D0B0008590B0008630B000871
:1009C0005F0B00085B0B0008CD090008B0B586B0CE
:1009D0000024059404940394029401940068184937
:1009E000884201D006B0B0BD01204106154A936887
:1009F0000B43936093680B40009300994004116887
:100A00000143116011680140009104200590039496
:100A10000220029003200490C00201900098092057
:100A2000C00601A900F0F0F81E25284621462246FE
:100A300000F026FA284600F017FA06B0B0BDC0460E
:100A400000640040141002400346002A1AD02020FF
:100A5000185C012811D10E2914D8C04679440979AF
:100A600049008F4407342B2E22373A3140283D1F4E
:100A700025191C009A620020704718462030007823
:100A8000002805D0012081055A6A0A435A6270473E
:100A90000E2904D00D29F5D1DA65002070471A66B9
:100AA000002070475A65002070479A630020704705
:100AB0009A6500207047DA64002070471A630020AE
:100AC00070475A63002070475A6400207047DA620A
:100AD00000207047DA63002070471A6400207047D6
:100AE0001A65002070479A6400207047704770476D
:100AF000704770477047F0B581B004462020205CF5
:100B000001281ED126462036022030702068016858
:100B1000012217469143016000F054F90546206810
:100B20004068C00714D000F04DF9401B0B28F6D3E5
:100B300038467904626A0A4362620521317001B065
:100B4000F0BD0120C104626A0A43626201B0F0BDD7
:100B50000020606201B0F0BD704770477047704779
:100B600070477047704710B5014620314A78022A15
:100B700012D1026813680E24A34313601368012482
:100B8000A3431360C26B006C2346834053604C70D8
:100B9000002000220A7010BD04228263012000227E
:100BA0000A7010BDB0B5014620314A78022A16D12C
:100BB000026813680E24A343136013680125AB4336
:100BC0001360C26B036C2C469C40546000240C7074
:100BD0004D70416B002900D088472046B0BD0421EC
:100BE00081630120B0BD0000B0B5044600F0EAF812
:100BF0000546601C02D090480078041900F0E2F825
:100C0000401BA042FAD3B0BDF0B58BB006900C6883
:100C1000002C00D1BDE06048069A824201D0052038
:100C200000E004201723DB06069AD2180A23DA41D3
:100C30000192042A00D301900698203000900026EB
:100C400035463346099122460BE03C43089E14602A
:100C50005B1C0A681046D840361DAD1C002800D128
:100C600097E0012007469F403A40F1D00490089653
:100C700003200446AC400295E54349680E46064011
:100C8000741E012C05920795039110D8069A90685E
:100C90002840099CE468029DAC4004439460C80667
:100CA000C00F98405468BC430443546006E0032ED0
:100CB000029D03D10646059F039C1FE0069AD0685B
:100CC0000799084009998C68AC400443D460022E0F
:100CD000059F039C12D11C20089908400F218140D8
:100CE000DC08A400009A16598E43099F3969814097
:100CF000314311517C68059F03262640AE4006997A
:100D00000868079A104030430860A003800F0999D3
:100D1000089E049A9CD053490868104308600868EC
:100D200010400A900C2030400F21814003241E46C1
:100D3000A6430A9C1A4AB4588C4301998140214326
:100D4000B1500999154A96684868C4020FD53E43C8
:100D50009660D66884020FD4BE43D660566884037A
:100D60000FD4BE4356601468C00310D56DE7BE4370
:100D70009660D6688402EFD53E43D66056688403F9
:100D8000EFD53E4356601468C00300D55DE7BC4311
:100D90005CE70BB0F0BDC046001000480004014005
:100DA0000800014042690B4693430A401104C918E8
:100DB00081617047002A02D0182281507047282292
:100DC00081507047054800687047C0461A4800784F
:100DD00002490A68101808607047C0469401002054
:100DE00080B5DD48016810220A430260032000F04C
:100DF00005F800F023F8002080BDC04670B5044619
:100E00007D20C0000C4E317801F046FD0146DA48E5
:100E1000006801F041FD00F02DFC0125032C08D8ED
:100E2000002806D10025E84321462A4600F028F88C
:100E30007460284670BDC0460000002082B009489A
:100E4000016801221143016001681140019101997B
:100E5000110742680A4342604068084000900098C9
:100E600002B0704718100240002805D41F21084026
:100E700001218140014801607047C04600E100E067
:100E8000002805D40322034693430A4A9A1803E034
:100E90000C220240064BD2188007C00E8901C9B24D
:100EA0008140FF23834010689843084310607047D7
:100EB00014ED00E000E400E0F0B587B0044680786F
:100EC000C0074C4F4FD00120059001073A1F106812
:100ED0000840049006D1106808431060106808406C
:100EE0000690069802920391434F3868C00512D4C9
:100EF00005980602386830433860FFF763FF0546FF
:100F00003868304207D1FFF75DFF401B6428F7D9EE
:100F1000032007B0F0BD032001900002354F39686F
:100F2000014012D06268024091420ED00598000440
:100F300039683A6802433A603A6882433A60084640
:100F40002E4A10403860C80745D138682B49084000
:100F50006168014339600498002804D1029A10683E
:100F60000399884310602168C8070AD1880710D404
:100F7000880617D488031DD40020490523D407B060
:100F8000F0BD386903229043A26802433A618807A2
:100F9000EED5032000043A698243E06810433861CB
:100FA0008806E7D5386910229043226902433A61E6
:100FB0008803E1D5386980229043A26902433A61EF
:100FC00000204905DBD539694022914362690A4313
:100FD0003A6107B0F0BDFFF7F5FE05465F4E386891
:100FE0008007B2D4FFF7EEFE401BB042F7D901985C
:100FF00007B0F0BD2010024000700040FFFCFFFF72
:10100000F0B581B0002842D00D460446524B186816
:1010100001210840A84208D21A68012082432A43CD
:101020001A601A680240AA4251D120688207674EAE
:101030000CD5420704D507221202336813433360EC
:101040003268F0239A43A36813433360C00721D169
:10105000414A116801200140A94205D91168814324
:1010600011601168C90732D121784907574F06D559
:10107000072109023A688A43E168114339603B68F5
:101080001907890F524A022912D2144655E001204D
:1010900001B0F0BD6268032A14D0022A4B4B0BD07A
:1010A000181F012A15D10068800308460FD514E0E7
:1010B00003292CD1474C40E0181F006880010846E6
:1010C00005D50AE0414B186B8003084605D401B0F2
:1010D000F0BD006880070846F9D518680321009123
:1010E000884310431860FFF76DFE06461B4F3748D4
:1010F00000680C210140606880008142A8D0FFF7A1
:1011000061FE801BB842F2D9009801B0F0BD032106
:10111000CD0399022B40090F2F4C645CB96A0F264E
:101120000E402E49895DAB4203D000048342104635
:1011300000E0284801F0B0FB444338680006000F87
:101140000749085CC4400C4804600320FFF756FEC2
:10115000002001B0F0BDC04600200240881300000E
:101160008E2A000804480068184909684905490F93
:10117000024A515CC8407047080000209E2A0008BF
:10118000B0B512490A681007830F1148022B02D329
:10119000032B01D10F48B0BD0323DB0394021A4097
:1011A000240F0D4D2C5D896A0F250D400B49495DBB
:1011B0009A4203D001231B049A4200E0054801F043
:1011C0006BFB014620464843B0BDC04604100240B8
:1011D00000127A00006CDC02A62A0008B62A000879
:1011E000F0B587B004460120002C00D13CE2049009
:1011F0002078C007F64E05940CD071680C20014091
:10120000042900D08FE03068800303D5606800288F
:1012100000D131E12078800721D570680007800F68
:101220000ED070680C210140082900D098E00320FE
:10123000C003716801400120C003814200D08FE0EB
:1012400030688007059C03D5E068012800D013E1D1
:101250003068F82188432169C90001433160059C49
:101260002078000724D42078400736D42078C006A0
:1012700000D4CEE0706B059949694A1D00D1BDE0EC
:10128000012900D03EE1042108437063706B012105
:1012900001437163FFF796FD0546706B800700D52B
:1012A000AFE0FFF78FFD411B03200229F5D9DBE1F9
:1012B000706AE16900297ED0012108437062FFF75E
:1012C00081FD0546706A8007CDD4FFF77BFD401B8A
:1012D0000228F7D9032007B0F0BD012003900107D1
:1012E000F0690840029006D1F0690843F061F069A6
:1012F0000840069006980191DC4F3868C00546D436
:1013000003980402386820433860FFF75BFD054608
:10131000386820423BD1FFF755FD401B6428F7D9C0
:10132000032007B0F0BD71680140082908D10320EF
:10133000C0037168014001200004814200D162E7CE
:101340006268306801214F04002A00D129E1052A92
:1013500000D11FE1012A00D03CE1090408433FE12C
:101360003068059CE168002937D0012108433060CE
:10137000FFF728FD05463068800700D568E7FFF7CE
:1013800021FD401B0228F6D9032007B0F0BD0598C7
:101390008168306AB64F002900D1DDE0052900D10F
:1013A000C5E0012900D1C6E0039988433062306A64
:1013B00004218843C1E0012188437062FFF702FDE8
:1013C0000546706A800700D44DE7FFF7FBFC401B21
:1013D0000228F6D9032007B0F0BD01218843306010
:1013E000FFF7F0FC05463068800700D437E7FFF7C9
:1013F000E9FC411B03200229F5D935E1042188438A
:101400007063706BF821884305998969C9000143AD
:1014100071630598007880060BD571680C20014037
:101420000C294DD1706B800303D50598006A012803
:1014300022D10598446A002C1BD070680C21014011
:1014400008291CD1012C17D00320C2037068024068
:10145000F16A059CA36A9A420ED10F221140236BB8
:10146000994209D191040840E16A8842049800D069
:10147000FAE0002007B0F0BD049807B0F0BD0120ED
:10148000020631680492914331604706FFF79AFCE7
:101490000546022C0AD13068384200D1C3E0FFF77C
:1014A00091FC411B03200229F5D9DDE03068384268
:1014B000DFD0FFF787FC411B03200229F6D9D3E0D8
:1014C00071680140082905D10320C00371680140FB
:1014D0008142A7D0706B0599096A002900D18FE07D
:1014E00001210A04104370634C04FFF76BFC0546AE
:1014F000706B20429DD1FFF765FC411B0320022940
:10150000F6D9B1E0042108437063706B0121884370
:101510007063FFF757FC0546706B800700D478E7CF
:10152000FFF750FC411B03200229F5D99CE0042160
:1015300008433062306A039908433062FFF742FC87
:101540000546306A80071BD4FFF73CFC401BB842BD
:10155000F7D9032007B0F0BD039988433062306AA1
:10156000042188433062FFF72DFC0546306A80076E
:1015700006D5FFF727FC411B0320B942F6D973E0DB
:1015800002980028059C00D070E6F0690199884314
:10159000F0616BE68A041043306009043068084348
:1015A0001EE00A0490433060880431688143316052
:1015B000FFF708FC0546059C3068384200D129E653
:1015C000FFF700FC411B03206429F5D94CE0C0461D
:1015D000001002400A049043306089043068884358
:1015E0003060FFF7EFFB05463068384200D011E667
:1015F000FFF7E8FB401B6428F6D9032007B0F0BDD5
:1016000001210A04904370634C04FFF7DBFB05469D
:10161000706B204200D10CE7FFF7D4FB411B032085
:101620000229F5D920E0F06A0F218843059A116B51
:101630000143F1627B20C00371688143D06A084393
:10164000916A014371603068049908433060FFF784
:10165000B9FB04463068384200D00AE7FFF7B2FB16
:10166000011B03200229F5D907B0F0BD007000402E
:1016700088130000401E010E01D001207047074969
:10168000074A5060074803680B400321890759182F
:10169000016000209060072111607047FFFFFF008C
:1016A00010E000E020ED00E0704770477047000058
:1016B000F0B587B003460168CD690C68202004941A
:1016C000029004406242624101200690C7023E46F9
:1016D0002F362E40203E701E864116438E6857D00E
:1016E00003938033019738460F3005950542049DDA
:1016F00007D0E7482840012732463A40101800D06A
:101700009BE0102428462040474247410398006E42
:101710000128069A44D00598C006069F45D4002F9C
:1017200046D00124A0050640724272410598C002CD
:10173000069E039800D51646002E00D18CE080222C
:101740002A4051425141059B1A06069A00D50A4685
:10175000002A00D190E140210D406A426A415B06B7
:1017600000D50692069A002A00D009E1EFF3108511
:1017700084F31088026813688B43136085F3108824
:101780000021C1660299C16700F00AFB07B0F0BDF5
:10179000996E002900D1F3E01846884707B0F0BDE4
:1017A0003A460598C006069FB9D51746002FB8D10E
:1017B000039F3D4658350C628868400652D46988BC
:1017C00028886A88002A00D1DAE0884200D1D7E070
:1017D0000693EFF31083012282F3108809256D012F
:1017E0003E68059139463768AF43376083F3108808
:1017F000EFF3108382F310880D68AE689643AE60F5
:1018000083F31088029B069D2B6000238B660B667A
:10181000EFF3108382F310880A681568A5431560FA
:1018200083F3108802224A66059A801A82B208461B
:101830001146FFF739FF07B0F0BD38022840464295
:1018400046410598C00706985CD100285DD00097F6
:10185000059DA80761D469E022050A62FFF725FF0C
:1018600007B0F0BD786F016849688AB2002A00D1DC
:1018700086E01E462B889A4200D381E06980806909
:10188000202834D0EFF31081012080F31088824AA1
:10189000203206963B681E6816401E6081F3108851
:1018A000EFF3108180F310883A6893688343936064
:1018B00081F31088EFF3108180F310883A68936801
:1018C0004026B343936081F310880299069A116011
:1018D00000213966EFF3108180F3108838680268C0
:1018E000A243026081F31088786FFFF73CF9022071
:1018F000786628886988401A81B23846FFF7D4FE96
:1019000007B0F0BD30460028A1D10F6258683843B7
:1019100058600097059DA80708D5002A06D0022028
:1019200008625868042606435E60059D6807019FAB
:1019300007D5002A05D0042008625868022606430D
:101940005E6022435642564105980007069A009D64
:1019500000D53246002A04D1082008625A680243A2
:101960005A60A806049D05406A426A41059E3E42AF
:10197000069D07D1002D08D058680028039D0DD181
:1019800007B0F0BD1546002DF6D10F625868029AD7
:101990001043586058680028039DF1D00298064013
:1019A00062426241002E00D006920698002809D1BA
:1019B000AA6E002A06D02C4628461D4690472B4684
:1019C000254621685868282202408868402108403E
:1019D00080181E4606D12846FFF768FE002070607A
:1019E00007B0F0BDEFF31080009F87F31088092245
:1019F00052012B681C6894431C6080F31088EFF33D
:101A0000108087F310882A689368BB43936080F343
:101A10001088286E01280BD1EFF31080009A82F312
:101A200010882A6813681024A343136080F3108879
:101A30000298306000202866A86628688068400602
:101A400021D5EFF31080009A82F310882A689368FA
:101A50008B43936080F31088696F002913D00D4881
:101A600048630846FFF79EF8002800D188E7686FB2
:101A7000416B884707B0F0BDC16E002900D17FE7F8
:101A8000884707B0F0BD2846FFF710FE07B0F0BD4D
:101A900020010004591F0008DFFEFFFFB0B5002839
:101AA0001DD00446C06F002805D1782000212154A4
:101AB000204600F02BF82420E0672068016801250B
:101AC000A9430160606A002802D0204600F072F944
:101AD000204600F01DFB002803D02846B0BD0120A1
:101AE000B0BD0920C00221684A6882434A60886804
:101AF0002A22904388600868012202430A60204637
:101B000000F0C2F905462846B0BD0000B0B586B069
:101B100000240594049403940294019400683A49C3
:101B2000884201D006B0B0BD1448816801220592F8
:101B3000520411438160816811400091009901684D
:101B4000114301600068104000900320049003944A
:101B5000022002900C20019000980920C00601A9E3
:101B6000FFF752F81C25284621462246FFF788F940
:101B70002846FFF779F906B0B0BDC0461410024000
:101B8000F0B581B08023C358202B12D10124002945
:101B90000CD0002A0AD001231C038568A5420CD171
:101BA000CC070AD00469002C07D11C46204601B09E
:101BB000F0BD0224204601B0F0BD00240466056893
:101BC0006D682D020AD5EFF3108583F310889B060C
:101BD000066837681F43376085F3108800F040FBC4
:101BE000204601B0F0BD000080B50068064988427B
:101BF00000D080BD00F092FC0448C11C04480122C2
:101C0000FFF7BEFF80BDC0460044004070000020CA
:101C10000C010020F0B585B00446C06F202810D11B
:101C2000012000290BD0002A09D001200503A66855
:101C3000AE4209D1CE0707D02669002E04D105B0E7
:101C4000F0BD022005B0F0BD019302912746503748
:101C5000204684300021039101602120E067164670
:101C6000FFF7B0F804907E803E80A068A84202D1C1
:101C7000206900285ED0029D019E039A2168788821
:101C800000285ED0701C454B2ED0002E49D0039208
:101C9000C869000608D4FFF795F80499401AB042C5
:101CA00066D821680868F3E7002D03D028780885F6
:101CB0006D1C07E0039A1088384B18400885921C69
:101CC000039200257888401E788078880028DFD12C
:101CD00037E0108818400885921C00257888401E3F
:101CE0007880788800282CD0C869000608D4C86994
:101CF000000605D4C869000602D4C8690006F3D5F9
:101D0000002DE6D0287808856D1CE7E7108818407C
:101D10000885921C00257888401E788078880028E5
:101D20000FD0C869000621D5002DEFD0287808858E
:101D30006D1CF0E70025029A019E21687888002832
:101D4000A0D1CA690020520613D4002E0ED0721CF6
:101D500013D1CA6952060CD4CA69520609D4CA6999
:101D6000520606D4CA695206F3D502E0FFF72AF8F4
:101D700003202021E16705B0F0BD0546FFF722F8FA
:101D80000499401AB042F3D820680168C06940063F
:101D9000F4D528462021E16705B0F0BDFF01000021
:101DA0007047FEE7FEE77047704780B5FFF70EF813
:101DB00080BD7047B0B5416A0A070CD4CA0714D178
:101DC0008A071CD44A0724D4CA062CD48A0634D4E1
:101DD0004A063CD44CE00122D20303685C68944379
:101DE000426B22435A60CA07EAD0012252040368B8
:101DF0005C689443826A22435A608A07E2D50122D2
:101E0000120403685C689443C26A22435A604A071A
:101E1000DAD50122920403685C689443026B224382
:101E20005A60CA06D2D50122120303689C68944303
:101E3000826B22439A608A06CAD501225203036844
:101E40009C689443C26B22439A604A0610D50122D3
:101E50001305026854689C43056C2C4354609D42F2
:101E600006D103235B0554689C43436C23435360B2
:101E7000090607D50121C904026853688B43806CA9
:101E800018435060B0BD0000F0B583B0044606466C
:101E900078360025F560FEF795FF03462068016857
:101EA000090721D502952B480090012569050022DC
:101EB00020461F4600F03EFA002812D0EFF31080B3
:101EC00085F3108821680A6880239A430A6080F3AA
:101ED0001088032020227C21029D6250357003B0BF
:101EE000F0BD20683B46029D0068400726D5194892
:101EF00000900127B9050022204600F01BFA0028B7
:101F00001CD0EFF3108087F3108809214901226863
:101F100013688B43136080F31088EFF3108087F30E
:101F2000108821688A68BA438A6080F31088032089
:101F3000202280216250357003B0F0BD2020E06780
:101F4000B060256664212A4628466250357003B089
:101F5000F0BDC046FFFFFF0180B5406A0146523127
:101F600000220A8152214252FFF7A0FB80BDF0B54A
:101F700081B0802141580268222910D10146583190
:101F80008B88928C1A40436D1A804A88521E4A8070
:101F90009A1C42654A88002A07D001B0F0BD9069BA
:101FA00008210143916101B0F0BD03468033EFF396
:101FB0001084012282F3108809256D0106683768B4
:101FC000AF43376084F31088EFF3108482F31088F6
:101FD0000568AE689643AE6084F3108820241C60C8
:101FE0000023436683660468646824020AD5EFF31D
:101FF000108482F31088950606683768AF4337600F
:1020000084F31088046E012C15D10366EFF310835E
:1020100082F310880468256810229543256083F3B5
:1020200010880368DC69E40600D51A620988FFF7A6
:102030003BFB01B0F0BDFFF7D7FD01B0F0BDF0B53F
:1020400081B0802141580268222911D101465831BE
:102050008B88928C1A40436D1A704A88521E4A80AF
:10206000426D521C42654A88002A07D001B0F0BD7B
:10207000906908210143916101B0F0BD03468033AE
:10208000EFF31084012282F3108809256D010668A0
:102090003768AF43376084F31088EFF3108482F31E
:1020A00010880568AE689643AE6084F310882024DB
:1020B0001C600023436683660468646824020AD5B2
:1020C000EFF3108482F31088950606683768AF43F3
:1020D000376084F31088046E012C15D10366EFF38A
:1020E000108382F3108804682568102295432560C8
:1020F00083F310880368DC69E40600D51A62098856
:10210000FFF7D2FA01B0F0BDFFF76EFD01B0F0BDF0
:10211000B0B5044600680168474A0A40A1682369CF
:102120000B4365691D431543E1690D4305600322B7
:10213000120343689343E2681A434260A269236A28
:1021400013430B221202856895431D4385600022CC
:102150003A4B984206DC3C4B984212D03B4B98429B
:1021600016D00CE0364B984212D0364A904206D137
:10217000374800688007000F364A125808E01022DE
:1021800006E033480068800B0C2202403148825838
:102190000125EB033048994210D1082A47D8C046A0
:1021A0007A4412795200974404422442194242422E
:1021B0002300FEF7D7FF00281BD137E0082A36D8C6
:1021C0007A44127952009744043225320E32323268
:1021D0002400FEF7C7FF00281CD127E0FEF7D0FF40
:1021E000002806D122E0FEF7CBFF002812D11DE027
:1021F0001846400061684A08101800F04DFB02467E
:10220000103A16498A4212D201400007400F084393
:102210000AE0184661684A08101800F03DFB0146C4
:1022200010390E4A914202D22168C8600025002070
:10223000A066E0662846B0BDF369FFEFFF4B0040A3
:10224000004C00400038014000440040004800407D
:1022500030100240C82A000800127A00F0FF000087
:1022600070B55823C2524165002181660346583338
:102270005A80846802468032002C12D001252E0735
:10228000B44208D02D03AC4214D10469002C0ED105
:10229000254C9C800FE00469002C05D03F249C80D5
:1022A00009E00469002C02D07F249C8003E0FF2415
:1022B0009C8000E09980516022211160EFF3108230
:1022C000012181F3108803689C680C439C6082F3B1
:1022D000108802690B0384689C4204D1002A14D040
:1022E000124A826603E0114B8366002A0FD0EFF397
:1022F000108281F3108809214901006803680B43AB
:10230000036082F31088002070BD094A8266EFF3F3
:10231000108281F310880068016820230B4303605A
:1023200082F31088002070BDFF0100003F200008EC
:102330006F1F0008F0B585B01F4615460E460368AE
:10234000D9693140891B4A424A410021AA4222D11F
:102350000A9C002C22D00391611C24D1D969314000
:10236000891B4A424A41AA4231D1D9693140891B6D
:102370004A424A41AA422AD1D9693140891B4A427C
:102380004A41AA4223D1D9693140891B4A424A4174
:10239000AA42E3D01BE0084605B0F0BDFEF712FDEF
:1023A000032005B0F0BD402E049001D0802E14D142
:1023B000FEF708FDC01BA0420CD804980068016815
:1023C000C0693040801B41424141A942F0D003988E
:1023D00005B0F0BD032005B0F0BD783001900120BC
:1023E0000090C002029006E0C8693040801B414264
:1023F0004141A942EBD1FEF7E5FCC11B0320A142FC
:102400003ED8049909680A685207EDD5CA691207CF
:1024100038D4CA69029B1A42E6D0029A0A62EFF3E4
:102420001082012181F3108809235B01049C246838
:1024300025689D43256082F31088EFF3108281F3B5
:102440001088049B1B689C688C439C60049B82F3EF
:1024500010881A6E012A0BD1EFF3108281F31088D5
:1024600019680B681024A3430B60049B82F3108847
:102470002021019CA16000221A669A662270E16008
:1024800005B0F0BD08250D62EFF31081009880F3D0
:10249000108809225201049B1B681C6894431C602D
:1024A00081F31088EFF3108180F31088049A12688A
:1024B000936883439360049B81F31088196E01290C
:1024C0000CD1EFF31081012282F310881A6813688F
:1024D0001024A3431360049B81F310882021019AE8
:1024E00091600021196699661170D56005B0F0BD44
:1024F00080B5E648FFF7DCF880BDC04610B5E54C76
:1025000022461C32234608330021FDF7A9FF00288C
:1025100000D010BD0120207010BDC04610B588B09D
:10252000DC4C6078062820D8784400794000874445
:1025300003311E24103B4300E078AA2815D1002067
:102540006060A0700121617020616061A06108B0CD
:1025500010BD60682118E278CA74401C6060A178E0
:102560005140A170A17C884247D008B010BD032023
:102570006070E078218A014310E0E078A074A178CF
:102580004140A170082834D8002836D0042060705B
:1025900008B010BD02206070E07801022182A178AD
:1025A0004140A17008B010BDA078E178814220D1EF
:1025B0000620607008B010BDE078552819D1208A37
:1025C000A17C02AA0023137506910593049302903F
:1025D000AA48FDF7BEFF002806D022461332A748BE
:1025E00002A901ABFDF773FE0120C103A248FEF76B
:1025F000D9FB0020607008B010BD0520607008B0E5
:1026000010BDC046A0B0FEF7EBFB13AC201D30217F
:10261000FDF70CFE00261C9610201790012516953C
:10262000022713970E960D960C960B960A9609960E
:102630002046FEF7D5FD002803D0EFF3108072B6D8
:10264000FEE712961196109607200F900FA83146BC
:10265000FEF7D6FC002803D0EFF3108072B6FEE739
:102660000B96089708A8FEF727FC002803D0EFF385
:10267000108072B6FEE71796169615961496139666
:10268000A9057C4802680A43026002680A40089271
:102690000899690402680A43026002680A400892C5
:1026A0000899A90402680A4302600068084008907B
:1026B0000898EF03704C204639463246FEF77AFB05
:1026C000169615961495139713A92046FEF79CFAB3
:1026D0006A4829050324A204694B68C00660426069
:1026E0008160C66006820C38FEF7ACF8002803D083
:1026F000EFF3108072B6FEE70494199618961796B9
:10270000169615961B951A955C4813A9FDF730FE91
:10271000002803D0EFF3108072B6FEE75748062179
:10272000584AFEF791F9002803D0EFF3108072B6F3
:10273000FEE75248FEF7DFF9002803D0EFF31080E0
:1027400072B6FEE74D4D02212846FDF7AFFD002889
:1027500003D0EFF3108072B6FEE7286841694A4A59
:102760000A4342611E25284631463246FEF788FB61
:102770002846FEF779FB45480C21E1225202444BE2
:10278000036042608660C660066141618661C66121
:1027900006624662FFF782F9002803D0EFF310804B
:1027A00072B6FEE70022344839460192FEF702FB7A
:1027B000384CE11C35480122FFF7E2F913A8001D4F
:1027C0000290049E039722E08D7A754013AEF2705A
:1027D000B37007987070AA203070214608310298B3
:1027E0003A46FDF7CDFCB819552141710571BA1D66
:1027F000642326483146FFF70DFA1F480399FEF778
:10280000D1FA00202070049E3220FEF7EDF92078E6
:102810000028F9D0E3691D0A07955D40E26A55403A
:10282000D7B2002FD2D00593104630400690791EC3
:102830000329019E0ED30698391A0026A019037A9F
:102840006B40457A5D40837A6B40C57A5D40361DAA
:10285000B142F3D106980028059BB7D0A119087A98
:10286000454006980128B1D04E7A6E400228ABD17F
:102870003546ABE71410024000040048A8000020D1
:1028800000640040FD240008038F00000C010020BC
:10289000004400407000002043088B421AD30022FD
:1028A00003098B4279D3030A8B425ED3030B8B421D
:1028B00042D3030C8B4227D30902FF2212BA030C26
:1028C0008B4202D31212090203D0030B8B4233D383
:1028D0001AE0D3E0411A8041401C704703460B4385
:1028E00071D443088B42F5D3002203098B4254D3A1
:1028F000030A8B4239D3030B8B421DD3030C8B424B
:1029000002D394466EE0090AC30B8B4201D3CB037A
:10291000C01A5241830B8B4201D38B03C01A524120
:10292000430B8B4201D34B03C01A5241030B8B4222
:1029300001D30B03C01A5241C30A8B4201D3CB020D
:10294000C01A5241830A8B4201D38B02C01A5241F2
:10295000430A8B4201D34B02C01A5241030A8B42F5
:1029600001D30B02C01A5241CDD2C3098B4201D30D
:10297000CB01C01A524183098B4201D38B01C01A8B
:10298000524143098B4201D34B01C01A5241030902
:102990008B4201D30B01C01A5241C3088B4201D3B1
:1029A000CB00C01A524183088B4201D38B00C01A5E
:1029B000524143088B4201D34B00C01A5241411A85
:1029C000524110007047CA0F00D04942031000D393
:1029D0004042534000229C4603098B422DD3030AF8
:1029E0008B4212D38901FC2212BA030A8B420CD308
:1029F000890192118B4208D3890192118B4204D331
:102A0000890137D0921100E08909C3098B4201D3B3
:102A1000CB01C01A524183098B4201D38B01C01AEA
:102A2000524143098B4201D34B01C01A5241030961
:102A30008B4201D30B01C01A5241C3088B4201D310
:102A4000CB00C01A524183088B4201D38B00C01ABD
:102A50005241D9D243088B4201D34B00C01A524194
:102A6000411A00D201465241104663465B1000D322
:102A70004042704763465B1000D3404201B50021DD
:102A8000004201D0C9430846C046C04602BD00000E
:102A9000000000000000010203040607080900000E
:102AA00000000102030402030405060708090A0BDB
:102AB0000C0D0E0F10100102030405060708090A89
:102AC0000B0C0D0E0F1000000000000004000000B1
:102AD0000800000002000000F82A000800000020A2
:102AE000100000001C010008082B00081000002046
:102AF000880700003C0100080100000004000000FD
:082B000000127A000000000041
:04000005080000C12E
:00000001FF
