:020000040800F2
:10000000000700208101000847140008451400087B
:1000100000000000000000000000000000000000E0
:100020000000000000000000000000004B14000869
:100030000000000000000000491400084D140008F2
:100040009301000893010008930100089301000840
:100050009301000893010008930100089301000830
:100060009301000893010008930100089301000820
:100070009301000893010008930100089301000810
:100080009301000893010008930100089301000800
:1000900093010008930100089301000893010008F0
:1000A00093010008930100089301000893010008E0
:1000B00093010008930100086502000893010008FD
:1000C00000F002F800F04CF812A030C808382418EC
:1000D0002D18AC4201D100F043F80FCCA246AB463C
:1000E0000CA730CF2D1B083F3F197C427F1E544484
:1000F0002D090426F441641EAC4201D300F030F80F
:100100000126334200D0FB1A3343984754465D46DC
:10011000DFE700005817000078170000103A02D3FC
:1001200078C878C1FAD8520701D330C830C101D598
:1001300004680C6070470000704700000023002432
:1001400000250026103A01D378C1FBD8520700D30E
:1001500030C100D50B6070471FB51FBD10B510BD75
:1001600000F04DF81146FFF7F7FF01F085F900F0B8
:1001700065F803B4FFF7F2FF03BC00F06BF8000072
:100180000748804707480047FEE7FEE7FEE7FEE72F
:10019000FEE7FEE704480549054A064B70470000A4
:1001A00055140008C10000080001002000070020CD
:1001B000000300200003002001E004C0091F0429FF
:1001C000FBD28B0701D50280801CC90700D00270CA
:1001D000704700290BD0C30702D00270401C491E93
:1001E000022904D3830702D50280801C891EE3E71D
:1001F0000022EEE70022DFE7704770477047754640
:1002000000F024F8AE46050069465346C008C00019
:10021000854618B020B5FFF7BDFF60BCB646002686
:100220000027C0C5C0C5C0C5C0C5C0C5C0C5C0C504
:10023000C0C5403D490849008D46704710B5044689
:10024000C046C0462046FFF794FF10BD00487047E7
:100250001000002001491820ABBEFEE72600020076
:100260007047000080B5024800F06CF980BDC046C0
:10027000980000202022825C521E012A03D80068C8
:100280001430002202E001229104243003680B4361
:10029000036010467047F0B52024045D661E0568B3
:1002A000AC68012E10D8E600760F10D0A001800FA8
:1002B0000124264686401E608E68002E0BD0CF6833
:1002C0004B68DB003B4309E001218C0401E0012184
:1002D0004C0524302BE0CE680B685B0533430326C6
:1002E000F601AD1900012B5028180B694360097DF8
:1002F000012905D1011D01231B020D681D430D605D
:10030000D179090693791B04591853791B02C9182E
:100310001379C918C160D178090693781B0459185C
:1003200053781B02C918127889188160002102686D
:10033000224302600846F0BDF0B584B002460120B9
:1003400015682023D35C5B1E012B28D84002281897
:1003500003680122134303604E691F243440029254
:100360001346A340C4699C43C461DC430394CF6932
:10037000012F1AD0002F33D1C768039C2740C760D4
:10038000F700EC1901948C88CF683F04E4190094BD
:100390000927BF01019C009AE2510F4617E0810432
:1003A000536A0B43536204B0F0BDC4681C43C4607D
:1003B000F4002C1901948F880C6824043C190094D3
:1003C0000927BF01019C009AE2510F460C37F40047
:1003D0002C193D888E683604AD199126B600A551BA
:1003E00045688C69002C01D01D4301E0039C254029
:1003F000456045690C69002C05D01D434561096ABB
:10040000012906D008E0039C25404561096A0129BD
:1004100002D1C1691943C1610168029A9143016027
:10042000002004B0F0BD7047F0B583B02026845D95
:10043000641E012C16D80568002917D02C69A40762
:1004400017D002961B2424012C1901910D01665925
:1004500004273740976061196459002F0DD1640D4E
:1004600014600CE001218B04243050E0EC68A407F8
:10047000E7D1243001214B0549E0E40854600C68C1
:1004800002272740D7600F1D4C68240705D43C681D
:1004900000940F24009E344000E0082414613C685E
:1004A000240AE4B294613C68240C54618A681A708E
:1004B000026852193724E4001259120A5A7002686D
:1004C00052191259120C9A70026852191259120ECE
:1004D000DA70026852196F24A40012591A71026866
:1004E00052191259120A5A71026852191259120CF1
:1004F0009A71026852191259120EDA710068019944
:10050000002901D0103000E00C300021029B02686D
:100510001A430260084603B0F0BD2021415C491E29
:1005200001290CD8006881684901C90F826812014D
:10053000D20F51188068C000C00F08187047002003
:1005400070470000F0B58BB004460068466941680A
:1005500009918268C56801690791012779020291B2
:10056000F903039139040691790404918169019199
:10057000F10702D10020089050E000210891D10736
:1005800003D10699D0051ED436E0876090070699FE
:1005900006D450070ED4100711D40A92342001E07B
:1005A0000A92282021582046884706990A9AD005A1
:1005B00009D421E0F8020890D00504D41CE03803E7
:1005C0000890D00518D53802216888600298024248
:1005D00005D1500509D4100509D4A16B00E0E16AEA
:1005E00020460A9288470A9A05E0780300E0B8039B
:1005F00008990918089106990A420FD0206881606D
:100600000498024207D1500300D5E4E0100300D55E
:10061000E4E0E16B00E0216B204688471023284688
:10062000184041424141082230460A92104042425D
:1006300042410A4305D12068C360089802990843E3
:1006400008900A98054068426841710739460ED5FE
:1006500001460029089D05930DD120680A99C160C3
:10066000616C20468847059BB0070ED505E0002940
:10067000089D0593F1D0B00707D52068C0688007B2
:1006800003D0216C20468847059B079919404842B2
:1006900048417106394600D50146002904D1206839
:1006A00003610120800205430A98079901404842EE
:1006B0004841B10639460CD5014600290BD12068C6
:1006C0000A990161E16C20468847059BF0060CD52C
:1006D00003E00029F3D0F00607D520680069800701
:1006E00003D0A16C20468847059B099919404842D0
:1006F000484104990E42394600D00146002904D1F0
:1007000020684360216D2046884709990A98014076
:100710004842484106990E42394634D001460029E4
:1007200033D120680A994160616D2046884703985B
:1007300006422DD00998400761D528460421019D25
:100740002A4609910A405142514172053A4600D564
:100750000A4602231D4069426941029D2E423D46E0
:1007600000D00D463902374608910F403F0A0199E3
:100770000F403843002D15D118430546002A14D0E8
:10078000300516D43BE00029CBD003980642D1D1E6
:10079000002D05D0606A28436062A16D204688471D
:1007A0000BB0F0BD0546002AEAD109980543300593
:1007B00025D57020019A024021D0103A1209052A4D
:1007C00019D8C0467A4412795200974402100C0E90
:1007D0000A120A990EE00898039900E00898084365
:1007E000C9E6802106E0202104E0402102E00599CD
:1007F00000E008990D4321688A6982438A61206874
:1008000004214160002DC5D1CAE70000F0B581B0D8
:1008100000283BD0044620200090205C002820D1F6
:100820004E4A4F4B5049514D514E524FA364E264D2
:1008300027656665A565504A504B514D514E524F44
:100840005248A062E76226636563A363E2632164A2
:1008500044486064E16D002901D14D49E1652046BD
:100860008847274620372068016801252943016011
:1008700000F04CFA064620684168C9070AD100F02A
:1008800045FA801B0B28F6D3012513E001252846E5
:1008900001B0F0BD016802229143016000F036FA18
:1008A00006462068416889070DD500F02FFA801BA5
:1008B0000B28F6D36804616A014361620520387031
:1008C000284601B0F0BD217E491E4A424A41D1016D
:1008D000026880239A4351180160617E491E4A4292
:1008E0004A419101026840239A4351180160A17E58
:1008F000491E4A424A4151010268009B9A435118DD
:100900000160E17E491E4A1E9141090102681023DF
:100910009A4351180160217F491E4A424A41D10041
:10092000026808239A4351180160617F491E4A42B8
:100930004A419100026804239A4351180160261D20
:100940006ECE13432B433343491E1943C161002527
:10095000656201203870284601B0F0BDB90A000870
:10096000BB0A0008B50A0008B70A000827040008F7
:100970002D0B0008BD0A0008290B0008250B0008F4
:10098000210B00082B0B0008270B0008230B000885
:1009900095090008B0B586B000240594049403942A
:1009A0000294019400681849884201D006B0B0BD95
:1009B00001204106154A93680B43936093680B40EE
:1009C00000930099400411680143116011680140CF
:1009D00000910420059003940220029003200490CB
:1009E000C002019000980920C00601A900F0B0F8EB
:1009F0001E2528462146224600F0E6F9284600F04A
:100A0000D7F906B0B0BDC0460064004014100240E3
:100A10000346002A1AD02020185C012811D10E2983
:100A200014D8C0467944097949008F4407342B2EE5
:100A300022373A3140283D1F25191C009A620020B8
:100A40007047184620300078002805D00120810525
:100A50005A6A0A435A6270470E2904D00D29F5D10B
:100A6000DA65002070471A66002070475A6500203A
:100A700070479A63002070479A6500207047DA64D7
:100A8000002070471A63002070475A6300207047A7
:100A90005A6400207047DA6200207047DA63002051
:100AA00070471A64002070471A65002070479A64E6
:100AB0000020704770477047704770477047F0B527
:100AC00081B004462020205C01281ED12646203615
:100AD00002203070206801680122174691430160AE
:100AE00000F014F9054620684068C00714D000F0F3
:100AF0000DF9401B0B28F6D338467904626A0A4385
:100B000062620521317001B0F0BD0120C104626A4A
:100B10000A43626201B0F0BD0020606201B0F0BD26
:100B200070477047704770477047704770470000C4
:100B3000B0B5044600F0EAF80546601C02D09048C3
:100B40000078041900F0E2F8401BA042FAD3B0BDCF
:100B5000F0B58BB006900C68002C00D1BDE0604869
:100B6000069A824201D0052000E004201723DB060C
:100B7000069AD2180A23DA410192042A00D301907E
:100B800006982030009000263546334609912246CB
:100B90000BE03C43089E14605B1C0A681046D8407A
:100BA000361DAD1C002800D197E0012007469F406C
:100BB0003A40F1D00490089603200446AC400295D8
:100BC000E54349680E460640741E012C05920795C0
:100BD000039110D8069A90682840099CE468029D09
:100BE000AC4004439460C806C00F98405468BC43AE
:100BF0000443546006E0032E029D03D10646059F80
:100C0000039C1FE0069AD0680799084009998C68F0
:100C1000AC400443D460022E059F039C12D11C20DB
:100C2000089908400F218140DC08A400009A165959
:100C30008E43099F39698140314311517C68059F7A
:100C400003262640AE4006990868079A10403043B4
:100C50000860A003800F0999089E049A9CD053490C
:100C6000086810430860086810400A900C20304063
:100C70000F21814003241E46A6430A9C1A4AB458F9
:100C80008C43019981402143B1500999154A9668D6
:100C90004868C4020FD53E439660D66884020FD4DC
:100CA000BE43D660566884030FD4BE4356601468B2
:100CB000C00310D56DE7BE439660D6688402EFD5B9
:100CC0003E43D66056688403EFD53E4356601468B1
:100CD000C00300D55DE7BC435CE70BB0F0BDC04688
:100CE00000100048000401400800014042690B4622
:100CF00093430A401104C91881617047002A02D049
:100D0000182281507047282281507047054800689A
:100D10007047C0461A48007802490A6810180860EF
:100D20007047C046FC00002080B58B480168102247
:100D30000A430260032000F005F800F023F80020C9
:100D400080BDC04670B504467D20C0000C4E317891
:100D500000F078FC01468848006800F073FC00F061
:100D600057FB0125032C08D8002806D10025E843AD
:100D700021462A4600F028F87460284670BDC04617
:100D80000000002082B0094801680122114301607F
:100D90000168114001910199110742680A434260BC
:100DA000406808400090009802B070471810024058
:100DB000002805D41F21084001218140014801601D
:100DC0007047C04600E100E0002805D40322034636
:100DD00093430A4A9A1803E00C220240064BD218A9
:100DE0008007C00E8901C9B28140FF23834010688B
:100DF000984308431060704714ED00E000E400E001
:100E0000F0B581B0002842D00D460446524B186818
:100E100001210840A84208D21A68012082432A43CF
:100E20001A601A680240AA4251D1206882074B4ECC
:100E30000CD5420704D507221202336813433360EE
:100E40003268F0239A43A36813433360C00721D16B
:100E5000414A116801200140A94205D91168814326
:100E600011601168C90732D1217849073B4F06D577
:100E7000072109023A688A43E168114339603B68F7
:100E80001907890F374A022912D2144655E001206A
:100E900001B0F0BD6268032A14D0022A2F4B0BD098
:100EA000181F012A15D10068800308460FD514E0E9
:100EB00003292CD12C4C40E0181F00688001084603
:100EC00005D50AE0254B186B8003084605D401B010
:100ED000F0BD006880070846F9D518680321009125
:100EE000884310431860FFF711FF06461C4F1B484C
:100EF00000680C210140606880008142A8D0FFF7A3
:100F000005FF801BB842F2D9009801B0F0BD032163
:100F1000CD0399022B40090F144C645CB96A0F266B
:100F20000E401349895DAB4203D000048342104652
:100F300000E00D4800F086FB444338680006000FCF
:100F40000C49085CC4400C4804600320FFF7FAFE1B
:100F5000002001B0F0BDC046002002400410024055
:100F60008813000000127A00006CDC024A180008A6
:100F70005A1800083A18000808000020F0B587B099
:100F800004460120002C00D13CE204902078C007E8
:100F9000F64E05940CD071680C200140042900D055
:100FA0008FE03068800303D56068002800D131E10C
:100FB0002078800721D570680007800F0ED07068F8
:100FC0000C210140082900D098E00320C00371687B
:100FD00001400120C003814200D08FE030688007CB
:100FE000059C03D5E068012800D013E13068F821A2
:100FF00088432169C90001433160059C20780007BE
:1010000024D42078400736D42078C00600D4CEE01F
:10101000706B059949694A1D00D1BDE0012900D0D6
:101020003EE1042108437063706B01210143716349
:10103000FFF76CFE0546706B800700D5AFE0FFF749
:1010400065FE411B03200229F5D9DBE1706AE169E5
:1010500000297ED0012108437062FFF757FE054644
:10106000706A8007CDD4FFF751FE401B0228F7D9E4
:10107000032007B0F0BD012003900107F06908408C
:10108000029006D1F0690843F061F06908400690CB
:1010900006980191DC4F3868C00546D403980402D5
:1010A000386820433860FFF731FE05463868204233
:1010B0003BD1FFF72BFE401B6428F7D9032007B074
:1010C000F0BD71680140082908D10320C003716890
:1010D000014001200004814200D162E7626830686B
:1010E00001214F04002A00D129E1052A00D11FE186
:1010F000012A00D03CE1090408433FE13068059C27
:10110000E168002937D0012108433060FFF7FEFD78
:1011100005463068800700D568E7FFF7F7FD401BFC
:101120000228F6D9032007B0F0BD05988168306A1F
:10113000B64F002900D1DDE0052900D1C5E0012925
:1011400000D1C6E0039988433062306A04218843A5
:10115000C1E0012188437062FFF7D8FD0546706A3F
:10116000800700D44DE7FFF7D1FD401B0228F6D9D8
:10117000032007B0F0BD012188433060FFF7C6FDB2
:1011800005463068800700D437E7FFF7BFFD411BF5
:1011900003200229F5D935E1042188437063706B7F
:1011A000F821884305998969C9000143716305984D
:1011B000007880060BD571680C2001400C294DD1B8
:1011C000706B800303D50598006A012822D1059829
:1011D000446A002C1BD070680C21014008291CD1E6
:1011E000012C17D00320C20370680240F16A059CED
:1011F000A36A9A420ED10F221140236B994209D162
:1012000091040840E16A8842049800D0FAE0002086
:1012100007B0F0BD049807B0F0BD012002063168A8
:101220000492914331604706FFF770FD0546022C9A
:101230000AD13068384200D1C3E0FFF767FD411B97
:1012400003200229F5D9DDE030683842DFD0FFF70E
:101250005DFD411B03200229F6D9D3E071680140EE
:10126000082905D10320C003716801408142A7D03D
:10127000706B0599096A002900D18FE001210A04E9
:10128000104370634C04FFF741FD0546706B20422C
:101290009DD1FFF73BFD411B03200229F6D9B1E0A8
:1012A000042108437063706B012188437063FFF76A
:1012B0002DFD0546706B800700D478E7FFF726FD0B
:1012C000411B03200229F5D99CE004210843306228
:1012D000306A039908433062FFF718FD0546306A0B
:1012E00080071BD4FFF712FD401BB842F7D903203B
:1012F00007B0F0BD039988433062306A0421884307
:101300003062FFF703FD0546306A800706D5FFF718
:10131000FDFC411B0320B942F6D973E00298002876
:10132000059C00D070E6F06901998843F0616BE696
:101330008A04104330600904306808431EE00A0440
:10134000904330608804316881433160FFF7DEFCF0
:101350000546059C3068384200D129E6FFF7D6FCE7
:10136000411B03206429F5D94CE0C046001002401F
:101370000A04904330608904306888433060FFF786
:10138000C5FC05463068384200D011E6FFF7BEFCC8
:10139000401B6428F6D9032007B0F0BD01210A04E0
:1013A000904370634C04FFF7B1FC0546706B20421C
:1013B00000D10CE7FFF7AAFC411B03200229F5D955
:1013C00020E0F06A0F218843059A116B0143F16216
:1013D0007B20C00371688143D06A0843916A01434E
:1013E00071603068049908433060FFF78FFC044651
:1013F0003068384200D00AE7FFF788FC011B032061
:101400000229F5D907B0F0BD007000408813000034
:10141000401E010E01D0012070470749074A506065
:10142000074803680B400321890759180160002011
:101430009060072111607047FFFFFF0010E000E09F
:1014400020ED00E0FEE7FEE77047704780B5FFF74C
:1014500061FC80BD7047000010B5064C22460C327E
:10146000631C0021FEF7E0FF002800D010BD012022
:10147000207010BD7000002092B06A480090FFF705
:1014800053FC05AD281D3021FEF7B4FE00240E9458
:101490001020099001270897022005902846FFF7A1
:1014A0006DFD002803D0EFF3108072B6FEE70494C0
:1014B000039402940720019001A82146FFF7A0FCA5
:1014C000002803D0EFF3108072B6FEE70994089469
:1014D000079406940594B905534802680A430260CC
:1014E00002680A4001920199BE040168314301601B
:1014F0000168314001910199790402680A43026050
:101500000068084001900198FD034848294622469A
:10151000FFF7F4FB089407940697059505A943483F
:10152000FFF716FB424839050922424B036042602F
:101530008460C4600661416184618483FFF766F959
:10154000002803D0EFF3108072B6FEE70B940A94E4
:101550000994089407940D970C97354805A9FEF750
:10156000EBFE002803D0EFF3108072B6FEE73048A0
:101570000621314AFFF74CFA002803D0EFF3108020
:1015800072B6FEE72A48FFF79AFA002803D0EFF375
:10159000108072B6FEE7264F02213846FEF76AFE3B
:1015A000002803D0EFF3108072B6FEE73868416977
:1015B000224A0A4342611E26304621462246FFF750
:1015C00003FC3046FFF7F4FB184829462246FFF794
:1015D00095FB1B4E05E0FFF799FB04463220FFF711
:1015E000A7FAFFF793FB001BB042F7D305A8002131
:1015F00001750420099008910791FF20243005907F
:101600003846FEF78AFF0028E5D005A96A4601ABF7
:101610003846FEF740FE0028DDD104482946FFF792
:1016200065FBD8E7010203041410024000040048DF
:10163000980000200064004059140008038F000047
:10164000E903000043088B421AD3002203098B42AE
:1016500079D3030A8B425ED3030B8B4242D3030C34
:101660008B4227D30902FF2212BA030C8B4202D30A
:101670001212090203D0030B8B4233D31AE0D3E0DA
:10168000411A8041401C704703460B4371D4430804
:101690008B42F5D3002203098B4254D3030A8B42B9
:1016A00039D3030B8B421DD3030C8B4202D39446D8
:1016B0006EE0090AC30B8B4201D3CB03C01A52411F
:1016C000830B8B4201D38B03C01A5241430B8B42D5
:1016D00001D34B03C01A5241030B8B4201D30B03BE
:1016E000C01A5241C30A8B4201D3CB02C01A5241E5
:1016F000830A8B4201D38B02C01A5241430A8B42A8
:1017000001D34B02C01A5241030A8B4201D30B0290
:10171000C01A5241CDD2C3098B4201D3CB01C01AAA
:10172000524183098B4201D38B01C01A52414309B4
:101730008B4201D34B01C01A524103098B4201D3A2
:101740000B01C01A5241C3088B4201D3CB00C01A0F
:10175000524183088B4201D38B00C01A5241430887
:101760008B4201D34B00C01A5241411A5241100022
:101770007047CA0F00D04942031000D34042534083
:1017800000229C4603098B422DD3030A8B4212D3BD
:101790008901FC2212BA030A8B420CD389019211EF
:1017A0008B4208D3890192118B4204D3890137D02F
:1017B000921100E08909C3098B4201D3CB01C01A01
:1017C000524183098B4201D38B01C01A5241430914
:1017D0008B4201D34B01C01A524103098B4201D302
:1017E0000B01C01A5241C3088B4201D3CB00C01A6F
:1017F000524183088B4201D38B00C01A5241D9D287
:1018000043088B4201D34B00C01A5241411A00D207
:1018100001465241104663465B1000D34042704778
:1018200063465B1000D3404201B50021004201D065
:10183000C9430846C046C04602BD00000000000083
:101840000000010203040607080902030405060755
:1018500008090A0B0C0D0E0F1010010203040506F7
:101860000708090A0B0C0D0E0F1000009018000855
:1018700000000020100000001C010008A018000853
:1018800010000020F00600003C01000800000000ED
:10189000010000000400000000127A0000000000B7
:04000005080000C12E
:00000001FF
