:020000040800F2
:100000000040002079140008351200083D12000855
:1000100000000000000000000000000000000000E0
:100020000000000000000000000000004512000871
:1000300000000000000000004F12000859120008E4
:10004000C9140008C9140008C9140008C91400081C
:10005000C9140008C9140008C9140008C91400080C
:10006000C9140008C9140008691200088D1200089C
:10007000C9140008C9140008C9140008C9140008EC
:10008000C9140008C9140008C9140008C9140008DC
:10009000C9140008C9140008C9140008C9140008CC
:1000A000C9140008C9140008C9140008C9120008BE
:1000B000E1120008F91200081D130008C914000815
:1000C00010B5064C2378002B07D1054B002B02D02E
:1000D000044800E000BF0123237010BDD8000020B9
:1000E000000000008C700008044B10B5002B03D0FA
:1000F0000349044800E000BF10BDC04600000000F6
:10010000DC0000208C70000803B4714649084000F0
:100110004900095E49008E4403BC70470022430831
:100120008B4274D303098B425FD3030A8B4244D3BF
:10013000030B8B4228D3030C8B420DD3FF22090201
:1001400012BA030C8B4202D31212090265D0030BC0
:100150008B4219D300E0090AC30B8B4201D3CB03B6
:10016000C01A5241830B8B4201D38B03C01A5241F8
:10017000430B8B4201D34B03C01A5241030B8B42FA
:1001800001D30B03C01A5241C30A8B4201D3CB02E5
:10019000C01A5241830A8B4201D38B02C01A5241CA
:1001A000430A8B4201D34B02C01A5241030A8B42CD
:1001B00001D30B02C01A5241CDD2C3098B4201D3E5
:1001C000CB01C01A524183098B4201D38B01C01A63
:1001D000524143098B4201D34B01C01A52410309DA
:1001E0008B4201D30B01C01A5241C3088B4201D389
:1001F000CB00C01A524183088B4201D38B00C01A36
:10020000524143088B4201D34B00C01A5241411A5C
:1002100000D20146524110467047FFE701B5002069
:1002200000F006F802BDC0460029F7D076E7704717
:100230007047C04680B582B000AF7860034B7A68E3
:100240001A60C046BD4602B080BDC046F400002022
:1002500080B582B000AF78607B68180001F09AF931
:10026000C046BD4602B080BDB0B588B002AF020046
:10027000FB1D1A70BB1D0A1C1A700C217B18FA1D7D
:1002800012781A707B18BA1D12785A706C4B186865
:1002900017257C197A180A2300930223502102F0B3
:1002A00075FD030023707B191B78002B00D1C0E083
:1002B0007B191B78012B04D1624B180006F050F813
:1002C0001BE01723FB181B78032B04D15E4B18008F
:1002D00006F046F811E01723FB181B78022B04D117
:1002E0005A4B180006F03CF807E01723FB181A7861
:1002F000574B1100180005F0CDFF514B1B6818003B
:1003000002F082FF03003B613B69002B00D192E0C9
:100310003B69012B04D14F4B180006F021F826E071
:100320003B69022B04D14C4B180006F019F81EE073
:100330003B69042B04D1494B180006F011F816E074
:100340003B69082B04D1464B180006F009F80EE073
:100350003B69102B04D1434B180006F001F806E06E
:100360003B69202B03D1404B180005F0F9FF344BBB
:100370001B680F257C19180002F03AFF0300237058
:100380007B191B78002B04D1384B180005F0E8FFCF
:1003900052E00F23FB181B78202B04D1334B18009D
:1003A00005F0DEFF48E00F23FB181B78242B04D157
:1003B0002F4B180005F0D4FF3EE00F23FB181B78ED
:1003C000212B04D12B4B180005F0CAFF34E00F237A
:1003D000FB181B78222B04D1274B180005F0C0FF17
:1003E0002AE00F23FB181B78282B04D1234B18007D
:1003F00005F0B6FF20E00F23FB181B78292B04D152
:100400001F4B180005F0ACFF16E00F23FB181B78FC
:100410002A2B04D11B4B180005F0A2FF0CE00F2380
:10042000FB181B78602B07D1174B180005F098FFBD
:1004300002E0C04600E0C046BD4606B0B0BDC046C2
:10044000F4000020A4700008C8700008F0700008D4
:10045000147100082C7100084071000854710008E4
:10046000687100087C71000890710008A87100088C
:10047000C0710008D4710008EC7100080472000813
:100480001C7200083C7200085C72000880B584B0E1
:1004900002AF39601100FB1D021C1A70BB1D0A1C43
:1004A0001A700C4B1868FA1D642300930123502125
:1004B00002F06CFC074B1868BB1D1B789BB23A68B6
:1004C00064210091502102F08BFDC046BD4602B070
:1004D00080BDC046F400002080B582B000AF7860D7
:1004E0007B681800FFF7A6FE00F050F800F037F820
:1004F000C046BD4602B080BD80B582B000AF0200EC
:10050000FB1D1A70FB1D1B7819000720FFF7ACFEBE
:10051000C046BD4602B080BD80B582B000AF0200CB
:10052000FB1D1A70FB1D1B7819003D20FFF79CFE78
:10053000FB1D1B78002B03D11320FFF789FE02E07F
:100540000720FFF785FEC046BD4602B080BD80B5DE
:1005500000AF0020FFF7E0FFC046BD4680BD80B57C
:1005600000AF0C20FFF7D8FFC046BD4680BD80B568
:1005700000AF20213F20FFF777FEAF239B0018003C
:10058000FFF766FEC046BD4680BD000080B582B064
:1005900000AFFFF7ECFFFB1D00221A70FB1D0122CC
:1005A00019000020FFF772FFFB1D1B78A02B07D05E
:1005B000FB1D1B781A000A4B1100180005F06AFE9B
:1005C0000020FFF799FF00213F20FFF74DFEFFF7C6
:1005D000BEFF0A20FFF73CFEC046BD4602B080BD0C
:1005E0007472000880B582B000AF7860074B084A8B
:1005F0007868002101F01CFB031E02D1054B01228B
:100600001A70C046BD4602B080BDC04688050020B5
:100610006C0500206805002080B500AF00F056FF93
:1006200000F0A4F800F0AEFA00F086FA00F084F9C9
:1006300000F0C2F900F0F0F900F01EFA00F04CFAF8
:1006400000F0F2F83E4B1800FFF746FF3D4B180054
:1006500005F0C2FA02003C4B1A603B4B1A683B4B58
:100660009A603A4B80221A73394B180005F0B4FA9D
:100670000200384B1A60374B1A68374B9A60364B7A
:1006800082221A73354B180005F0A6FA0200344B8B
:100690001A60334B1A68334B9A60324B84221A73B8
:1006A00080231B0230480122190002F0ABFA2D4BC7
:1006B0002821180005F062FA274B2821180005F0C0
:1006C0005DFA224B2821180005F058FA254B282105
:1006D000180005F06AFA204B2821180005F065FA89
:1006E0001A4B2821180005F060FAFA239B00180025
:1006F00000F050FF154B4021180005F03FFA164B53
:100700004021180005F03AFA164B4021180005F078
:1007100035FA0E4B4021180005F047FA0E4B4021E8
:10072000180005F042FA0F4B4021180005F03DFA81
:10073000FA23DB00180000F02DFFC046B7E7C046E3
:100740005C01002048030020900500209C0500204B
:100750003802002094050020AC050020C0020020D3
:1007600098050020BC0500200004004890B599B011
:1007700000AF2C243B19180034231A00002105F087
:10078000E5FE1C23FB18180010231A00002105F0B9
:10079000DDFE3B0018001C231A00002105F0D6FEE8
:1007A00021007B1802221A607B180122DA607B1874
:1007B00010221A617B1800225A627B18180003F07D
:1007C00099F8031E01D000F035FA1C217B1807228E
:1007D0001A607B1800225A607B1800229A607B18EE
:1007E0000022DA607B180021180003F009FC031EC8
:1007F00001D000F01FFA3B0023221A603B000022C8
:100800009A603B000022DA603B0000221A613B0044
:10081000180003F061FD031E01D000F00BFAC04682
:10082000BD4619B090BD000080B58AB000AF3E4B08
:100830003E4A1A603C4B01225A603B4B00229A60B0
:10084000394B0022DA60384BC02212031A61364B52
:10085000802252035A61344B00221A76324B002216
:100860005A76314B00229A762F4B0022DA762E4BA5
:1008700000221A772C4B00225A772B4B180000F0DD
:10088000ADFE031E01D000F0D5F93B0000229A60B6
:100890003B000022DA603B0000221A613B0000228C
:1008A0005A613B0000229A613B000122DA613B0061
:1008B00001221A623A001C4B1100180001F080F866
:1008C000031E01D000F0B6F9194A174B0621180093
:1008D00000F0CEFF031E01D000F0ACF9124B18005F
:1008E00001F060F9031E01D000F0A4F90E4B0221C3
:1008F000180001F0C8FA031E01D000F09BF90A4B62
:100900001B685A69084B1B680A490A435A6100224E
:1009100000211E2001F0B6FD1E2001F0C8FDC046DA
:10092000BD460AB080BDC046F8000020006400400B
:10093000E5050008038F000080B500AF1B4B1C4A83
:100940001A601A4B1B4A5A60184B00229A60174BC8
:100950000122DA60154B00221A61144B00225A6101
:10096000124B00229A61114B0022DA610F4B0022D8
:100970001A620E4B180002F063F9031E01D000F05A
:1009800059F90A4B0021180002F01CFF031E01D088
:1009900000F050F9054B0021180002F05FFF031E24
:1009A00001D000F047F9C046BD4680BD5C01002083
:1009B000005400402B1D200080B500AF144B154A99
:1009C0001A60134B962292015A60114B00229A60D2
:1009D0000F4B0022DA600E4B00221A610C4B0C22E6
:1009E0005A610B4B00229A61094B0022DA61084BD5
:1009F00000221A62064B00225A62054B180003F0CF
:100A000069FD031E01D000F015F9C046BD4680BD4A
:100A1000B00100200038014080B500AF144B154AEA
:100A20001A60134BE12252025A60114B00229A6065
:100A30000F4B0022DA600E4B00221A610C4B0C2285
:100A40005A610B4B00229A61094B0022DA61084B74
:100A500000221A62064B00225A62054B180003F06E
:100A600039FD031E01D000F0E5F8C046BD4680BD4B
:100A7000380200200044004080B500AF144B154AF6
:100A80001A60134BE12252025A60114B00229A6005
:100A90000F4B0022DA600E4B00221A610C4B0C2225
:100AA0005A610B4B00229A61094B0022DA61084B14
:100AB00000221A62064B00225A62054B180003F00E
:100AC00009FD031E01D000F0B5F8C046BD4680BD4B
:100AD000C00200200048004080B500AF144B154A0A
:100AE0001A60134BE12252025A60114B00229A60A5
:100AF0000F4B0022DA600E4B00221A610C4B0C22C5
:100B00005A610B4B00229A61094B0022DA61084BB3
:100B100000221A62064B00225A62054B180003F0AD
:100B2000D9FC031E01D000F085F8C046BD4680BD4B
:100B300048030020004C004080B582B000AF104B4D
:100B40005A690F4B01210A435A610D4B5B6901221F
:100B500013407B607B68002200210A2001F092FC98
:100B60000A2001F0A4FC002200210B2001F08AFCE5
:100B70000B2001F09CFCC046BD4602B080BDC046C3
:100B80000010024090B589B000AF0C243B1918004A
:100B900014231A00002105F0D9FC244B5A69234B79
:100BA0008021C9030A435A61204B5A698023DB0321
:100BB0001340BB60BB681D4B5A691C4B80218902E6
:100BC0000A435A61194B5A6980239B0213407B6088
:100BD0007B68164B5A69154B8021C9020A435A613A
:100BE000124B5A698023DB0213403B603B68802331
:100BF0001B020F480022190002F004F83B19802262
:100C000012021A603B1901225A603B1900229A60B5
:100C10003B190022DA603B19054A1900100001F067
:100C200079FEC046BD4609B090BDC04600100240E6
:100C30000004004880B500AF72B6C046C046FDE76C
:100C400080B582B000AF0F4B9A690E4B01210A4369
:100C50009A610C4B9B69012213407B607B68094BB6
:100C6000DA69084B802149050A43DA61054BDA69E4
:100C700080235B0513403B603B68C046BD4602B025
:100C800080BDC0460010024090B58BB000AF7860C8
:100C900014243B19180014231A00002105F056FCF7
:100CA0007B681B68214A93423BD1214BDA69204B78
:100CB000802189040A43DA611D4BDA6980239B0491
:100CC00013403B613B691A4B5A69194B80218902D9
:100CD0000A435A61164B5A6980239B021340FB60FA
:100CE000FB683B19C02252011A6021007B180222C6
:100CF0005A607B1800229A607B180322DA607B1806
:100D000004221A617A189023DB051100180001F003
:100D100001FE002200211E2001F0B4FB1E2001F084
:100D2000C6FBC046BD460BB090BDC0460064004047
:100D30000010024090B58BB000AF786014243B19CE
:100D4000180014231A00002105F000FC7B681B68C2
:100D50001C4A934231D11C4B5A691B4B8021C9025A
:100D60000A435A61184B5A698023DB0213403B61E6
:100D70003B6921007B18C0221A607B1812225A603E
:100D80007B1801229A607B180322DA607B1801220B
:100D90001A617B180D4A1900100001F0BBFD0A4BC7
:100DA000DA69094B802189030A43DA61064BDA6963
:100DB00080239B031340FB60FB68C046BD460BB01D
:100DC00090BDC0460054004000100240000400489E
:100DD00090B591B000AF78602C243B191800142313
:100DE0001A00002105F0B2FB7B681B68B44A9342ED
:100DF0003CD1B44B9A69B34B8021C9010A439A6133
:100E0000B04B9A698023DB011340BB62BB6AAD4BD8
:100E10005A69AC4B802189020A435A61A94B5A692D
:100E200080239B0213407B627B6A3B19C022D20065
:100E30001A6021007B1802225A607B1800229A60F7
:100E40007B180322DA607B1801221A617A1890233A
:100E5000DB051100180001F05DFD002200211B20C0
:100E600001F010FB1B2001F022FBD2E17B681B6824
:100E7000954A934200D087E0924BDA69914B8021EA
:100E800089020A43DA618F4BDA6980239B0213409F
:100E90003B623B6A8B4B5A698A4B802189020A4329
:100EA0005A61884B5A6980239B021340FB61FB699E
:100EB0002C217B180C221A607B1802225A607B18A6
:100EC00000229A607B180322DA607B1801221A61E3
:100ED0007A189023DB051100180001F01BFD7B4BF5
:100EE0007B4A1A60794B00225A60784B00229A6044
:100EF000764B8022DA60754B00221A61734B002218
:100F00005A61724B00229A61704B0022DA616F4B7A
:100F1000180001F0E9FA031E01D0FFF78BFE7B6891
:100F20006A4A5A67694B7A685A626A4B6A4A1A6017
:100F3000684B10225A60674B00229A60654B8022F2
:100F4000DA60644B00221A61624B00225A61614BE5
:100F500000229A615F4B0022DA615E4B180001F0BB
:100F6000C3FA031E01D0FFF765FE7B68594A1A6772
:100F7000584B7A685A62002200211C2001F082FA44
:100F80001C2001F094FA44E17B681B68534A9342A9
:100F900000D0B1E04B4BDA694A4B8021C9020A43C9
:100FA000DA61484BDA698023DB021340BB61BB691D
:100FB000444B5A69434B8021C9020A435A61414B51
:100FC0005A698023DB0213407B617B692C217B18EB
:100FD000C02212011A607B1802225A607B1800227C
:100FE0009A607B180322DA607B1804221A617B184E
:100FF0003B4A1900100001F08DFC3A4B3A4A1A6046
:10100000384B00225A60374B00229A60354B8022C1
:10101000DA60344B00221A61324B00225A61314BA4
:1010200000229A612F4B0022DA612E4B180001F04A
:101030005BFA031E01D0FFF7FDFD2C4B1A682B4B0A
:101040008021C9040A431A607B68264A5A67254BE7
:101050007A685A62264B274A1A60254B10225A603A
:10106000234B00229A60224B8022DA60204B002220
:101070001A611F4B00225A611D4B00229A611C4BC2
:101080000022DA611A4B180001F02EFA031E01D07B
:10109000FFF7D0FD154B1A68144B8021C9040A4391
:1010A0001A607B68124A1A67114B7A685A620022EA
:1010B00000211D2001F0E6F91D2001F0F8F9A8E05B
:1010C000003801400010024000440040D0030020DE
:1010D0005800024014040020440002400048004030
:1010E0000004004858040020300002400000014085
:1010F0009C0400201C0002407B681B68474A934206
:1011000000D086E0464BDA69454B802109030A434B
:10111000DA61434BDA6980231B0313403B613B696F
:101120003F4B5A693E4B802189020A435A613C4B2E
:101130005A6980239B021340FB60FB682C217B18BB
:1011400003221A607B1802225A607B1800229A60E0
:101150007B180322DA607B1804221A617A18902324
:10116000DB051100180001F0D5FB2E4B2E4A1A604A
:101170002C4B00225A602B4B00229A60294B802274
:10118000DA60284B00221A61264B00225A61254B57
:1011900000229A61234B0022DA61224B180001F0F1
:1011A000A3F9031E01D0FFF745FD7B681D4A5A676E
:1011B0001C4B7A685A621D4B1D4A1A601B4B102249
:1011C0005A601A4B00229A60184B8022DA60174B43
:1011D00000221A61154B00225A61144B00229A61B9
:1011E000124B0022DA61114B180001F07DF9031E49
:1011F00001D0FFF71FFD7B680C4A1A670B4B7A681A
:101200005A62002200211D2001F03CF91D2001F04E
:101210004EF9C046BD4611B090BDC046004C0040DE
:1012200000100240E00400206C0002402405002071
:101230008000024080B500AFC046FDE780B500AF3A
:10124000C046FDE780B500AFC046BD4680BD80B555
:1012500000AFC046BD4680BD80B500AF00F07EF94E
:10126000C046BD4680BD000080B500AF054B1800EC
:1012700001F065FA044B180001F061FAC046BD4662
:1012800080BDC0469C0400205804002080B500AFFB
:10129000094B180001F053FA084B180001F04FFAFF
:1012A000074B180001F04BFA064B180001F047FA03
:1012B000C046BD4680BDC04614040020D0030020B7
:1012C000E00400202405002080B500AF034B180087
:1012D00003F03CFAC046BD4680BDC046B0010020C8
:1012E00080B500AF034B180003F030FAC046BD468E
:1012F00080BDC0463802002080B500AF054B180005
:1013000003F024FA044B180003F020FAC046BD464F
:1013100080BDC046C00200204803002080B500AF59
:10132000034B180000F0D9FDC046BD4680BDC04645
:10133000F800002080B586B000AFF860B9607A6030
:1013400000237B610AE000E000BF0100BB685A1C7B
:10135000BA60CAB21A707B6901337B617A697B68B3
:101360009A42F0DB7B681800BD4606B080BD80B5B0
:1013700086B000AFF860B9607A6000237B6109E055
:10138000BB685A1CBA601B78180000E000BF7B697C
:1013900001337B617A697B689A42F1DB7B681800D4
:1013A000BD4606B080BD80B582B000AF7860012335
:1013B0005B421800BD4602B080BD80B582B000AF70
:1013C000786039603B68802292015A6000231800DF
:1013D000BD4602B080BD80B582B000AF7860012309
:1013E0001800BD4602B080BD80B584B000AFF86083
:1013F000B9607A6000231800BD4604B080BD0000CB
:1014000080B586B000AF7860144A154BD31A7B6163
:101410007B693B61134B1B68002B02D1114B124AB5
:101420001A60104B1A687B68D3183A699A4207D23F
:1014300005F0E2F803000C221A6001235B4209E088
:10144000084B1B68FB60074B1A687B68D218054B7A
:101450001A60FB681800BD4606B080BD0040002041
:1014600000040000CC050020A017002080B500AFCC
:10147000C046BD4680BD00000D488546FFF7F6FF1B
:101480000C480D490D4A002302E0D458C4500433DF
:10149000C4188C42F9D30A4A0A4C002301E01360B5
:1014A0000432A242FBD305F0ADF8FFF7B5F8FEE732
:1014B0000040002000000020D800002060730008D9
:1014C000D8000020A0170020FEE7000080B500AF84
:1014D000074B1A68064B10210A431A60032000F0DC
:1014E00009F8FFF7ADFB00231800BD4680BDC046DC
:1014F0000020024090B583B000AF7860144B1C68A8
:10150000144B1B781900FA239800FEF707FE03001E
:1015100019002000FEF702FE0300180000F0D7FFBC
:10152000031E01D001230FE07B68032B0BD87968E1
:1015300001235B420022180000F0A4FF064B7A68EA
:101540001A60002300E001231800BD4603B090BDDF
:1015500000000020080000200400002080B500AF3B
:10156000054B1B781A00054B1B68D218034B1A60F9
:10157000C046BD4680BDC04608000020D005002002
:1015800080B500AF024B1B681800BD4680BDC04649
:10159000D005002080B584B000AF7860FFF7F0FF81
:1015A0000300BB607B68FB60FB68013305D00A4B1E
:1015B0001B781A00FB689B18FB60C046FFF7E0FF32
:1015C0000200BB68D31AFA689A42F7D8C046C046F0
:1015D000BD4604B080BDC0460800002080B584B080
:1015E00000AF78607B68002B01D101231FE17B688D
:1015F00020229B5CDBB2002B32D17B688E4A1A64BE
:101600007B688E4A5A647B688D4A9A647B688D4AEF
:10161000DA647B688C4A9A627B688C4ADA627B68FF
:101620008B4A1A637B688B4A5A637B688A4A9A633F
:101630007B688A4ADA637B68894A1A657B68894ACB
:101640005A657B68884A9A657B68DB6D002B02D1FE
:101650007B68864ADA657B68DB6D7A68100098479C
:101660007B681B681A687B681B6801210A431A6043
:10167000FFF786FF0300FB6013E0FFF781FF020026
:10168000FB68D31A0A2B0CD97B685B6A8022920212
:101690001A437B685A627B682022052199540123F2
:1016A000C5E07B681B685B6801221340E5D07B685E
:1016B0001B681A687B681B6802218A431A60FFF75F
:1016C0005FFF0300FB6013E0FFF75AFF0200FB68B7
:1016D000D31A0A2B0CD97B685B6A802292021A43C8
:1016E0007B685A627B6820220521995401239EE081
:1016F0007B681B685B6802221340E5D17B681B7E18
:10170000012B08D17B681B681A687B681B688021E5
:101710000A431A6007E07B681B681A687B681B68CD
:1017200080218A431A607B685B7E012B08D17B682D
:101730001B681A687B681B6840210A431A6007E02F
:101740007B681B681A687B681B6840218A431A60A3
:101750007B689B7E012B08D17B681B681A687B68BD
:101760001B6820210A431A6007E07B681B681A681F
:101770007B681B6820218A431A607B68DB7E012B13
:1017800008D17B681B681A687B681B6810218A4334
:101790001A6007E07B681B681A687B681B68102169
:1017A0000A431A607B681B7F012B08D17B681B688A
:1017B0001A687B681B6808210A431A6007E07B6887
:1017C0001B681A687B681B6808218A431A607B685B
:1017D0005B7F012B08D17B681B681A687B681B68DC
:1017E00004210A431A6007E07B681B681A687B685B
:1017F0001B6804218A431A607B689A687B68DB68EF
:101800001A437B681B691A437B685B691A431100A2
:101810007B685B685A1E7B681B680A43DA617B68D9
:1018200000225A627B68202201219954002318006B
:10183000BD4604B080BDC046BD220008CD220008D0
:10184000DD220008ED2200085D2200086D2200085C
:101850007D2200088D2200089D220008AD2200088C
:10186000FD2200080D2300081D230008890C000834
:1018700080B586B000AFF8607A600B23FB180A1CB5
:101880001A701723FB1800221A707B68002B08D1EE
:10189000FB685B6A8022D2031A43FB685A62012309
:1018A00087E0FB6820229B5CDBB2012B51D10B232C
:1018B000FB181B780E2B40D89A00404BD3181B689E
:1018C0009F46FB687A689A6270E0FB687A68DA6221
:1018D0006CE0FB687A681A6368E0FB687A685A63B0
:1018E00064E0FB687A689A6360E0FB687A68DA63B0
:1018F0005CE0FB687A681A6458E0FB687A685A64AE
:1019000054E0FB687A689A6450E0FB687A68DA64AD
:101910004CE0FB687A681A6548E0FB687A685A65AB
:1019200044E0FB687A689A6540E0FB687A68DA65AB
:101930003CE0FB687A681A6638E0FB685B6A8022E4
:10194000D2031A43FB685A621723FB1801221A704C
:101950002CE0FB6820229B5CDBB2002B1BD10B230D
:10196000FB181B780D2B02D00E2B04D007E0FB6870
:101970007A68DA651AE0FB687A681A6616E0FB682E
:101980005B6A8022D2031A43FB685A621723FB1852
:1019900001221A700AE0FB685B6A8022D2031A43B4
:1019A000FB685A621723FB1801221A701723FB18D1
:1019B0001B781800BD4606B080BDC046C87200083E
:1019C00080B586B000AF786039607B681B687B614A
:1019D00013203B187A682021525C1A700200BB1851
:1019E0001B78012B04D0BB181B78022B00D0CDE054
:1019F0007A6980239B00D35801221A4311007A6927
:101A000080239B00D1503B685B691F221340012259
:101A10009A401300FB607A6987239B00D358FA68C9
:101A2000D2431A4011007A6987239B00D1503B684A
:101A3000DB69002B29D17A6983239B00D358FA688C
:101A4000D2431A4011007A6983239B00D1503B682E
:101A5000DB6818043B685B681B04190C3B685A6917
:101A600001437B694832D200D1503B689B6819041E
:101A70003B681B681B041A0C3B685B690A43796965
:101A80004833DB00CB1804331A603B68DB69012B59
:101A900028D17A6983239B00D258FB681A4311002E
:101AA0007A6983239B00D1503B681B6818043B680C
:101AB0005B681B04190C3B685A6901437B69483217
:101AC000D200D1503B689B6819043B68DB681B045B
:101AD0001A0C3B685B690A4379694833DB00CB1811
:101AE00004331A603B689B69002B0CD17A6981230F
:101AF0009B00D358FA68D2431A4011007A698123B7
:101B00009B00D1500AE07A6981239B00D258FB6880
:101B10001A4311007A6981239B00D1503B681B69ED
:101B2000002B0CD17A6985239B00D358FA68D243E5
:101B30001A4011007A6985239B00D1500AE07A6926
:101B400085239B00D258FB681A4311007A698523CC
:101B50009B00D1503B681B6A012B0AD17A6987230D
:101B60009B00D258FB681A4311007A6987239B00B7
:101B7000D1507A6980239B00D358012293431900E6
:101B80007A6980239B00D150002307E07B685B6A61
:101B90008022D2021A437B685A6201231800BD4694
:101BA00006B080BD80B584B000AF78607B6820222D
:101BB0009B5CDBB2012B2FD17B6820220221995440
:101BC0007B681B681A687B681B6801218A431A605E
:101BD000FFF7D6FC0300FB6013E0FFF7D1FC020027
:101BE000FB68D31A0A2B0CD97B685B6A80229202AD
:101BF0001A437B685A627B6820220521995401238D
:101C000012E07B681B685B6801221340E5D17B68AA
:101C100000225A62002307E07B685B6A802212037D
:101C20001A437B685A6201231800BD4604B080BD88
:101C300080B586B000AFF860B9607A603B6017206D
:101C40003B18FA682021525C1A700200BB181B78FE
:101C5000012B04D0BB181B78022B00D007E1BB6816
:101C6000002B0ED1FB681B68DB680322134017D1E1
:101C7000FB685B6A802292031A43FB685A62012365
:101C8000FDE0FB681B681B690322134008D1FB6859
:101C90005B6A802292031A43FB685A620123EEE0DA
:101CA000FB681B68BA681B321201D35804221A4021
:101CB0007B689A607B689B68002B0BD1FB681B6874
:101CC000BA681B321201D3585B0D5B055A0D7B6855
:101CD0001A600AE0FB681B68BA681B321201D3580D
:101CE000DB08DB00DA087B685A60FB681B68BA68AF
:101CF0001B321201D35802221A407B68DA60FB685B
:101D00001A68BB681B331B01D31804331B680822F5
:101D1000134003D07B6808221A610BE0FB681A6845
:101D2000BB681B331B01D31804331B680F221A40F6
:101D30007B681A61FB681A68BB681B331B01D318E8
:101D400004331B681B0AFF221A407B689A61FB68F8
:101D50001A68BB681B331B01D31804331B681B0CA8
:101D60001B041A0C7B685A61FB681968BA68DC238B
:101D70005B0012018A18D3181B68DAB23B681A702C
:101D8000FB681968BA68DC235B0012018A18D31853
:101D90001B681A0A3B680133D2B21A70FB681968D3
:101DA000BA68DC235B0012018A18D3181B681A0C6E
:101DB0003B680233D2B21A70FB681968BA68DC2338
:101DC0005B0012018A18D3181B681A0E3B68033394
:101DD000D2B21A70FB681968BA68DE235B00120180
:101DE0008A18D3181A683B680433D2B21A70FB6899
:101DF0001968BA68DE235B0012018A18D3181B68C1
:101E00001A0A3B680533D2B21A70FB681968BA68BF
:101E1000DE235B0012018A18D3181B681A0C3B687A
:101E20000633D2B21A70FB681968BA68DE235B0009
:101E300012018A18D3181B681A0E3B680733D2B2F6
:101E40001A70BB68002B08D1FB681B68DA68FB6856
:101E50001B6820210A43DA6007E0FB681B681A69E7
:101E6000FB681B6820210A431A61002307E0FB6816
:101E70005B6A8022D2021A43FB685A62012318006F
:101E8000BD4606B080BD80B584B000AF78603960D3
:101E90000F203B187A682021525C1A700200BB1890
:101EA0001B78012B03D0BB181B78022B09D17B6850
:101EB0001B6859697B681B683A680A435A610023AA
:101EC00007E07B685B6A8022D2021A437B685A6211
:101ED00001231800BD4604B080BD80B58AB000AFB4
:101EE000786000237B627B681B685B693B627B6870
:101EF0001B685B68FB617B681B689B68BB617B68D8
:101F00001B68DB687B617B681B681B693B617B68C6
:101F10001B689B69FB603B6A0122134000D18AE089
:101F2000BB690122134026D07B681B6801229A609E
:101F3000BB690222134005D07B689B6A7A68100057
:101F4000984718E0BB690422134005D07B6A8022C1
:101F5000120113437B620EE0BB690822134005D0D7
:101F60007B6A8022520113437B6204E07B685B6BD7
:101F70007A6810009847BA6980235B0013402AD022
:101F80007B681B68802252009A60BA6980239B009C
:101F9000134005D07B68DB6A7A68100098471AE026
:101FA000BA698023DB00134005D07B6A802292014E
:101FB00013437B620FE0BA6980231B01134005D0F5
:101FC0007B6A8022D20113437B6204E07B689B6BB7
:101FD0007A6810009847BA6980235B0213402AD0C0
:101FE0007B681B68802252029A60BA6980239B0238
:101FF000134005D07B681B6B7A68100098471AE085
:10200000BA698023DB02134005D07B6A802212026A
:1020100013437B620FE0BA6980231B03134005D092
:102020007B6A8022520213437B6204E07B68DB6B95
:102030007A68100098473B6A082213400CD07B69ED
:102040001022134008D07B6A8022920013437B62E7
:102050007B681B681022DA603B6A042213400CD0B4
:102060007B690822134008D07B681B680822DA606D
:102070007B685B6C7A68100098473B6A02221340C9
:102080000AD07B681B68DB680322134004D07B689E
:102090001B6C7A68100098473B6A402213400CD0B2
:1020A0003B691022134008D07B6A8022D200134380
:1020B0007B627B681B6810221A613B6A20221340F6
:1020C0000CD03B690822134008D07B681B680822AB
:1020D0001A617B68DB6C7A68100098473B6A1022B3
:1020E00013400AD07B681B681B690322134004D08D
:1020F0007B689B6C7A68100098473A6A80239B0241
:1021000013400CD0FB691022134008D07B681B6879
:1021100010225A607B681B6D7A68100098473A6AF3
:1021200080235B0213400CD0FB690822134008D0C7
:102130007B681B6808225A607B685B6D7A681000B8
:1021400098473A6A80231B02134000D174E0FB6970
:102150000422134000D16BE03A6A80235B001340F5
:1021600007D0FB680122134003D07B6A012213438E
:102170007B623A6A80239B00134007D0FB680222EF
:10218000134003D07B6A022213437B623A6A8023A6
:10219000DB00134007D0FB680422134003D07B6AA6
:1021A000042213437B623A6A80231B0113403FD011
:1021B000FB68702213403BD0FB6870221340602BF9
:1021C00027D02CD8502B1FD029D8402B17D026D859
:1021D000302B0FD023D8102B02D0202B05D01EE09F
:1021E0007B6A082213437B621AE07B6A1022134346
:1021F0007B6215E07B6A202213437B6210E07B6ADE
:10220000402213437B620BE07B6A802213437B6294
:1022100006E07B6A8022520013437B6200E0C046E6
:102220007B681B689A697B681B6870218A439A6186
:102230007B681B6804225A607B6A002B0AD07B688B
:102240005A6A7B6A1A437B685A627B689B6D7A681C
:1022500010009847C046BD460AB080BD80B582B028
:1022600000AF7860C046BD4602B080BD80B582B088
:1022700000AF7860C046BD4602B080BD80B582B078
:1022800000AF7860C046BD4602B080BD80B582B068
:1022900000AF7860C046BD4602B080BD80B582B058
:1022A00000AF7860C046BD4602B080BD80B582B048
:1022B00000AF7860C046BD4602B080BD80B582B038
:1022C00000AF7860C046BD4602B080BD80B582B028
:1022D00000AF7860C046BD4602B080BD80B582B018
:1022E00000AF7860C046BD4602B080BD80B582B008
:1022F00000AF7860C046BD4602B080BD80B582B0F8
:1023000000AF7860C046BD4602B080BD80B582B0E7
:1023100000AF7860C046BD4602B080BD80B582B0D7
:1023200000AF7860C046BD4602B080BD80B582B0C7
:1023300000AF0200FB1D1A70FB1D1B787F2B09D814
:10234000FB1D1B781A001F231A40044B01219140EA
:102350000A001A60C046BD4602B080BD00E100E040
:1023600090B583B000AF02003960FB1D1A70FB1DF1
:102370001B787F2B28D82F4AFB1D1B785BB29B084C
:10238000C0339B009B58FA1D1278110003220A40AB
:10239000D200FF2191400A00D2431A4011003B684D
:1023A0009B01FF221A40FB1D1B78180003230340EA
:1023B000DB009A401F48FB1D1B785BB29B080A4359
:1023C000C0339B001A5031E01B4AFB1D1B781900DB
:1023D0000F230B40083B9B0806339B00D3180433A4
:1023E0001B68FA1D1278110003220A40D200FF2157
:1023F00091400A00D2431A4011003B689B01FF2222
:102400001A40FB1D1B78180003230340DB009A4091
:102410000948FB1D1B781C000F232340083B9B0829
:102420000A4306339B00C31804331A60C046BD46F6
:1024300003B090BD00E100E000ED00E080B582B0A7
:1024400000AF78607B685A1E80235B049A4201D3F8
:10245000012310E00A4B7A68013A5A6001235B427B
:1024600003211800FFF77CFF054B00229A60044B04
:1024700007221A6000231800BD4602B080BDC04686
:1024800010E000E080B584B000AFB9607A600F2141
:102490007B18021C1A70BA687B181B785BB211009B
:1024A0001800FFF75DFFC046BD4604B080BD80B593
:1024B00082B000AF0200FB1D1A70FB1D1B785BB2DF
:1024C0001800FFF733FFC046BD4602B080BD80B59F
:1024D00082B000AF78607B681800FFF7AFFF0300A1
:1024E0001800BD4602B080BD80B584B000AF7860F2
:1024F0000023FB607B68002B01D1012336E07B6861
:102500002122022199547B681B681B68FB60FB68D1
:10251000184A1340FB607B685A687B689B681A43C3
:102520007B68DB681A437B681B691A437B685B69BD
:102530001A437B689B691A437B68DB691343FA681B
:102540001343FB607B681B68FA681A607B6818009D
:1025500000F0C4F97B6800229A637B682122012184
:1025600099547B6820220021995400231800BD460D
:1025700004B080BD0FC0FFFF80B586B000AFF8602B
:10258000B9607A603B601723FB1800221A70FB6861
:1025900020229B5C012B01D102234FE0FB6820220B
:1025A00001219954FB6821229B5CDBB2012B3AD1BB
:1025B000FB68212202219954FB6800229A63FB6880
:1025C0001B681A68FB681B6801218A431A603B6814
:1025D0007A68B968F86800F054F9FB68DB6A002B88
:1025E00008D0FB681B681A68FB681B680E210A4349
:1025F0001A600FE0FB681B681A68FB681B680A21F9
:102600000A431A60FB681B681A68FB681B68042190
:102610008A431A60FB681B681A68FB681B68012103
:102620000A431A6007E0FB6820220021995417230F
:10263000FB1802221A701723FB181B781800BD46DE
:1026400006B080BD80B582B000AF78607B68212283
:102650009B5CDBB2022B08D07B6804229A637B6808
:10266000202200219954012320E07B681B681A680E
:102670007B681B680E218A431A607B681B681A6896
:102680007B681B6801218A431A607B681A6C7B682F
:10269000DB6B012191400A005A607B6821220121F5
:1026A00099547B6820220021995400231800BD46CC
:1026B00002B080BD80B584B000AF78600F217B1878
:1026C00000221A707B6821229B5CDBB2022B06D0B1
:1026D0007B6804229A637B1801221A7028E07B68C9
:1026E0001B681A687B681B680E218A431A607B6826
:1026F0001B681A687B681B6801218A431A607B6823
:102700001A6C7B68DB6B012191400A005A607B6880
:102710002122012199547B682022002199547B6851
:102720005B6B002B04D07B685B6B7A68100098476A
:102730000F23FB181B781800BD4604B080BD80B580
:1027400084B000AF78607B68DB6B1B68FB607B68E4
:102750001B681B68BB607B681B6C04229A401300DB
:10276000FA68134024D0BB680422134020D07B6851
:102770001B681B682022134007D17B681B681A68FE
:102780007B681B6804218A431A607B681A6C7B682B
:10279000DB6B042191400A005A607B68DB6A002BE6
:1027A00000D16AE07B68DB6A7A681000984764E0D1
:1027B0007B681B6C02229A401300FA6813402BD0EE
:1027C000BB680222134027D07B681B681B6820224D
:1027D00013400BD17B681B681A687B681B680A2151
:1027E0008A431A607B682122012199547B681A6C04
:1027F0007B68DB6B022191400A005A607B682022D3
:10280000002199547B689B6A002B36D07B689B6AB9
:102810007A681000984730E07B681B6C08229A4069
:102820001300FA68134028D0BB680822134024D054
:102830007B681B681A687B681B680E218A431A60D4
:102840007B681A6C7B68DB6B012191400A005A603F
:102850007B6801229A637B682122012199547B685D
:102860002022002199547B681B6B002B05D07B68CC
:102870001B6B7A6810009847FFE7C046BD4604B05E
:1028800080BD80B584B000AFF860B9607A603B600D
:10289000FB681A6CFB68DB6B012191400A005A60EF
:1028A000FB681B683A685A60FB685B68102B08D1AC
:1028B000FB681B687A689A60FB681B68BA68DA6014
:1028C00007E0FB681B68BA689A60FB681B687A6857
:1028D000DA60C046BD4604B080BD000080B582B05D
:1028E00000AF78607B681B68084A944663441421F3
:1028F0001800FDF713FC03009A007B681A647B68DC
:10290000034ADA63C046BD4602B080BDF8FFFDBF92
:102910000000024080B586B000AF786039600023C7
:102920007B6155E13B681B6801217A6991400A008F
:102930001340FB60FB68002B00D146E13B685B68FD
:1029400003221340012B05D03B685B680322134030
:10295000022B30D17B689B683B617B695B00032263
:102960009A401300DA433B6913403B613B68DA68E5
:102970007B695B009A4013003A6913433B617B68B3
:102980003A699A607B685B683B6101227B699A4087
:102990001300DA433B6913403B613B685B681B09EA
:1029A00001221A407B699A4013003A6913433B6144
:1029B0007B683A695A603B685B6803221340032BCB
:1029C00017D07B68DB683B617B695B0003229A4020
:1029D0001300DA433B6913403B613B689A687B69AB
:1029E0005B009A4013003A6913433B617B683A6984
:1029F000DA603B685B6803221340022B23D17B69BA
:102A0000DA087B6808329200D3583B617B69072261
:102A100013409B000F229A401300DA433B69134096
:102A20003B613B681A697B6907210B409B009A4018
:102A300013003A6913433B617B69DA087B6808320B
:102A400092003969D1507B681B683B617B695B00F0
:102A500003229A401300DA433B6913403B613B6811
:102A60005B6803221A407B695B009A4013003A6955
:102A700013433B617B683A691A603B685A68C0231C
:102A80009B02134000D1A0E0574B9A69564B01219D
:102A90000A439A61544B9B6901221340BB60BB6897
:102AA000524A7B699B0802339B009B583B617B69C0
:102AB000032213409B000F229A401300DA433B6924
:102AC00013403B617A689023DB059A4219D07B68FA
:102AD000474A934213D07B68464A93420DD07B68A5
:102AE000454A934207D07B68444A934201D104236C
:102AF00008E0052306E0032304E0022302E00123AB
:102B000000E000237A6903210A40920093403A6969
:102B100013433B6135497B699B0802339B003A694B
:102B20005A50374B9B683B61FB68DA433B69134063
:102B30003B613B685A6880235B03134003D03A69CA
:102B4000FB6813433B612E4B3A699A602C4BDB6860
:102B50003B61FB68DA433B6913403B613B685A6861
:102B600080239B03134003D03A69FB6813433B6106
:102B7000234B3A69DA60224B5B683B61FB68DA43BE
:102B80003B6913403B613B685A6880239B021340BA
:102B900003D03A69FB6813433B61194B3A695A60A9
:102BA000174B1B683B61FB68DA433B6913403B6191
:102BB0003B685A6880235B02134003D03A69FB6884
:102BC00013433B610E4B3A691A607B6901337B61A9
:102BD0003B681A687B69DA40131E00D0A2E6C04643
:102BE000C046BD4606B080BD001002400000014056
:102BF0000004004800080048000C0048001000488D
:102C00000004014080B582B000AF78600800110078
:102C1000BB1C021C1A807B1C0A1C1A707B1C1B78B4
:102C2000002B04D0BB1C1A887B689A6103E0BB1C94
:102C30001A887B689A62C046BD4602B080BD00001B
:102C400080B582B000AF78607B68002B01D1012392
:102C50008FE07B6841229B5CDBB2002B07D17B6855
:102C60004022002199547B681800FEF763F87B68C6
:102C70004122242199547B681B681A687B681B6871
:102C800001218A431A607B685A687B681B683B494C
:102C90000A401A617B681B689A687B681B68384920
:102CA0000A409A607B68DB68012B08D17B689A68D0
:102CB0007B681B68802109020A439A6007E07B68F1
:102CC0009A687B681B68842109020A439A607B68C2
:102CD000DB68022B09D17B681B685A687B681B681C
:102CE000802109010A435A6007E07B681B685A6823
:102CF0007B681B6823490A405A607B681B685A68D6
:102D00007B681B6820490A435A607B681B68DA6845
:102D10007B681B681A490A40DA607B681A697B681D
:102D20005B691A4311007B689B691A027B681B6808
:102D30000A43DA607B68D9697B681A6A7B681B681A
:102D40000A431A607B681B681A687B681B6801214C
:102D50000A431A607B6800225A647B684122202162
:102D600099547B6800221A637B684222002199549F
:102D700000231800BD4602B080BDC046FFFFFFF033
:102D8000FF7FFFFFFFF7FFFF0080000290B589B0D3
:102D900002AFF86008007A6019000A23FB18021CD1
:102DA0001A800823FB180A1C1A80FB6841229B5CCE
:102DB000DBB2202B00D00AE1FB6840229B5C012B98
:102DC00001D1022304E1FB68402201219954FEF75E
:102DD000D7FB03003B6180231902F8683B6900932D
:102DE0001923012200F03CFA031E01D00123EFE079
:102DF000FB68412221219954FB68422210219954F9
:102E0000FB6800225A64FB687A685A62FB680822F1
:102E1000BA1812885A85FB6800225A63FB685B8DDA
:102E20009BB2FF2B06D9FB68FF221A8580235B0427
:102E30007B6107E0FB685B8D9AB2FB681A85802393
:102E40009B047B61FB681B8D002B27D0FB685B6AB2
:102E50001A78FB681B689A62FB685B6A5A1CFB68FD
:102E60005A62FB685B8D9BB2013B9AB2FB685A8544
:102E7000FB681B8D013B9AB2FB681A85FB681B8DB2
:102E8000DBB20133DAB27C690A23FB181988F868CF
:102E9000514B0093230000F05BFC6FE0FB681B8D3F
:102EA000DAB27C690A23FB181988F8684A4B009348
:102EB000230000F04DFC61E03A69B96AFB68180034
:102EC00000F026FA031E01D0012381E0FB685B6A53
:102ED0001A78FB681B689A62FB685B6A5A1CFB687D
:102EE0005A62FB685B8D9BB2013B9AB2FB685A85C4
:102EF000FB681B8D013B9AB2FB681A85FB685B8DF2
:102F00009BB2002B3AD0FB681B8D002B36D1BA6ADE
:102F1000F8683B69009313000022802100F0A0F9BB
:102F2000031E01D0012353E0FB685B8D9BB2FF2B96
:102F300011D9FB68FF221A85FB681B8DDAB280234A
:102F40005C040A23FB181988F86800230093230007
:102F500000F0FEFB12E0FB685B8D9AB2FB681A85FD
:102F6000FB681B8DDAB280239C040A23FB181988A6
:102F7000F86800230093230000F0EAFBFB685B8DF8
:102F80009BB2002B98D13A69B96AFB68180000F02F
:102F900005FA031E01D001231AE0FB681B682022FA
:102FA000DA61FB681B685A68FB681B680B490A40BA
:102FB0005A60FB68412220219954FB68422200217B
:102FC0009954FB68402200219954002300E0022319
:102FD0001800BD4607B090BD0020008000E800FE4C
:102FE00090B589B002AFF86008007A6019000A2332
:102FF000FB18021C1A800823FB180A1C1A80FB68A5
:1030000041229B5CDBB2202B00D0E8E0FB68402231
:103010009B5C012B01D10223E2E0FB6840220121ED
:103020009954FEF7ADFA03007B6180231902F8681A
:103030007B6900931923012200F012F9031E01D0CD
:103040000123CDE0FB68412222219954FB684222F2
:1030500010219954FB6800225A64FB687A685A620E
:10306000FB680822BA1812885A85FB6800225A6346
:10307000FB685B8D9BB2FF2B11D9FB6801221A857F
:10308000FB681B8DDAB280235C040A23FB181988C5
:10309000F868554B0093230000F05AFB76E0FB687C
:1030A0005B8D9AB2FB681A85FB681B8DDAB28023B0
:1030B0009C040A23FB181988F8684B4B00932300E3
:1030C00000F046FB62E07A69B96AFB68180000F01C
:1030D000A9F9031E01D0012382E0FB681B685A6A2C
:1030E000FB685B6AD2B21A70FB685B6A5A1CFB68A9
:1030F0005A62FB681B8D013B9AB2FB681A85FB681C
:103100005B8D9BB2013B9AB2FB685A85FB685B8D75
:103110009BB2002B3AD0FB681B8D002B36D1BA6ACC
:10312000F8687B69009313000022802100F098F872
:10313000031E01D0012353E0FB685B8D9BB2FF2B84
:1031400011D9FB68FF221A85FB681B8DDAB2802338
:103150005C040A23FB181988F868002300932300F5
:1031600000F0F6FA12E0FB685B8D9AB2FB681A85F4
:10317000FB681B8DDAB280239C040A23FB18198894
:10318000F86800230093230000F0E2FAFB685B8DEF
:103190009BB2002B97D17A69B96AFB68180000F0DE
:1031A000FDF8031E01D001231AE0FB681B682022F2
:1031B000DA61FB681B685A68FB681B680B490A40A8
:1031C0005A60FB68412220219954FB684222002169
:1031D0009954FB68402200219954002300E0022307
:1031E0001800BD4607B090BD0024008000E800FE36
:1031F00080B582B000AF78607B6841229B5CDBB217
:103200001800BD4602B080BD80B582B000AF7860C6
:103210007B685B6C1800BD4602B080BD80B582B093
:1032200000AF78607B681B689B6902221340022B09
:1032300003D17B681B6800229A627B681B689B69CC
:1032400001221340012B07D07B681B689A697B68B9
:103250001B6801210A439A61C046BD4602B080BD89
:1032600080B584B000AFF860B9603B60FB1D1A7098
:103270003AE0BA693968FB68180000F071F9031E7A
:1032800001D0012340E03B6801332DD0FEF778F9EF
:103290000200BB69D31A3A689A4202D33B68002BFA
:1032A00022D1FB681B689B69BA681340BA68D31ABD
:1032B0005A425341DBB21A00FB1D1B789A4213D1CC
:1032C000FB685B6C20221A43FB685A64FB6841224E
:1032D00020219954FB68422200219954FB68402226
:1032E0000021995401230FE0FB681B689B69BA68B1
:1032F0001340BA68D31A5A425341DBB21A00FB1D7D
:103300001B789A42B5D000231800BD4604B080BD9A
:1033100080B584B000AFF860B9607A6032E07A6856
:10332000B968FB68180000F01BF9031E01D00123E7
:1033300030E0BB68013325D0FEF722F902007B683C
:10334000D31ABA689A4202D3BB68002B1AD1FB6821
:103350001B689B6902221340022B13D0FB685B6C35
:1033600020221A43FB685A64FB68412220219954A9
:10337000FB68422200219954FB68402200219954A5
:10338000012307E0FB681B689B6902221340022BA4
:10339000C5D100231800BD4604B080BD80B584B0FF
:1033A00000AFF860B9607A602FE07A68B968FB68AE
:1033B000180000F0D5F8031E01D001232DE0FEF720
:1033C000DFF802007B68D31ABA689A4202D3BB685E
:1033D000002B1AD1FB681B689B6920221340202B0D
:1033E00013D0FB685B6C20221A43FB685A64FB68AD
:1033F000412220219954FB68422200219954FB6804
:10340000402200219954012307E0FB681B689B6957
:1034100020221340202BC8D100231800BD4604B041
:1034200080BD000080B586B000AFF860B9607A60FA
:103430001723FB1800221A707BE07A68B968FB68D2
:10344000180000F08DF8031E03D01723FB1801228B
:103450001A70FB681B689B6920221340202B40D107
:1034600017217B181B78002B3BD1FB681B689B69DD
:1034700004221340042B06D1FB681B8D002B02D0C5
:103480007B1800221A70FB681B689B69102213408E
:10349000102B23D1FB681B681022DA61FB68042221
:1034A0005A64FB681B682022DA61FB681B685A6853
:1034B000FB681B6829490A405A60FB6841222021A9
:1034C0009954FB68422200219954FB684022002154
:1034D00099541723FB1801221A7002E0FB6800229E
:1034E0005A64FEF74DF802007B68D31ABA689A4214
:1034F00002D3BB68002B1CD117203B181B78002B74
:1035000017D1FB681B689B6904221340042B10D061
:10351000FB685B6C20221A43FB685A64FB684122FB
:1035200020219954FB684022002199543B18012224
:103530001A70FB681B689B6904221340042B05D09A
:103540001723FB181B78002B00D176E71723FB18F5
:103550001B781800BD4606B080BDC04600E800FEDE
:1035600080B58AB000AFF860B9607A602723FB1895
:1035700000221A70FB681B689B69BB6100233B62D9
:103580007B68FB61BB691022134000D179E0FB68C6
:103590001B681022DA6157E02722BB18BA1812788C
:1035A0001A70BB6801334FD0FDF7EAFF0200FB69D8
:1035B000D31ABA689A4202D3BB68002B44D1FB6885
:1035C0001B685A688023DB0113407B6113203B1882
:1035D000FA684221525C1A70FB681B689A69802362
:1035E0001B021A4080231B029A4226D17A6980234B
:1035F000DB019A4221D03B181B78202B1DD0FB68A1
:103600001B685A68FB681B688021C9010A435A601D
:10361000FDF7B6FF0300FB610FE0FDF7B1FF02000D
:10362000FB69D31A192B08D93B6A202213433B624A
:103630002723FB1801221A7006E0FB681B689B69B0
:1036400020221340202BE8D1FB681B689B692022B5
:103650001340202B04D02723FB181B78002B9BD072
:103660002723FB181B78002B03D1FB681B68202243
:10367000DA613B6A042213433B622723FB180122D1
:103680001A70FB681B689B69BB61BA6980235B0089
:1036900013400CD03B6A012213433B62FB681B685A
:1036A00080225200DA612723FB1801221A70BA69BE
:1036B0008023DB0013400CD03B6A082213433B629B
:1036C000FB681B688022D200DA612723FB180122E5
:1036D0001A70BA6980239B0013400CD03B6A022207
:1036E00013433B62FB681B6880229200DA61272348
:1036F000FB1801221A702723FB181B78002B1DD002
:10370000FB681800FFF78AFDFB681B685A68FB68B6
:103710001B680E490A405A60FB685A6C3B6A1A43A0
:10372000FB685A64FB68412220219954FB684222BD
:1037300000219954FB684022002199542723FB184B
:103740001B781800BD460AB080BDC04600E800FEE8
:1037500090B587B000AFF860080011007B600A24C4
:103760003B19021C1A8009203B180A1C1A703B19CD
:103770001B889B059A0D3B181B781904FF231B041B
:103780000B401A437B681A43BB6A13435B005B0818
:103790007B61FB681B685B68BA6A510D8022D200AE
:1037A0000A4007490A43D2431A401100FB681B68CC
:1037B0007A690A435A60C046BD4607B090BDC0460C
:1037C000FF63FF0380B582B000AF786039607B682B
:1037D00041229B5CDBB2202B38D17B6840229B5C72
:1037E000012B01D1022332E07B6840220121995450
:1037F0007B684122242199547B681B681A687B6886
:103800001B6801218A431A607B681B681A687B6801
:103810001B6811490A401A607B681B6819687B683D
:103820001B683A680A431A607B681B681A687B68E1
:103830001B6801210A431A607B68412220219954A8
:103840007B68402200219954002300E002231800E5
:10385000BD4602B080BDC046FFEFFFFF80B584B01B
:1038600000AF786039607B6841229B5CDBB2202B23
:1038700039D17B6840229B5C012B01D1022333E0CC
:103880007B684022012199547B684122242199546C
:103890007B681B681A687B681B6801218A431A6071
:1038A0007B681B681B68FB60FB68114A1340FB6068
:1038B0003B681B02FA681343FB607B681B68FA686D
:1038C0001A607B681B681A687B681B6801210A43C1
:1038D0001A607B684122202199547B684022002194
:1038E0009954002300E002231800BD4604B080BDB7
:1038F000FFF0FFFF80B588B000AF78607B68002BD9
:1039000002D1012300F076FB7B681B680122134083
:1039100000D18EE0C54B5B680C221340042B0ED007
:10392000C24B5B680C221340082B17D1BF4B5A685F
:10393000C0235B021A4080235B029A420ED1BB4B2C
:103940001A6880239B02134000D171E07B685B689A
:10395000002B00D06CE0012300F04CFB7B685B681F
:10396000012B07D1B14B1A68B04B802149020A43A1
:103970001A602FE07B685B68002B0CD1AB4B1A6898
:10398000AA4BAB490A401A60A84B1A68A74BA94931
:103990000A401A601EE07B685B68052B0ED1A34BC2
:1039A0001A68A24B8021C9020A431A609F4B1A6809
:1039B0009E4B802149020A431A600BE09B4B1A6818
:1039C0009A4B9B490A401A60984B1A68974B994941
:1039D0000A401A607B685B68002B14D0FDF7D0FDAD
:1039E0000300BB6108E0FDF7CBFD0200BB69D31A01
:1039F000642B01D90323FDE28C4B1A6880239B02C0
:103A00001340F0D015E0FDF7BBFD0300BB6108E0FB
:103A1000FDF7B6FD0200BB69D31A642B01D903235D
:103A2000E8E2824B1A6880239B021340F0D100E049
:103A3000C0467B681B680222134000D16CE07B4BC0
:103A40005B680C2213400ED0784B5B680C2213404D
:103A5000082B1FD1754B5A68C0235B021A40802384
:103A60001B029A4216D1714B1B680222134005D0EB
:103A70007B68DB68012B01D00123BBE26B4B1B6829
:103A8000F822934319007B681B69DA00674B0A43ED
:103A90001A6041E07B68DB68002B24D0634B1A6816
:103AA000624B01210A431A60FDF76AFD0300BB6106
:103AB00008E0FDF765FD0200BB69D31A022B01D9AE
:103AC000032397E2594B1B6802221340F1D0574B56
:103AD0001B68F822934319007B681B69DA00534B7B
:103AE0000A431A6018E0514B1A68504B01218A436F
:103AF0001A60FDF745FD0300BB6108E0FDF740FDDE
:103B00000200BB69D31A022B01D9032372E2474B8F
:103B10001B6802221340F1D17B681B680822134006
:103B200036D07B68DB69002B19D0404B5A6A3F4B7B
:103B300001210A435A62FDF723FD0300BB6108E03F
:103B4000FDF71EFD0200BB69D31A022B01D9032326
:103B500050E2364B5B6A02221340F1D018E0334B3F
:103B60005A6A324B01218A435A62FDF709FD03006C
:103B7000BB6108E0FDF704FD0200BB69D31A022B0C
:103B800001D9032336E2294B5B6A02221340F1D1AB
:103B90007B681B680422134000D1B5E01F203B184E
:103BA00000221A70214BDA6980235B05134010D183
:103BB0001E4BDA691D4B802149050A43DA611B4B14
:103BC000DA6980235B051340FB60FB683B18012228
:103BD0001A70194B1A6880235B0013401AD1164BD8
:103BE0001A68154B802149000A431A60FDF7C8FC8A
:103BF0000300BB6108E0FDF7C3FC0200BB69D31AF8
:103C0000642B01D90323F5E10B4B1A6880235B0079
:103C10001340F0D07B689B68012B0FD1034B1A6ACD
:103C2000024B01210A431A6236E0C04600100240EE
:103C3000FFFFFEFFFFFFFBFF007000407B689B68FB
:103C4000002B0CD1CA4B1A6AC94B01218A431A6254
:103C5000C74B1A6AC64B04218A431A621CE07B6870
:103C60009B68052B0CD1C24B1A6AC14B04210A4335
:103C70001A62BF4B1A6ABE4B01210A431A620BE05B
:103C8000BB4B1A6ABA4B01218A431A62B84B1A6AB3
:103C9000B74B04218A431A627B689B68002B14D0BF
:103CA000FDF76EFC0300BB6109E0FDF769FC020053
:103CB000BB69D31AAF4A934201D903239AE1AC4BB3
:103CC0001B6A02221340F0D013E0FDF759FC0300F9
:103CD000BB6109E0FDF754FC0200BB69D31AA54A99
:103CE000934201D9032385E1A14B1B6A02221340B1
:103CF000F0D11F23FB181B78012B05D19C4BDA69EF
:103D00009B4B9D490A40DA617B681B681022134077
:103D100063D07B685B69012B2AD1954B5A6B944B1E
:103D200004210A435A63924B5A6B914B01210A4377
:103D30005A63FDF725FC0300BB6108E0FDF720FC9A
:103D40000200BB69D31A022B01D9032352E1884B2D
:103D50005B6B02221340F1D0854B5B6BF8229343DF
:103D600019007B689B69DA00814B0A435A6334E08F
:103D70007B685B69053311D17D4B5A6B7C4B042109
:103D80008A435A637A4B5B6BF822934319007B6832
:103D90009B69DA00764B0A435A631EE0744B5A6BF8
:103DA000734B04210A435A63714B5A6B704B0121C8
:103DB0008A435A63FDF7E4FB0300BB6108E0FDF7AB
:103DC000DFFB0200BB69D31A022B01D9032311E1E7
:103DD000674B5B6B02221340F1D17B681B6820228A
:103DE00013405CD0624B5B680C2213400C2B0ED04E
:103DF0005F4B5B680C221340082B14D15C4B5A6854
:103E0000C0235B021A40C0235B029A420BD1584B7D
:103E10005A6B80239B02134040D07B681B6A012BA6
:103E20003CD00123E6E07B681B6A002B1BD0504B83
:103E30005A6B4F4B802149020A435A63FDF7A0FB9E
:103E40000300BB6108E0FDF79BFB0200BB69D31ACE
:103E5000022B01D90323CDE0454B5A6B80239B02F3
:103E60001340F0D01BE0424B5A6B414B43490A4090
:103E70005A63FDF785FB0300BB6108E0FDF780FB9B
:103E80000200BB69D31A022B01D90323B2E0384BDD
:103E90005A6B80239B021340F0D100E0C0467B6840
:103EA0005B6A002B00D1A4E0314B5B680C2213400D
:103EB000082B00D178E07B685B6A022B4CD12C4B3D
:103EC0001A682B4B2E490A401A60FDF759FB030074
:103ED000BB6108E0FDF754FB0200BB69D31A022B5B
:103EE00001D9032386E0224B1A6880239B041340E8
:103EF000F0D11F4BDB6A0F22934319007B681A6BCA
:103F00001B4B0A43DA621A4B5B681E4A13401900C6
:103F10007B68DA6A7B689B6A1A43154B0A435A60CE
:103F2000134B1A68124B802149040A431A60FDF7AB
:103F300027FB0300BB6108E0FDF722FB0200BB6921
:103F4000D31A022B01D9032354E0094B1A688023AA
:103F50009B041340F0D04CE0054B1A68044B084911
:103F60000A401A60FDF70CFB0300BB6115E0C04678
:103F70000010024088130000FFFFFFEFFFFFFEFF6D
:103F8000FFFFFFFEFF7FC2FFFDF7FAFA0200BB69E9
:103F9000D31A022B01D903232CE0184B1A68802373
:103FA0009B041340F0D124E07B685B6A012B01D1B4
:103FB00001231FE0114B5B687B61104BDB6A3B61A7
:103FC0007A69C0235B021A407B689B6A9A420ED1D1
:103FD0003B690F221A407B681B6B9A4207D17A69B2
:103FE000F0239B031A407B68DB6A9A4201D00123CD
:103FF00000E000231800BD4608B080BD001002405C
:1040000080B584B000AF786039607B68002B01D147
:104010000123BFE0614B1B68012213403A689A42BA
:1040200011D95E4B1B680122934319005B4B3A6820
:104030000A431A60594B1B68012213403A689A429E
:1040400001D00123A6E07B681B680222134015D033
:104050007B681B680422134006D0514B5A68504BB2
:10406000E021C9000A435A604D4B5B68F02293433C
:1040700019007B689A684A4B0A435A607B681B6840
:10408000012213404CD07B685B68012B07D1444B65
:104090001A6880239B02134020D101237AE07B68B9
:1040A0005B68022B07D13E4B1A6880239B041340A8
:1040B00014D101236EE07B685B68032B07D1384B7A
:1040C0005A6B80239B02134008D1012362E0344BDA
:1040D0001B680222134001D101235BE0304B5B6877
:1040E0000322934319007B685A682D4B0A435A6098
:1040F000FDF746FA0300FB6009E0FDF741FA020014
:10410000FB68D31A274A934201D9032342E0244B88
:104110005B680C221A407B685B689B009A42ECD17A
:104120001E4B1B68012213403A689A4211D21B4B66
:104130001B68012293431900184B3A680A431A601E
:10414000164B1B68012213403A689A4201D00123A2
:1041500020E07B681B680422134009D0104B5B6889
:10416000114A134019007B68DA680D4B0A435A6004
:1041700000F020F801000A4B5B681B090F22134076
:104180000A4AD35C0A00DA40094B1A600320FDF7A3
:10419000B1F900231800BD4604B080BD00200240E4
:1041A0000010024088130000FFF8FFFFB072000803
:1041B0000000002080B586B000AF0023FB60002324
:1041C000BB6000237B6100237B6000233B612D4BA0
:1041D0005B68FB60FB680C2213400C2B46D048D870
:1041E000042B02D0082B03D043E0274B3B6143E074
:1041F000FB689B0C0F221340244AD35C7B60214B4D
:10420000DB6A0F221340224AD35CBB60FA68C023EA
:104210005B021A4080235B029A4209D1B9681A48AE
:10422000FBF77CFF03001A007B6853437B611AE0B5
:10423000FA68C0235B021A40C0235B029A4209D18C
:10424000B9681448FBF76AFF03001A007B68534300
:104250007B6108E0B9680C48FBF760FF03001A00B7
:104260007B6853437B617B693B6105E0094B3B61A4
:1042700002E0054B3B61C0463B691800BD4606B0F5
:1042800080BDC0460010024000127A00047300088E
:1042900014730008006CDC0280B500AF024B1B6891
:1042A0001800BD4680BDC0460000002080B500AFAC
:1042B000FFF7F2FF0100064B5B681B0A0722134061
:1042C000044AD35CD9400B001800BD4680BDC046EF
:1042D00000100240C072000880B586B000AF786060
:1042E00000233B610023FB607B681A6880235B022C
:1042F000134000D18EE017203B1800221A706E4B3D
:10430000DA6980235B05134010D16B4BDA696A4B85
:10431000802149050A43DA61674BDA6980235B052E
:104320001340BB60BB683B1801221A70634B1A68CC
:1043300080235B0013401AD1604B1A685F4B8021C9
:1043400049000A431A60FDF71BF903003B6108E0CE
:10435000FDF716F902003B69D31A642B01D9032338
:10436000A6E0564B1A6880235B001340F0D0524BF6
:104370001A6AC0239B001340FB60FB68002B34D0FB
:104380007B685A68C0239B001340FA689A422CD07D
:10439000494B1B6A4A4A1340FB60474B1A6A464B1B
:1043A000802149020A431A62434B1A6A424B45492B
:1043B0000A401A62404BFA681A62FB6801221340F5
:1043C00013D0FDF7DDF803003B6109E0FDF7D8F8F5
:1043D00002003B69D31A3C4A934201D9032367E0A8
:1043E000354B1B6A02221340F0D0334B1B6A344A10
:1043F000134019007B685A682F4B0A431A6217232F
:10440000FB181B78012B05D12B4BDA692A4B2F495E
:104410000A40DA617B681B680122134009D0264BF1
:104420001B6B0322934319007B689A68224B0A4353
:104430001A637B681B680222134009D01E4B1B6B5A
:10444000234A134019007B68DA681B4B0A431A633E
:104450007B681B682022134009D0174B1B6B10226E
:10446000934319007B681A69134B0A431A637B68EC
:104470001A6880239B02134009D00F4B1B6B8022CC
:10448000934319007B689A690B4B0A431A637B6854
:104490001A688023DB00134009D0074B1B6B4022B6
:1044A000934319007B685A69034B0A431A6300233C
:1044B0001800BD4606B080BD0010024000700040EC
:1044C000FFFCFFFFFFFFFEFF88130000FFFFFFEF71
:1044D000FFFFFCFF80B582B000AF78607B68002BE7
:1044E00001D1012344E07B68DB6F002B07D17B689F
:1044F0007822002199547B681800FCF769FC7B68DE
:104500002422DA677B681B681A687B681B680121B4
:104510008A431A607B685B6A002B03D07B681800B3
:1045200000F098FD7B68180000F00CFC0300012BE4
:1045300001D101231CE07B681B685A687B681B68FB
:104540000D490A405A607B681B689A687B681B6843
:104550002A218A439A607B681B681A687B681B68FB
:1045600001210A431A607B68180000F027FE03004F
:104570001800BD4602B080BDFFB7FFFF80B588B010
:1045800000AFF860B960BB1D1A80FB68DB6F202BA1
:1045900000D077E0BB68002B03D0BB1D1B88002B2D
:1045A00001D101236FE0FB689A6880235B019A4286
:1045B00009D1FB681B69002B05D1BB6801221340A0
:1045C00001D001235FE0FB68BA68DA64FB68BA1DBA
:1045D000502112885A52FB68BA1D522112885A5231
:1045E000FB68842200219950FB682122DA67FB686E
:1045F0001B6F002B27D0FB681B6F254A9A62FB6854
:104600001B6F244ADA62FB681B6F234A1A63FB683C
:104610001B6F00225A63FB68186FFB68DB6C190084
:10462000FB681B6828331A00BB1D1B88FDF7A4FF1D
:10463000031E08D0FB68842210219950FB682022B9
:10464000DA6701231FE0FB681B6840221A62EFF360
:1046500010833B613B69FB6101237B617B6983F3D1
:104660001088C046FB681B689A68FB681B6880213D
:104670000A439A60FB69BB61BB6983F31088C0463B
:10468000002300E002231800BD4608B080BDC046EC
:104690003D560008D15600085F58000880B588B024
:1046A00000AFF860B960BB1D1A80FB6880229B5880
:1046B000202B45D1BB68002B03D0BB1D1B88002BD2
:1046C00001D101233DE0FB689A6880235B019A4297
:1046D00009D1FB681B69002B05D1BB68012213407F
:1046E00001D001232DE0FB6800221A66FB681B68DD
:1046F0005A6880231B04134019D0EFF310833B61E9
:104700003B69FB6101237B617B6983F31088C046B1
:10471000FB681B681A68FB681B688021C9040A4390
:104720001A60FB69BB61BB6983F31088C046BB1D7F
:104730001A88B968FB68180000F058FE030000E012
:1047400002231800BD4608B080BD000090B5ABB094
:1047500000AF78607B681B68DB69A422B9180B6026
:104760007B681B681B68A02039180B607B681B687E
:104770009B689C2179180B601100BB181B68994A33
:1047800013409822BC182360BB181B68002B14D15F
:104790007B181B68202213400FD03B181B68202277
:1047A00013400AD07B689B6E002B00D19EE27B6891
:1047B0009B6E7A681000984798E29823FB181B6854
:1047C000002B00D114E19C23FB181B68012213402D
:1047D00006D1A023FB181B68834A134000D107E1D0
:1047E000A423FB181B680122134012D0A023FB183E
:1047F0001A6880235B0013400BD07B681B68012282
:104800001A627B6884229B5801221A437B688421A8
:104810005A50A423FB181B680222134011D09C237A
:10482000FB181B68012213400BD07B681B68022217
:104830001A627B6884229B5804221A437B68842175
:104840005A50A423FB181B680422134011D09C2348
:10485000FB181B68012213400BD07B681B680422E5
:104860001A627B6884229B5802221A437B68842147
:104870005A50A423FB181B680822134017D0A0230A
:10488000FB181B682022134005D19C23FB181B68D2
:10489000012213400BD07B681B6808221A627B68D8
:1048A00084229B5808221A437B6884215A50A423EF
:1048B000FB181A6880231B01134013D0A023FB1898
:1048C0001A688023DB0413400CD07B681B688022AD
:1048D00012011A627B6884229B5820221A437B684B
:1048E00084215A507B6884229B58002B00D1FFE121
:1048F000A423FB181B68202213400ED0A023FB1812
:104900001B682022134008D07B689B6E002B04D0CC
:104910007B689B6E7A68100098477B6884229B585E
:1049200094217A1813607B681B689B6840221340AF
:10493000402B04D07B181B682822134047D07B688B
:10494000180000F017FE7B681B689B68402213402C
:10495000402B37D1EFF310833B663B6E90203A1823
:10496000136001237B667B6E83F31088C0467B68EF
:104970001B689A687B681B6840218A439A603B18D1
:104980001B68BB66BB6E83F31088C0467B685B6F99
:10499000002B12D07B685B6F144A5A637B685B6F95
:1049A0001800FDF787FE031E1AD07B685B6F5A6BF9
:1049B0007B685B6F1800904712E07B68180001F07D
:1049C00064FA0DE07B68180001F05FFA08E07B688C
:1049D000180001F05AFA7B6884220021995087E17F
:1049E000C04685E10F08000020010004E3580008DC
:1049F0007B681B6E012B00D039E1A423FB181B68D8
:104A00001022134000D132E1A023FB181B681022B2
:104A1000134000D12BE17B681B6810221A627B686F
:104A20001B689B6840221340402B00D09FE07B68AE
:104A30005B6F1B685A687E217B181A807B181B8865
:104A4000002B00D156E17B6858229B5A7A181288B5
:104A50009A4200D34EE17B687A185A2112885A5242
:104A60007B685B6F9B69202B6FD0EFF310833B63F8
:104A70003B6BBB6701237B637B6B83F31088C04672
:104A80007B681B681A687B681B689E490A401A602D
:104A9000BB6FBB63BB6B83F31088C046EFF310831F
:104AA000FB63FB6B7B6701233B643B6C83F31088E8
:104AB000C0467B681B689A687B681B6801218A4333
:104AC0009A607B6F7B647B6C83F31088C046EFF346
:104AD0001083BB64BB6C3B670123FB64FB6C83F3FB
:104AE0001088C0467B681B689A687B681B684021F9
:104AF0008A439A603B6F3B653B6D83F31088C046E9
:104B00007B688022202199507B6800221A66EFF38F
:104B100010837B657B6DFB660123BB65BB6D83F3F7
:104B20001088C0467B681B681A687B681B68102168
:104B30008A431A60FB6EFB65FB6D83F31088C046E9
:104B40007B685B6F1800FDF77DFD7B6802225A666B
:104B50007B6858229A5A7B685A215B5A9BB2D31AB7
:104B60009AB27B681100180000F0E0F8C2E07B68A0
:104B70005822995A7B685A229B5A9AB28E203B1827
:104B80008A1A1A807B685A229B5A9BB2002B00D14A
:104B9000B2E03B181B88002B00D1ADE0EFF310838F
:104BA000FB60FB6888243A19136001233B613B6971
:104BB00083F31088C0467B681B681A687B681B6893
:104BC00051490A401A603B191B687B617B6983F37A
:104BD0001088C046EFF31083BB61BB6984243A1987
:104BE00013600123FB61FB6983F31088C0467B6877
:104BF0001B689A687B681B6801218A439A603B198D
:104C00001B683B623B6A83F31088C0467B68802246
:104C1000202199507B6800221A667B6800229A66E0
:104C2000EFF310837B627B6A80243A1913600123BF
:104C3000BB62BB6A83F31088C0467B681B681A6836
:104C40007B681B6810218A431A603B191B68FB6252
:104C5000FB6A83F31088C0467B6802225A663B18C1
:104C60001A887B681100180000F060F844E0A42363
:104C7000FB181A6880235B03134010D09C23FB1899
:104C80001A688023DB03134009D07B681B688022ED
:104C900052031A627B68180000F065FE2FE0A4231F
:104CA000FB181B68802213400FD0A023FB181B6841
:104CB0008022134009D07B68DB6E002B1ED07B68FE
:104CC000DB6E7A681000984718E0A423FB181B6875
:104CD0004022134013D0A023FB181B68402213402E
:104CE0000DD07B68180000F013FE08E0C04606E017
:104CF000C04604E0C04602E0C04600E0C046BD46F3
:104D00002BB090BDFFFEFFFFDFFEFFFF80B582B03E
:104D100000AF7860C046BD4602B080BD80B582B0AD
:104D200000AF7860C046BD4602B080BD80B582B09D
:104D300000AF78600A00BB1C1A80C046BD4602B0B6
:104D400080BD000080B588B000AF78601E23FB18DE
:104D500000221A707B689A687B681B691A437B681B
:104D60005B691A437B68DB6913437B617B681B6863
:104D70001B68AF4A134019007B681B687A690A43B5
:104D80001A607B681B685B68AA4A134019007B683D
:104D9000DA687B681B680A435A607B689B697B61A1
:104DA0007B681B6A7A6913437B617B681B689B681D
:104DB000A14A134019007B681B687A690A439A600C
:104DC0007B681B689D4A934227D19D4B1B6B032236
:104DD0001340032B0DD01BD8022B14D018D8002B56
:104DE00002D0012B0AD013E01F23FB1800221A70F7
:104DF00065E01F23FB1802221A7060E01F23FB18D6
:104E000004221A705BE01F23FB1808221A7056E078
:104E10001F23FB1810221A7051E07B681B68894A17
:104E2000934234D1864B1A6BC0239B021340C0229D
:104E30009202934217D0C0229202934222D880223B
:104E40009202934219D08022920293421AD8002BE8
:104E500004D08022520293420AD013E01F23FB1891
:104E600000221A702BE01F23FB1802221A7026E082
:104E70001F23FB1804221A7021E01F23FB180822AD
:104E80001A701CE01F23FB1810221A7017E07B68B1
:104E90001B686D4A934204D11F23FB1800221A702D
:104EA0000DE07B681B68694A934204D11F23FB18FD
:104EB00000221A7003E01F23FB1810221A707B686F
:104EC000DA6980231B029A425CD11F23FB181B78EE
:104ED000082B15D018DC042B0DD015DC002B02D0CC
:104EE000022B05D010E0FFF7E1F90300BB6112E0EF
:104EF000574BBB610FE0FFF75DF90300BB610AE0B0
:104F000080231B02BB6106E00023BB611E23FB184C
:104F100001221A70C046BB69002B00D17AE0BB6940
:104F20005A007B685B685B08D2187B685B68190075
:104F30001000FBF7F3F803003B613B690F2B1CD912
:104F40003A6980235B029A4217D23B699AB20E20DB
:104F50003B180F218A431A803B695B089BB20722EA
:104F6000134099B23B183A1812880A431A807B689A
:104F70001B683A181288DA604CE01E23FB180122E5
:104F80001A7047E01F23FB181B78082B15D018DC7C
:104F9000042B0DD015DC002B02D0022B05D010E025
:104FA000FFF784F90300BB6112E0294BBB610FE0FE
:104FB000FFF700F90300BB610AE080231B02BB611D
:104FC00006E00023BB611E23FB1801221A70C046B5
:104FD000BB69002B1ED07B685B685A08BB69D2187E
:104FE0007B685B6819001000FBF798F803003B61D1
:104FF0003B690F2B0AD93A6980235B029A4205D29A
:105000003B699AB27B681B68DA6003E01E23FB18D9
:1050100001221A707B6800229A667B680022DA6699
:105020001E23FB181B781800BD4608B080BDC04683
:10503000F369FFEFFFCFFFFFFFF4FFFF00380140F0
:10504000001002400044004000480040004C004076
:1050500000127A0080B582B000AF78607B685B6A2E
:10506000082213400BD07B681B685B684A4A1340D8
:1050700019007B685A6B7B681B680A435A607B681F
:105080005B6A012213400BD07B681B685B68434A54
:10509000134019007B689A6A7B681B680A435A6050
:1050A0007B685B6A022213400BD07B681B685B68DD
:1050B0003B4A134019007B68DA6A7B681B680A4325
:1050C0005A607B685B6A042213400BD07B681B68C4
:1050D0005B68344A134019007B681A6B7B681B6855
:1050E0000A435A607B685B6A102213400BD07B68CE
:1050F0001B689B682C4A134019007B689A6B7B687D
:105100001B680A439A607B685B6A202213400BD0BD
:105110007B681B689B68254A134019007B68DA6B23
:105120007B681B680A439A607B685B6A4022134075
:105130001DD07B681B685B681D4A134019007B68A3
:105140001A6C7B681B680A435A607B681A6C802360
:105150005B039A420BD17B681B685B68154A13405E
:1051600019007B685A6C7B681B680A435A607B682D
:105170005B6A802213400BD07B681B685B680E4A19
:10518000134019007B689A6C7B681B680A435A605D
:10519000C046BD4602B080BDFF7FFFFFFFFFFDFFA1
:1051A000FFFFFEFFFFFFFBFFFFEFFFFFFFDFFFFF44
:1051B000FFFFEFFFFFFF9FFFFFFFF7FF80B592B0FC
:1051C00002AF78607B68842200219950FCF7D8F9FF
:1051D0000300FB637B681B681B6808221340082BD5
:1051E0002CD1FB6B802291037868464A0092002202
:1051F00000F08CF8031E21D0EFF310837B627B6AF2
:10520000BB630123BB62BB6A83F31088C0467B6823
:105210001B681A687B681B6880218A431A60BB6B15
:10522000FB62FB6A83F31088C0467B682022DA6742
:105230007B6878220021995403235FE07B681B6818
:105240001B6804221340042B46D1FB6B8022D10340
:1052500078682C4A0092002200F058F8031E3BD0D8
:10526000EFF31083FB60FB687B6301233B613B69C9
:1052700083F31088C0467B681B681A687B681B68CC
:1052800021490A401A607B6B7B617B6983F310883C
:10529000C046EFF31083BB61BB693B630123FB6135
:1052A000FB6983F31088C0467B681B689A687B683B
:1052B0001B6801218A439A603B6B3B623B6A83F324
:1052C0001088C0467B688022202199507B68782214
:1052D00000219954032311E07B682022DA677B6860
:1052E0008022202199507B6800221A667B68002268
:1052F0005A667B6878220021995400231800BD4625
:1053000010B080BDFFFFFF01DFFEFFFF80B584B05E
:1053100000AFF860B9603B60FB1D1A7051E0BB69DB
:1053200001334ED0FCF72CF902003B68D31ABA695E
:105330009A4202D3BB69002B01D1032351E0FB68E1
:105340001B681B68042213403BD0BB68802B38D0FD
:10535000BB68402B35D0FB681B68DB690822134013
:10536000082B11D1FB681B6808221A62FB68180021
:1053700000F000F9FB68842208219950FB6878222C
:105380000021995401232CE0FB681B68DA69802313
:105390001B011A4080231B019A4212D1FB681B6833
:1053A000802212011A62FB68180000F0E3F8FB6823
:1053B000842220219950FB687822002199540323EC
:1053C0000FE0FB681B68DB69BA681340BA68D31A40
:1053D0005A425341DBB21A00FB1D1B789A429ED001
:1053E00000231800BD4604B080BD000080B590B019
:1053F00000AFF860B960BB1D1A80FB68BA685A65D7
:10540000FB68BA1D582112885A52FB688422002179
:105410009950FB68802222219950FB685B6F002B1A
:1054200028D0FB685B6F3E4A9A62FB685B6F3D4A1F
:10543000DA62FB685B6F3C4A1A63FB685B6F0022B1
:105440005A63FB68586FFB681B6824331900FB68BC
:105450005B6D1A00BB1D1B88FDF78EF8031E09D07B
:10546000FB68842210219950FB68802220219950EA
:10547000012350E0FB681B69002B19D0EFF3108368
:10548000BB62BB6AFB630123FB62FB6A83F3108888
:10549000C046FB681B681A68FB681B6880214900CE
:1054A0000A431A60FB6B3B633B6B83F31088C04677
:1054B000EFF310833B613B69BB6301237B617B6935
:1054C00083F31088C046FB681B689A68FB681B68FA
:1054D00001210A439A60BB6BBB61BB6983F31088EF
:1054E000C046EFF31083FB61FB697B6301233B62E2
:1054F0003B6A83F31088C046FB681B689A68FB68A8
:105500001B6840210A439A607B6B7B627B6A83F352
:105510001088C04600231800BD4610B080BDC046AC
:10552000F15600081D5800085F58000880B586B085
:1055300000AF7860EFF31083BB60BB687B61012331
:10554000FB60FB6883F31088C0467B681B681A68A1
:105550007B681B68C0218A431A607B693B613B6999
:1055600083F31088C0467B682022DA67C046BD46B8
:1055700006B080BD80B58EB000AF7860EFF31083C9
:105580007B617B697B630123BB61BB6983F310880B
:10559000C0467B681B681A687B681B6826490A40FE
:1055A0001A607B6BFB61FB6983F31088C046EFF3E5
:1055B00010833B623B6A3B6301237B627B6A83F31C
:1055C0001088C0467B681B689A687B681B6801214D
:1055D0008A439A603B6BBB62BB6A83F31088C04608
:1055E0007B681B6E012B18D1EFF31083BB60BB6887
:1055F000FB620123FB60FB6883F31088C0467B6875
:105600001B681A687B681B6810218A431A60FB6A52
:105610003B613B6983F31088C0467B688022202170
:1056200099507B6800221A667B6800229A66C04601
:10563000BD460EB080BDC046DFFEFFFF80B58CB01A
:1056400000AF78607B685B6AFB627B689B69202B9C
:1056500035D0FB6A522200219952EFF31083FB6090
:10566000FB68BB6201233B613B6983F31088C04642
:10567000FB6A1B689A68FB6A1B6880218A439A60F0
:10568000BB6A7B617B6983F31088C046EFF31083AC
:10569000BB61BB697B620123FB61FB6983F31088FB
:1056A000C046FB6A1B681A68FB6A1B6840210A43F4
:1056B0001A607B6A3B623B6A83F3108804E0FB6AF2
:1056C000180000F09BFBC046C046BD460CB080BD34
:1056D00080B584B000AF78607B685B6AFB60FB6874
:1056E0001800FFF713FBC046BD4604B080BD0000A4
:1056F00080B594B000AF78607B685B6AFB647B68C0
:105700009B69202B6FD0FB6C5A2200219952EFF33A
:105710001083BB61BB69BB640123FB61FB6983F33D
:105720001088C046FB6C1B681A68FB6C1B683A4902
:105730000A401A60BB6C3B623B6A83F31088C04628
:10574000EFF310837B627B6A7B640123BB62BB6ADD
:1057500083F31088C046FB6C1B689A68FB6C1B685F
:1057600001218A439A607B6CFB62FB6A83F3108899
:10577000C046EFF310833B633B6B3B6401237B63C9
:105780007B6B83F31088C046FB6C1B689A68FB6CCC
:105790001B6840218A439A603B6CBB63BB6B83F3FD
:1057A0001088C046FB6C802220219950FB6C1B6E38
:1057B000012B18D1EFF31083FB60FB68FB6301231F
:1057C0003B613B6983F31088C046FB6C1B681A6819
:1057D000FB6C1B6810218A431A60FB6B7B617B6941
:1057E00083F31088C046FB6C00225A66FB6C1B6E6C
:1057F000012B08D1FB6C58229A5AFB6C110018003F
:10580000FFF794FA03E0FB6C180000F01EFBC046A3
:10581000BD4614B080BDC046FFFEFFFF80B584B01A
:1058200000AF78607B685B6AFB60FB6801225A66A8
:10583000FB681B6E012B0AD1FB6858229B5A5B0840
:105840009AB2FB6811001800FFF770FA03E0FB68DA
:105850001800FFF763FAC046BD4604B080BD80B5AE
:1058600086B000AF78607B685B6A7B617B69DB6FC9
:105870003B617B6980229B58FB607B691B689B684E
:1058800080221340802B0AD13B69212B07D17B69F1
:105890005222002199527B691800FFF747FE7B696D
:1058A0001B689B6840221340402B0AD1FB68222BC7
:1058B00007D17B695A22002199527B691800FFF7B2
:1058C00059FE7B6984229B5810221A437B698421EC
:1058D0005A507B69180000F0D8FAC046BD4606B0A1
:1058E00080BD80B584B000AF78607B685B6AFB6088
:1058F000FB685A2200219952FB68522200219952DA
:10590000FB68180000F0C1FAC046BD4604B080BD77
:1059100080B586B000AF7860EFF31083BB60BB68E2
:105920007B610123FB60FB6883F31088C0467B68C2
:105930001B681A687B681B6840218A431A607B6970
:105940003B613B6983F31088C0467B682022DA679D
:105950007B680022DA667B68180000F04FFAC046C8
:10596000BD4606B080BD80B582B000AF7860C0464D
:10597000BD4602B080BD80B582B000AF78607B6864
:1059800000221A80C046BD4602B080BD80B584B0FA
:1059900000AF78600A00FB1C1A707B681B881AB283
:1059A000FB1C1B781BB21B021BB253401BB29AB2EA
:1059B0007B681A800F23FB1800221A701CE07B689A
:1059C0001B881BB2002B0BDA7B681B881BB2DB1811
:1059D0001BB20E4A53401BB29AB27B681A8005E094
:1059E0007B681B88DB189AB27B681A800F217B18B2
:1059F0001A787B1801321A700F23FB181B78072BBB
:105A0000DDD9C046C046BD4604B080BD21100000AF
:105A100080B582B000AF78607B681B881800BD46F7
:105A200002B080BD0EB4B0B587B000AF7860172368
:105A3000FB1802221A707B681800FFF79CFF2823CE
:105A400008229B18DB19FB601623FB1800221A7032
:105A50001AE0FB681A1DFA601B68DAB213243B19BE
:105A60001A703B191A787B6811001800FFF78EFF37
:105A70003A197B681100180000F04AF816217B18CB
:105A80001A787B1801321A701623FA182423082179
:105A90005B18DB1912781B789A42DAD314257C192B
:105AA0007B681800FFF7B4FF030023807B191B8875
:105AB0001B0A9BB2DAB212243B191A703A197B689E
:105AC0001100180000F024F87B191B88DAB23B198A
:105AD0001A703A197B681100180000F019F87B68F9
